:020000040800F2
:1000000000000220F94700083D4200083F42000876
:100010004142000843420008454200080000000039
:10002000000000000000000000000000474200083F
:1000300049420008000000004B4200084D42000801
:10004000494800084948000849480008494800084C
:10005000494800084948000849480008494800083C
:10006000494800084948000849480008494800082C
:10007000494800084948000849480008494800081C
:10008000494800084948000849480008494800080C
:1000900049480008494800084948000849480008FC
:1000A00049480008494800084948000849480008EC
:1000B00049480008494800084948000849480008DC
:1000C00049480008494800084948000849480008CC
:1000D00049480008554200084948000849480008B6
:1000E00049480008494800084948000849480008AC
:1000F000494800084948000849480008494800089C
:10010000494800084948000849480008494800088B
:10011000494800084948000849480008494800087B
:10012000494800084948000849480008494800086B
:10013000494800084948000849480008494800085B
:10014000494800084948000849480008494800084B
:10015000494800084948000849480008494800083B
:10016000494800084948000849480008494800082B
:1001700049480008494800084948000800000000B4
:08018000494800084948000845
:1001900010B5054C237833B9044B13B10448AFF3C1
:1001A00000800123237010BDF80200200000000031
:1001B000BC50000808B5034B1BB103490348AFF31B
:1001C000008008BD00000000FC020020BC500008B8
:1001D00053B94AB9002908BF00281CBF4FF0FF31AE
:1001E0004FF0FF3000F072B9ADF1080C6DE904CEAC
:1001F00000F006F8DDF804E0DDE9022304B0704702
:100200002DE9F047089E04468846002B4BD18A42D0
:10021000154667D9B2FA82F24AB1C2F1200701FA53
:1002200002F320FA07F7954047EA030894404FEAA3
:10023000154E230CB8FBFEF71FFA85FC0EFB178842
:1002400043EA084307FB0CF1994209D9EB1807F17F
:10025000FF3080F01B81994240F21881023F2B440D
:100260005B1AA4B2B3FBFEF00EFB103344EA034466
:1002700000FB0CFCA44509D92C1900F1FF3380F0D8
:100280000781A44540F2048102382C4440EA07402B
:10029000A4EB0C0400271EB1D4400023C6E90043A0
:1002A0003946BDE8F0878B4209D9002E00F0EB807B
:1002B0000027C6E9000138463946BDE8F087B3FAA1
:1002C00083F7002F47D18B4202D3824200F2FA809B
:1002D000841A61EB030301209846002EE0D0C6E9A2
:1002E0000048DDE702B9FFDEB2FA82F2002A40F0F0
:1002F0008F80491B4FEA154E1FFA85F80127B1FB85
:10030000FEFC230C0EFB1C1143EA014308FB0CF11D
:10031000994207D9EB180CF1FF3002D2994200F252
:10032000CD808446591AA3B2B1FBFEF00EFB101427
:1003300043EA044408FB00F8A04507D92C1900F152
:10034000FF3302D2A04500F2B6801846A4EB0804A1
:1003500040EA0C409FE7C7F1200CBB4022FA0CFE9C
:100360004EEA030E01FA07F420FA0CF521FA0CF319
:100370004FEA1E482543B3FBF8F92C0C08FB193350
:100380001FFA8EFA44EA034309FB0AF49C4202FA7C
:1003900007F200FA07F10BD91EEB030309F1FF3056
:1003A00080F087809C4240F28480A9F10209734466
:1003B0001B1BADB2B3FBF8F008FB103345EA034456
:1003C00000FB0AFAA24508D91EEB040400F1FF3332
:1003D0006BD2A24569D90238744440EA0940A0FBB7
:1003E0000289A4EB0A044C45C2464B4654D351D073
:1003F000002E69D0B1EB0A0564EB030404FA0CFC8F
:10040000FD40FC404CEA0505C6E90054002747E7DB
:10041000C2F1200320FA03F7954001FA02F021FA15
:1004200003F34FEA154E3843010CB3FBFEF71FFAF6
:1004300085F80EFB173341EA034107FB08F38B42B3
:1004400004FA02F407D9691807F1FF3C2FD28B4256
:100450002DD9023F2944CB1A81B2B3FBFEF00EFB2B
:10046000103341EA034100FB08F38B4207D96918B6
:1004700000F1FF3C17D28B4215D902382944C91A22
:1004800040EA07473BE73746304609E70746E7E6D5
:100490001846FBE64145ABD2B8EB020A69EB0E0207
:1004A00001381346A4E76046E9E7184695E7674632
:1004B000D1E781467CE702382C4447E7ACF1020CD7
:1004C0002B442FE7384608E73746E9E6704700BF78
:1004D000034613F8012B002AFBD1181A0138704784
:1004E00001F0FF01102A2BDB10F0070F08D010F8E5
:1004F000013B013A8B422DD010F0070F42B3F6D1E9
:10050000F0B441EA012141EA014122F007047FF001
:1005100000070023F0E80256083C85EA010586EA58
:10052000010685FA47F5A3FA87F586FA47F6A5FA94
:1005300087F68EB9EED1F0BC01F0FF0102F00702A0
:1005400032B110F8013B013A83EA010313B1F8D14B
:100550000020704701387047002D06BF354603382C
:10056000073815F0010F07D1013015F4807F02BF65
:10057000013015F4C03F0130F0BC0138704700BFB6
:1005800010B504460E4B18784FF47A73B3FBF0F3B2
:100590000C4A1068B0FBF3F000F0AAF868B90F2C11
:1005A00001D901200AE0002221464FF0FF3000F07F
:1005B0005DF8034B5C60002000E0012010BD00BF2F
:1005C00000000020D000002008B50B4B1A6842F450
:1005D00000721A601A6842F480621A601A6842F463
:1005E00080721A60032000F02FF80020FFF7C8FF88
:1005F00003F008FD002008BD003C0240034A1168DA
:10060000034B1B780B441360704700BF3C03002072
:1006100000000020014B1868704700BF3C03002019
:1006200038B50446FFF7F6FF0546B4F1FF3F02D0A8
:10063000044B1B781C44FFF7EDFF401BA042FAD38C
:1006400038BD00BF00000020074AD36823F4E063F0
:100650001B041B0C000200F4E060184340F0BF6074
:1006600040F40030D060704700ED00E030B4174B2C
:10067000DB68C3F30223C3F10704042C28BF04245E
:100680001D1D062D18D9033B4FF0FF3505FA04F464
:1006900021EA0401994005FA03F322EA030319430E
:1006A00000280BDB0901C9B200F1604000F5614090
:1006B00080F8001330BC70470023E5E700F00F001E
:1006C0000901C9B2024B1954F4E700BF00ED00E084
:1006D00014ED00E0002807DB00F01F0240090123B1
:1006E0009340024A42F82030704700BF00E100E02A
:1006F0000138B0F1807F0AD2064B5860064AF021DB
:1007000082F823100020986007221A6070470120A9
:10071000704700BF10E000E000ED00E090F83530D9
:10072000DBB2022B03D080234365012070470523F1
:1007300080F835300268136823F00103136000204D
:100740007047000000230F2B00F2D780F0B583B074
:1007500039E0072200E00022AA403A430234674D04
:1007600045F82420664A1468F24302EA04054F68FB
:1007700017F4803F01D046EA0405614C25606468A7
:1007800002EA04054F6817F4003F01D046EA040569
:100790005B4C6560A46802EA04054F6817F4801F8B
:1007A00001D046EA0405564CA560E46822404D6835
:1007B00015F4001F01D046EA0402514CE2600133F7
:1007C0000F2B00F2988001229A400C6804EA02067E
:1007D000B242F4D14C68651E012D03D9112C01D011
:1007E000122C12D185685F000324BC4025EA040561
:1007F000CC68BC402C438460456825EA02054C68FF
:10080000C4F300129A402A434260C4685F00032286
:10081000BA40D24314408D68BD402543C5604C6842
:10082000022C01D0122C13D1DD08083550F825E038
:1008300003F007044FEA840C0F2404FA0CF42EEAA8
:10084000040E0C6904FA0CF444EA0E0440F8254046
:10085000046822404C6804F00304BC402243026058
:100860004A6812F0805FAAD000220192254A546C97
:1008700044F480445464526C02F480420192019A20
:100880009C08A51C1D4A52F8257003F00302950030
:100890000F22AA4027EA02071B4A90423FF45BAFAF
:1008A00002F5806290421AD002F58062904218D020
:1008B00002F58062904216D002F58062904214D018
:1008C00002F58062904212D002F58062904210D010
:1008D00002F5806290423FF43CAF08223CE70122DF
:1008E0003AE7022238E7032236E7042234E70522FA
:1008F00032E7062230E703B0F0BD70470038014010
:10090000003C0140003802400000024003691942E7
:1009100001D1002070470120704712B9090481619C
:100920007047816170470000002800F0E48170B5D5
:1009300082B00446036813F0010F3BD0A74B9B68BD
:1009400003F00C03042B2CD0A44B9B6803F00C0386
:10095000082B21D06368B3F5803F4FD0B3F5A02FAB
:1009600052D09E4B1A6822F480321A601A6822F420
:1009700080221A606368002B50D0FFF74BFE0546BB
:10098000964B1B6813F4003F14D1FFF743FE401B46
:100990006428F5D90320B3E1904B5B6813F4800F12
:1009A000D8D08E4B1B6813F4003F03D06368002B34
:1009B00000F0A381236813F0020F55D0874B9B688A
:1009C00013F00C0F3ED0854B9B6803F00C03082BF3
:1009D00033D0E368002B68D0814B01221A60FFF707
:1009E00019FE05467D4B1B6813F0020F54D1FFF72B
:1009F00011FE401B0228F5D9032081E1774A1368D4
:100A000043F480331360B5E7744B1A6842F48022D4
:100A10001A601A6842F480321A60ABE7FFF7FAFDF9
:100A200005466E4B1B6813F4003FC3D0FFF7F2FD81
:100A3000401B6428F5D9032062E1684B5B6813F41E
:100A4000800FC6D1654B1B6813F0020F04D0E3681A
:100A5000012B01D0012053E1604A136823F0F80311
:100A6000216943EAC1031360236813F0080F40D0E3
:100A7000636963B35B4B01221A60FFF7CBFD054648
:100A8000564B5B6F13F0020F33D1FFF7C3FD401BD2
:100A90000228F5D9032033E1504A136823F0F80304
:100AA000216943EAC1031360DEE74D4B00221A605F
:100AB000FFF7B0FD0546494B1B6813F0020FD3D07A
:100AC000FFF7A8FD401B0228F5D9032018E1454B8C
:100AD00000221A60FFF79EFD0546404B5B6F13F046
:100AE000020F06D0FFF796FD401B0228F5D9032020
:100AF00006E1236813F0040F79D0384B1B6C13F018
:100B0000805F33D100230193344B1A6C42F0805242
:100B10001A641B6C03F080530193019B0125324B37
:100B20001B6813F4807F23D0A368012B34D0052BDE
:100B300038D02A4B1A6F22F001021A671A6F22F07E
:100B400004021A67A368002B36D0FFF763FD064640
:100B5000224B1B6F13F0020F48D1FFF75BFD801B88
:100B600041F288339842F3D90320C9E00025D6E743
:100B70001D4A136843F480731360FFF74BFD06466C
:100B8000194B1B6813F4807FCED1FFF743FD801B08
:100B90000228F5D90320B3E0104A136F43F0010394
:100BA0001367CFE70D4B1A6F42F004021A671A6FF2
:100BB00042F001021A67C5E7FFF72CFD0646074B16
:100BC0001B6F13F0020F11D0FFF724FD801B41F2C1
:100BD00088339842F3D9032092E000BF00380240E6
:100BE00000004742800E474200700040EDB9A36903
:100BF000002B00F08480454A926802F00C02082A1B
:100C000051D0022B17D0424B00221A60FFF702FD91
:100C100004463E4B1B6813F0007F42D0FFF7FAFCFE
:100C2000001B0228F5D903206AE0384A136C23F030
:100C300080531364DBE7364B00221A60FFF7EAFCAF
:100C40000546324B1B6813F0007F06D0FFF7E2FC2D
:100C5000401B0228F5D9032052E0E369226A1343BE
:100C6000626A43EA8213A26A5208013A43EA0243E3
:100C7000E26A43EA0263254A5360254B01221A6067
:100C8000FFF7C8FC0446214B1B6813F0007F06D118
:100C9000FFF7C0FC001B0228F5D9032030E000203C
:100CA0002EE000202CE0012B2CD0184B5B6803F4C5
:100CB0008001E269914201D0012021E003F03F026E
:100CC000216A8A4201D001201AE0616A47F6C072A7
:100CD0001A408A4201D0012012E003F44032A16A96
:100CE0008A4201D001200BE003F07063E26A934274
:100CF0000AD0012004E001207047012000E000201C
:100D000002B070BD0120FBE70020F9E70038024087
:100D10006000474270B588B00C46164608B3002301
:100D20000293204D2A6B42F004022A632A6B02F0E0
:100D300004020292029A4FF4007203920222049279
:100D4000032206920593079303A91748FFF7FAFCBD
:100D5000AB6823F0784344EAC6041C43AC6008B097
:100D600070BD002301930F4D2A6B42F001022A63EC
:100D70002A6B02F001020192019A4FF480720392F1
:100D800002220492032206920593079303A90748BF
:100D9000FFF7D8FCAB6823F0EC6334431C43AC6032
:100DA000DDE700BF003802400008024000000240BA
:100DB000264B9B6803F00C03042B44D0082B01D076
:100DC000234870472DE9F04B204B5A6802F03F0250
:100DD0005B6813F4800F13D01C4B5968C1F3881162
:100DE00000231C48A1FB0001FFF7F2F9174B5B68D9
:100DF000C3F3014301335B00B0FBF3F0BDE8F08BBC
:100E0000124B5B68C3F388131E4600275C01002564
:100E1000E41A65EB0705A90141EA9461A001001BF2
:100E200061EB0501CB0043EA5073C400A01943EB0A
:100E300007018B0243EA905384022046194600239F
:100E4000FFF7C6F9D2E70348704700BF00380240F9
:100E50000024F40080BA8C01002800F09E8070B558
:100E60000446504B1B6803F00F038B4209D2CBB2F0
:100E70004C4A1370136803F00F038B4201D001201A
:100E800070BD236813F0020F17D013F0040F04D0C5
:100E9000454A936843F4E0539360236813F0080FC6
:100EA00004D0414A936843F4604393603E4A936898
:100EB00023F0F003A068034393600D46236813F00A
:100EC000010F32D06368012B21D09A1E012A25D947
:100ED000354A126812F0020F61D033498A6822F055
:100EE000030213438B60FFF795FB06462E4B9B686E
:100EF00003F00C036268B3EB820F16D0FFF78AFB96
:100F0000801B41F288339842F0D90320B8E7264A83
:100F1000126812F4003FE0D10120B1E7224A1268C2
:100F200012F0007FD9D10120AAE71E4B1B6803F005
:100F30000F03AB4209D9EAB21A4B1A701B6803F0CF
:100F40000F03AB4201D001209AE7236813F0040F8E
:100F500006D0154A936823F4E053E1680B4393608D
:100F6000236813F0080F07D00F4A936823F46043F7
:100F7000216943EAC1039360FFF71AFF0A4B9B689C
:100F8000C3F30313094AD35CD840094B1860094BDB
:100F90001868FFF7F5FA002072E70120704701207A
:100FA0006EE700BF003C02400038024040AA000843
:100FB000D000002004000020014B1868704700BFDB
:100FC000D000002008B5FFF7F7FF044B9B68C3F380
:100FD0008223034AD35CD84008BD00BF00380240DA
:100FE00050AA000808B5FFF7E7FF044B9B68C3F35E
:100FF0004233034AD35CD84008BD00BF00380240EA
:1010000050AA000898B110B5044643795BB1022399
:1010100063712268136843F0040313600123637152
:101020000020A06010BD037103F008F8EFE7012075
:1010300070470379012B2BD070B50D460446012370
:1010400003714379DBB2012B05D0042383600120B7
:101050000023237170BD02234371FFF7DBFA0646BC
:1010600023685A6812F0010F0BD1FFF7D3FA801BE7
:101070000228F5D9012060710223A36000232371A7
:10108000E8E79B68E3602B60012363710020DFE7E2
:1010900002207047F8B505460F4616461C462B68D9
:1010A0009B6837EA03030CBF01230023B34237D008
:1010B000B4F1FF3FF3D0FFF7ADFA069BC01AA04290
:1010C00001D2002CEBD12A68536823F0E00353606F
:1010D0006B68B3F5827F0BD0AB6AB3F5005F14D0B9
:1010E000012385F85130002385F85030032018E0A3
:1010F000AB68B3F5004F02D0B3F5806FECD12A682E
:10110000136823F040031360E6E72A68136823F4AA
:10111000005313602A68136843F400531360DFE739
:101120000020F8BD30B585B0164C2468164DA5FBDF
:101130000434640D4FF47A7505FB04F40394446899
:10114000B4F5827F0BD0039BC3B1039B013B039398
:1011500003689B6813F0800FF5D100230FE00B4666
:101160000446009200228021FFF794FF034630B12D
:10117000636D43F020036365032300E000231846FA
:1011800005B030BDD0000020819F5E1600283BD006
:1011900010B504460023836290F85130002B2ED006
:1011A000022384F851302268136823F0400313604F
:1011B0006368A2681343E2681343226913436269B8
:1011C0001343A26902F400721343E2691343226AD3
:1011D0001343A16A22680B431360638B03F004037B
:1011E000616A22680B4353602268D36923F4006369
:1011F000D36100206065012384F8513010BD80F870
:10120000503002F033FFCBE7012070472DE9F04169
:1012100082B090F85040012C00F0C3801D46174664
:1012200088460446012380F85030FFF7F3F906465C
:1012300094F85130DBB2012B09D00220012384F84D
:101240005130002384F8503002B0BDE8F081B8F18D
:10125000000F00F09880002F00F09780032384F89F
:10126000513000236365C4F83080A786E786A36306
:10127000A387E38763642364A368B3F5004F1CD09E
:1012800023681A6812F0400F03D11A6842F0400236
:101290001A60E368B3F5006F15D063680BB1012FD6
:1012A00049D1226B236812781A73236B01332363AD
:1012B000E38E013B9BB2E3863DE02268136843F472
:1012C00080431360DCE763680BB1012F15D1226BFB
:1012D00023681288DA60236B02332363E38E013BB9
:1012E0009BB2E38609E0FFF795F9801BA84202D381
:1012F000B5F1FF3F4BD1002D4BD0E38E9BB2002BBD
:101300002CD023689A6812F0020FECD0226B12885E
:10131000DA60236B02332363E38E013B9BB2E386E7
:10132000EBE7FFF777F9801BA84202D3B5F1FF3F47
:1013300031D1002D31D0E38E9BB27BB123689A6806
:1013400012F0020FEDD0226B12781A73236B013367
:101350002363E38E013B9BB2E386ECE732462946EA
:101360002046FFF7DFFE08B120236365A36833B989
:1013700001932368DA6801929B680193019B636D76
:101380006BB900205AE7012058E7012056E70320F7
:1013900054E7032052E7032050E703204EE70120E3
:1013A0004CE7022050E7000030B4036A23F0010349
:1013B0000362056A4268846924F073040B681C4365
:1013C00025F002058B682B43104DA84203D005F58C
:1013D0008065A84205D123F00803CD682B4323F094
:1013E00004030A4DA84203D005F58065A84205D143
:1013F00022F440724D6915438A692A434260846130
:101400004A684263036230BC704700BF000001407D
:1014100030B4036A23F480730362036A4268C469C8
:1014200024F073040D682C4323F400738D6843EAA1
:101430000523124DA84203D005F58065A84206D1C8
:1014400023F40063CD6843EA052323F480630B4D46
:10145000A84203D005F58065A84207D122F4405286
:101460004D6942EA05128D6942EA05124260C46183
:101470004A68C263036230BC704700BF000001408D
:1014800030B4036A23F480530362036A4468C26978
:1014900022F4E6420D6842EA052223F400538D68E7
:1014A00043EA0533094DA84203D005F58065A842FB
:1014B00004D124F480444D6944EA85144460C26137
:1014C0004A680264036230BC704700BF00000140FC
:1014D00010B4036A046A24F001040462846924F0ED
:1014E000F00444EA021223F00A030B438261036210
:1014F0005DF8044B704710B4036A23F010030362D5
:101500008469036A24F4704444EA023223F0A0039D
:1015100043EA0113826103625DF8044B70478368FC
:1015200023F07003194341F0070181607047704751
:101530000368304A904212D0B0F1804F0FD0A2F52C
:101540007C4290420BD002F58062904207D002F5B7
:101550008062904203D002F57842904203D123F09A
:1015600070034A681343234A90422AD0B0F1804F57
:1015700027D0A2F57C42904223D002F580629042AF
:101580001FD002F5806290421BD002F57842904253
:1015900017D002F57052904213D002F5806290424B
:1015A0000FD002F5806290420BD0A2F598329042A3
:1015B00007D002F58062904203D002F5806290422B
:1015C00003D123F44073CA68134323F080034A69AC
:1015D000134303608B68C3620B688362054B9842B8
:1015E00003D003F58063984201D10B6903630123A3
:1015F0004361704700000140A8B110B5044690F85F
:101600003D305BB1022384F83D30211D2068FFF797
:101610008FFF012384F83D30002010BD80F83C305E
:1016200002F05CFDEEE701207047A8B110B504465A
:1016300090F83D305BB1022384F83D30211D2068D5
:10164000FFF776FF012384F83D30002010BD80F8BD
:101650003C30FFF76CFFEEE70120704730B4036ABF
:1016600023F010030362036A4468826922F4E642AD
:101670000D6842EA052223F020038D6843EA051332
:10168000114DA84203D005F58065A84206D123F08C
:101690008003CD6843EA051323F040030A4DA842B6
:1016A00003D005F58065A84207D124F440644D6954
:1016B00044EA85048D6944EA8504446082614A688D
:1016C0008263036230BC70470000014038B590F877
:1016D0003C30012B66D00D460446012380F83C3097
:1016E000022380F83D300C2A1AD8DFE802F00719EF
:1016F0001919201919193419191947000068FFF729
:1017000053FE2268936943F008039361226893694A
:1017100023F0040393612268936929690B43936161
:10172000012384F83D30002084F83C0038BD006877
:10173000FFF794FF2268936943F400639361226882
:10174000936923F48063936122689369296943EA6A
:1017500001239361E4E70068FFF75AFE2268D3692A
:1017600043F00803D3612268D36923F00403D361F3
:101770002268D36929690B43D361D1E70068FFF779
:101780007FFE2268D36943F40063D3612268D36982
:1017900023F48063D3612268D369296943EA012372
:1017A000D361BDE70220C1E710B4846824F47F440C
:1017B00042EA03230B43234383605DF8044B7047E5
:1017C00090F83C30012B66D010B50446012380F818
:1017D0003C30022380F83D300268936823F47F4355
:1017E00023F0770393600B68402B4AD013D9602B0A
:1017F0003DD01ED9702B28D0B3F5005F30D1CB6817
:101800004A6889680068FFF7CFFF2268936843F44D
:101810008043936024E0102B06D004D9202B03D002
:10182000302B01D01CE0DBB919462068FFF777FEAA
:1018300016E0502B14D1CA6849680068FFF748FECB
:1018400050212068FFF76BFE0AE0CB684A68896880
:101850000068FFF7A9FF2268936843F0770393605D
:10186000012384F83D30002084F83C0010BDCA6894
:1018700049680068FFF73FFE60212068FFF74FFED0
:10188000EEE7CA6849680068FFF722FE4021206839
:10189000FFF745FEE4E702207047000090F83C3077
:1018A000012B3BD030B4012380F83C30022380F878
:1018B0003D3003685C689D6824F070040A68224328
:1018C0005A600368164A93421AD0B3F1804F17D07A
:1018D000A2F57C42934213D002F5806293420FD06E
:1018E00002F5806293420BD002F57842934207D012
:1018F00002F57052934203D0A2F59432934204D180
:1019000025F080054A6815439D60012380F83D302D
:10191000002380F83C30184630BC704702207047E6
:101920000000014090F83C30012B22D0012380F8C8
:101930003C30CB6823F440738A68134323F48063FC
:101940004A68134323F400630A68134323F4805363
:101950000A69134323F400534A69134323F4804371
:10196000CA69134302685364002380F83C30184668
:101970007047022070470268D36823F49073D360E5
:101980000268536923F001035361202380F83A3041
:10199000704790F83930DBB2212B2AD18368B3F538
:1019A000805F16D0036A5A1C02621A7803685A6074
:1019B000C38C013B9BB2C384EBB90268D36823F0AC
:1019C0008003D3600268D36843F04003D3600020F3
:1019D0007047036A1B880268C3F3080353600369F6
:1019E0001BB9036A02330362E2E7036A013303624D
:1019F000DEE7022070470020704700002DE9F04B21
:101A000004460268136923F44053C1680B43136111
:101A100083680269134342691343C2691A43016828
:101A2000CB6823F4164323F00C031343CB60026806
:101A3000536923F4407381690B435361C369B3F560
:101A4000004F3BD00368714A934200F0AB8002F52F
:101A50008062934200F0A680FFF7B4FA4FF00009CD
:101A6000061849EB090716EB000B47EB090C4FEA88
:101A7000CC0343EA5B734FEACB0293469C46636810
:101A80009A009B0F10EB0B0049EB0C01FEF7A0FB3B
:101A90005F4DA5FB00325109642202FB11021301C4
:101AA0003233A5FB03235B0903F0F00202EB0112C2
:101AB00003F00F03216813448B60A4E00368534ACA
:101AC000934239D002F58062934235D0FFF77AFA1B
:101AD00083464FF0000C06184CEB0C0716EB000881
:101AE00047EB0C094FEAC90343EA58734FEAC802AF
:101AF0009046994662680021921841EB01031BEB66
:101B000008004CEB0901FEF763FB414DA5FB0032D9
:101B10005109642202FB1102D3003233A5FB0323D7
:101B20005B095A0002F4F87202EB011203F007039A
:101B3000216813448B6066E0FFF754FA80464FF04B
:101B40000009061849EB090716EB000B47EB090CD7
:101B50004FEACC0343EA5B734FEACB0293469C46C1
:101B600062680021921841EB010318EB0B0049EB6E
:101B70000C01FEF72DFB264DA5FB00325109642216
:101B800002FB1102D3003233A5FB03235B095A0089
:101B900002F4F87202EB011203F007032168134408
:101BA0008B6030E0FFF71EFA4FF00009061849EB92
:101BB000090716EB000B47EB090C4FEACC0343EA8D
:101BC0005B734FEACB0293469C4663689A009B0F77
:101BD00010EB0B0049EB0C01FEF7FAFA0C4DA5FBDC
:101BE00000325109642202FB110213013233A5FBBA
:101BF00003235B0903F0F00202EB011203F00F0371
:101C0000216813448B60BDE8F08B00BF00100140D9
:101C10001F85EB512DE9F04105460F4616469846C3
:101C2000069C2B681B6837EA03030CBF01230023C3
:101C3000B3421DD1B4F1FF3FF3D02CB1FEF7EAFC63
:101C4000A0EB0800A042ECD92A68D36823F4D07333
:101C5000D3602A68536923F001035361202385F878
:101C6000393085F83A30002385F83830032000E019
:101C70000020BDE8F08158B310B5044690F8393023
:101C80000BB3242384F839302268D36823F400533B
:101C9000D3602046FFF7B2FE2268136923F4904315
:101CA00013612268536923F02A0353612268D368C1
:101CB00043F40053D3600020E063202384F83930DC
:101CC00084F83A3010BD80F8383002F07FFAD8E757
:101CD000012070472DE9F04383B01E4690F839305B
:101CE000DBB2202B56D104460D469046002956D033
:101CF000002A56D090F83830012B54D0012380F8B8
:101D000038304FF00009C0F83C90212380F839307A
:101D1000FEF780FC0746A4F82480A4F8268084F807
:101D2000389010E000963B46002280212046FFF7C5
:101D300071FF002839D12B882268C3F30803536050
:101D40002369C3B90235E38C9BB2B3B1E38C013B89
:101D50009BB2E384A368B3F5805FE3D000963B4673
:101D6000002280212046FFF755FF00BB2A78236818
:101D70005A600135E7E70135E5E700963B4600226A
:101D800040212046FFF746FF034690B9202284F801
:101D9000392000E00223184603B0BDE8F083012398
:101DA000F9E70123F7E70223F5E70323F3E703232A
:101DB000F1E70323EFE7704708B50168CB6823F02C
:101DC0004003CB60202380F83930FFF7F4FF002078
:101DD00008BD704708B590F83A30DBB2222B45D1E8
:101DE0008368B3F5805F0ED0036903BB03685A684C
:101DF000836A591C81621A70C38D013B9BB2C385F3
:101E0000F3B1002033E0826A036943B903685B6879
:101E1000C3F308031380836A02338362ECE7036829
:101E20005B68DBB21380836A01338362E4E7036893
:101E30005B68826A511C816203F07F031370DBE7E9
:101E40000268D36823F02003D3600268D36823F4C8
:101E50008073D3600268536923F001035361202328
:101E600080F83A30FFF7B5FF002000E0022008BDFF
:101E70007047000010B5044602681368D1685269C3
:101E800013F00F0005D113F0200F02D011F0200F36
:101E900056D100286AD012F0010202D111F4907FCD
:101EA00064D013F0010F06D011F4807F03D0E06BF3
:101EB00040F00100E06313F0040F04D01AB1E06BAE
:101EC00040F00200E06313F0020F04D01AB1E06B9F
:101ED00040F00400E06313F0080F07D011F0200F6A
:101EE00000D11AB1E26B42F00802E263E26B002A11
:101EF00048D013F0200F02D011F0200F24D1236816
:101F00005B6903F04003E26B12F0080F00D13BB3B2
:101F10002046FFF730FD23685A6912F0400F1BD0AE
:101F20005A6922F040025A61636B8BB11A4A1A65F2
:101F3000606BFEF7F3FB28B3606B036D984721E0FD
:101F40002046FFF747FF1DE02046FFF743FFD6E797
:101F50002046FFF78DFF15E02046FFF789FF11E0CF
:101F60002046FFF785FF0023E3630BE013F0800FAB
:101F700002D011F0800F06D113F0400F02D011F003
:101F8000400F04D110BD2046FFF703FDFAE72046BD
:101F9000FFF712FFF6E700BF9D1F000808B5806B32
:101FA0000023C385C384FFF763FF08BD10B5044653
:101FB000FEF78EFA4FF4FA6382B221460148FFF72A
:101FC00089FE10BDA803002008B50138052834D8C3
:101FD000DFE800F0030D151D252C4FF400411D48CE
:101FE000FEF794FC08B9002008BD0120FCE74FF47F
:101FF00080611948FEF78AFC08B30120F4E74FF42A
:1020000000611548FEF782FCD8B10120ECE74FF4DF
:1020100080511148FEF77AFCA8B10120E4E70121C4
:102020000E48FEF773FC80B10120DDE702210B486A
:10203000FEF76CFC58B10120D6E70020D4E7002061
:10204000D2E70020D0E70020CEE70020CCE7002038
:10205000CAE700BF0000024000080240000C024036
:1020600000B585B0002302938DF80C3000938DF8F5
:10207000043040214748FEF749FC20B301238DF886
:10208000083020214348FEF741FC00B301238DF8BE
:10209000093010213F48FEF739FCE0B101238DF8EB
:1020A0000A3008213B48FEF731FCC0B101238DF80E
:1020B0000B3004213748FEF729FCA0B101238DF82D
:1020C0000C3000231AE000238DF80830D9E70023F4
:1020D0008DF80930DDE700238DF80A30E1E70023B1
:1020E0008DF80B30E5E700238DF80C30E9E701218E
:1020F00004AA1A4402F8101C0133DBB2052B0ED0DF
:1021000004AA1A4412F8082CD2B22349C95C8A42A4
:10211000EDD1002104AA1A4402F8101CECE70023B8
:1021200007E004AA1A4412F8081C1B4AD1540133D0
:10213000DBB2062BF5D19DF8083013B19DF80030C5
:10214000CBB99DF8093013B19DF80130ABB99DF8BA
:102150000A3013B19DF802308BB99DF80B3013B1E2
:102160009DF803306BB99DF80C3063B19DF80430D5
:102170006BB9002008E0042006E0022004E0032000
:1021800002E0012000E0002005B05DF804FB05201E
:10219000FAE700BF001002401403002008B501F068
:1021A000A7FE08BD2DE9F04184B00190002757E05B
:1021B0000134A4B27F2C51D8E5B2FEB2019BADF838
:1021C0000C301B0C8DF80E3015F0800F08D116F076
:1021D000800F05D1C5F17F05EDB2C6F17F06F6B2DD
:1021E00015F0800FE4D116F0800FE1D1DFF8808088
:1021F000002198F8000001F05FFE0121284601F05F
:102200005BFE01217F2001F057FE002198F80100BC
:1022100001F052FE0121304601F04EFE01217F20E7
:1022200001F04AFE002198F8020001F045FE9DF8F9
:102230000E309DF80D50C5F3C20040EAC3000121E5
:10224000C0B201F039FE9DF90C0000F01F0040EA19
:1022500045100121C0B201F02FFEA9E70137BFB23E
:102260007F2F01D80024A5E704B0BDE8F08100BFAE
:10227000C000002070B582B004460D46019210F0F7
:10228000800F08D111F0800F05D1C0F17F04E4B2B6
:10229000C1F17F05EDB214F0800F35D115F0800F3C
:1022A00032D11A4E0021307801F006FE012120467D
:1022B00001F002FE01217F2001F0FEFD0021707877
:1022C00001F0FAFD0121284601F0F6FD01217F20F1
:1022D00001F0F2FD0021B07801F0EEFD9DF806302E
:1022E0009DF80540C4F3C20040EAC3000121C0B21A
:1022F00001F0E2FD9DF9040000F01F0040EA4410E7
:102300000121C0B201F0D8FD02B070BDC0000020B4
:102310002DE9F04F85B09DF83C4001948418013CB4
:102320007F2C6CDCCC18013C7F2C68DC0093904641
:102330008B46824600275BE00135EDB2454555D21C
:1023400005EB0A04E4B207EB0B06F6B20E9BADF800
:102350000C301B0C8DF80E3014F0800F08D116F0E5
:10236000800F05D1C4F17F04E4B2C6F17F06F6B256
:1023700014F0800FE0D116F0800FDDD1DFF88C90E3
:10238000002199F8000001F097FD0121204601F09D
:1023900093FD01217F2001F08FFD002199F80100BC
:1023A00001F08AFD0121304601F086FD01217F20E8
:1023B00001F082FD002199F8020001F07DFD9DF8F9
:1023C0000E309DF80D40C4F3C20040EAC300012165
:1023D000C0B201F071FD9DF90C0000F01F0040EA51
:1023E00044100121C0B201F067FDA5E70137FFB23B
:1023F000009B9F4201D20025A0E7019B13B905B0C5
:10240000BDE8F08FFFF7CAFEF9E700BFC00000206B
:102410002DE9F04F89B080468A46019203939DF8DA
:102420004C300293A0F141095FFA89F9B9F1190F13
:1024300008D9A0F16103DBB2192B05D8A0F1470937
:102440005FFA89F900253EE1A0F13003DBB2092BE8
:1024500004D800F104095FFA89F9F3E72E2809D0BE
:1024600025280AD02A2802D04FF04109EAE74FF088
:102470003E09E7E74FF04009E4E74FF03F09E1E7A5
:1024800004EB0A07FFB2019B5E1BF6B20D36F6B2F3
:10249000039BADF814301B0C8DF8163017F0800F2D
:1024A00008D116F0800F05D1C7F17F07FFB2C6F142
:1024B0007F06F6B217F0800F39D116F0800F36D1B3
:1024C000DFF82CB200219BF8000001F0F5FC01219F
:1024D000384601F0F1FC01217F2001F0EDFC0021E4
:1024E0009BF8010001F0E8FC0121304601F0E4FC1A
:1024F00001217F2001F0E0FC00219BF8020001F0A7
:10250000DBFC9DF816309DF81560C6F3C20040EA6A
:10251000C3000121C0B201F0CFFC9DF9140000F00E
:102520001F0040EA46100121C0B201F0C5FC013491
:10253000E4B20A2C00F2C580B8F1200F67D005EB99
:10254000850205EB42029C2303FB0922674B1344DF
:102550001B5D002B94D1029B002BE8D004EB0A06F4
:10256000F6B2019BA3EB050B5FFA8BFB0BF10D0B96
:102570005FFA8BFB129BADF818301B0C8DF81A30EC
:1025800016F0800F09D11BF0800F06D1C6F17F062F
:10259000F6B2CBF17F0B5FFA8BFB16F0800FC6D142
:1025A0001BF0800FC3D1524F0021387801F084FC1A
:1025B0000121304601F080FC01217F2001F07CFCEC
:1025C0000021787801F078FC0121584601F074FC74
:1025D00001217F2001F070FC0021B87801F06CFC33
:1025E0009DF81A309DF81960C6F3C20040EAC30096
:1025F0000121C0B201F060FC9DF9180000F01F003D
:1026000040EA46100121C0B201F056FC8FE704EB0E
:102610000A07FFB2019B5E1BF6B20D36F6B2129BA3
:10262000ADF81C301B0C8DF81E3017F0800F08D150
:1026300016F0800F05D1C7F17F07FFB2C6F17F0604
:10264000F6B217F0800F7FF472AF16F0800F7FF4B0
:102650006EAFDFF89CB000219BF8000001F02CFC6D
:102660000121384601F028FC01217F2001F024FCE3
:1026700000219BF8010001F01FFC0121304601F010
:102680001BFC01217F2001F017FC00219BF80200B8
:1026900001F012FC9DF81E309DF81D60C6F3C200CB
:1026A00040EAC3000121C0B201F006FC9DF91C0004
:1026B00000F01F0040EA46100121C0B201F0FCFB0F
:1026C00035E70135EDB20D2D01D8002431E7B8F121
:1026D000200F08D0054B9C2202FB093999F89B007A
:1026E00009B0BDE8F08F0520FAE700BFD45000081C
:1026F000C00000202DE9F04186B005468846164608
:1027000005939DF834700C4602E00D3EF6B2444647
:10271000287898B101350023029301970C9BADF8FE
:1027200000301B0C8DF80230059B32462146FFF726
:102730006FFE03197E2BE8DCDCB2E9E7FFF72EFD24
:1027400006B0BDE8F081000008B50246402102480D
:10275000FEF7E3F808BD00BF0000024008B50246DE
:1027600010210248FEF7D9F808BD00BF0000024062
:1027700008B5024608210248FEF7CFF808BD00BFA1
:102780000000024008B5FDF74BFF08BD2DE9F04FF2
:102790008DB000240794089409940A940B94019432
:1027A0006B4B1A6B42F010021A631A6B02F01002A4
:1027B0000192019A02941A6B42F080021A631A6B1A
:1027C00002F080020292029A03941A6B42F0040211
:1027D0001A631A6B02F004020392039A04941A6BB0
:1027E00042F001021A631A6B02F001020492049A89
:1027F00005941A6B42F002021A631A6B02F002028D
:102800000592059A06941A6B42F008021A631B6B34
:1028100003F008030693069B4E4F22465821384684
:10282000FEF77BF8DFF830B1224640F60441584607
:10283000FEF773F8DFF8248122464FF680514046B8
:10284000FEF76BF8DFF818A122464FF4004150461E
:10285000FEF763F8DFF80C912246C0214846FEF7E8
:102860005CF87C23079308940226099607A9404642
:10287000FDF768FF41F6064307930894099607A9F8
:102880004846FDF75FFF58230793012508950994F3
:102890000A9507A93846FDF755FF4FF20303079342
:1028A0000894099607A95846FDF74CFF40F60443E3
:1028B0000793089509940A9407A95846FDF742FF23
:1028C0004FF280530793089509940A9407A940464C
:1028D000FDF738FF4FF400630793089509940A96B3
:1028E00007A94046FDF72EFF46F2033307930894ED
:1028F000099607A95046FDF725FF4FF40048CDF88B
:102900001C80089509940A9407A95046FDF71AFF00
:10291000C0230793089509940A9507A94846FDF72F
:1029200011FF4FF480730793089609940A940B944F
:1029300007A93846FDF706FFCDF81C8008940996D4
:1029400007A93846FDF7FEFE0DB0BDE8F08F00BFC9
:102950000038024000000240000402400010024023
:10296000000C02400008024008B50348034B036016
:10297000FEF748FB08BD00BF2804002000080650F1
:1029800008B50D480D4B03604FF4827343604FF45C
:10299000004383600023C360036143614FF400720E
:1029A00082612022C2610362436283620A23C3629E
:1029B000FEF7ECFB08BD00BF3804002000300140EA
:1029C00030B597B000241294139414941594109475
:1029D000119409940A940B940C940D940E940F94F2
:1029E0002022214601A801F05BFF1E4D1E4B2B60EB
:1029F0006C60AC604FF6FF73EB602C616C61AC6196
:102A00002846FEF7F9FD4FF48053129312A9284689
:102A1000FEF7D6FE2846FEF708FE1094119410A982
:102A20002846FEF73BFF602309930A940B940C940D
:102A30000D940E940F94224609A92846FEF746FEEF
:102A4000019402940394049405944FF40053069364
:102A5000089401A92846FEF765FF284601F068FBA7
:102A600017B030BDE80300200000014030B58FB042
:102A700000240A940B940C940D94089409940194E6
:102A8000029403940494059406940794154D164BF0
:102A90002B6054236B60AC606423EB602C61AC61F1
:102AA0002846FEF7A9FD4FF480530A930AA9284649
:102AB000FEF786FE2846FEF7B8FD0894099408A99B
:102AC0002846FEF7EBFE60230193029403940594DD
:102AD000224601A92846FEF7F9FD284601F028FB09
:102AE0000FB030BD400300200008004008B5084882
:102AF000084B03604FF4E133436000238360C360FD
:102B000003610C2242618361C361FFF7B4F808BD21
:102B1000A80300200010014008B50022114625201E
:102B2000FDF7A4FD2520FDF7D5FD08BD08B54FF440
:102B30007A738AB201460248FEF768FB08BD00BFFF
:102B40003804002030B595B03022002108A801F0EB
:102B5000A7FE00240394049405940694079401941A
:102B6000204B1A6C42F080521A641B6C03F08053A5
:102B70000193019B02941C4B1A6842F480421A6034
:102B80001B6803F480430293029B032308934FF4D2
:102B90008033099301230B9310230C9302250E9588
:102BA0004FF480030F930D231093A82311931295D4
:102BB0000723139308A8FDF7B7FE0F23039304958B
:102BC00005944FF4A05306934FF4805307930521C7
:102BD00003A8FEF741F9224621462046FEF79AF85F
:102BE00015B030BD003802400070004030B58BB0E9
:102BF000002406940794ADF82040FDF7E5FCFFF7AC
:102C0000A1FFFFF7C3FDFFF7AFFEFFF7B9FEFFF728
:102C1000D7FEFFF72BFFFFF769FFFFF77DFF224687
:102C20004021DF48FDF779FE204600F05DFF204699
:102C300001F0D0FDDB4B0293DB4B0193DB4B0393A5
:102C4000DB4B0593DB4B049301AA0121084601F0FD
:102C50006DF947F230534FF4FA621946012001F042
:102C60002DFB47F230534FF4FA621946022001F06F
:102C700025FB47F230534FF4FA621946032001F066
:102C80001DFB47F230534FF4FA621946042001F05D
:102C900015FB47F230534FF4FA621946052001F054
:102CA0000DFB47F230534FF4FA621946062001F04B
:102CB00005FB234622462146072001F0FFFA234662
:102CC00022462146082001F0F9FA01F04DFD01F0FD
:102CD0006DFDB948FFF76AF9042000F057FD4FF485
:102CE0007A70FDF79DFC0421B448FDF70FFE18B182
:102CF000012000F04BFDD0E1072000F047FDCCE1C2
:102D0000AF4A9379D17943EA0123107A43EA00402C
:102D1000FFF748FA002407E000231A461946204628
:102D200001F0CCFA0134E4B2082CF5D100241BE008
:102D300041F27073002242F6E061012001F0BEFA18
:102D400001F034FD4FF4FA70FDF76AFC00231A46D7
:102D50001946012001F0B2FA01F028FD4FF4FA7093
:102D6000FDF75EFC0134E4B2042CE1D100250AE059
:102D70000AAA1A44002102F8101C0133DBB20A2B04
:102D8000F6D10135ADB2322D00F0BE8006A801F0BB
:102D900015F89DF819309DF8201001FB03F19DF8FE
:102DA0001C309DF81B2002FB03F29DF81F009DF8CC
:102DB0001E3003FB00F34FF47A7404FB03F304FBAF
:102DC00002F204FB01F1012001F078FA9DF81A20CB
:102DD0009DF81F1001FB02F19DF81D0000FB02F29F
:102DE0009DF8203003FB00F304FB03F304FB02F225
:102DF00004FB01F1022001F061FA9DF81B109DF81F
:102E00001E3003FB01F19DF8192002FB03F29DF82F
:102E100021009DF81C3003FB00F304FB03F304FBCB
:102E200002F204FB01F1032001F048FA9DF81C3086
:102E30009DF8191001FB03F19DF81F2002FB03F21E
:102E40009DF818009DF81B3003FB00F304FB03F30F
:102E500004FB02F204FB01F1042001F02FFA9DF8BB
:102E60001D309DF8211001FB03F19DF8202002FB8D
:102E700003F29DF819009DF81A3003FB00F304FBE0
:102E800003F304FB02F204FB01F1052001F016FA42
:102E90009DF81E309DF81C1001FB03F19DF82120C8
:102EA00002FB03F29DF81A009DF8193003FB00F3B2
:102EB00004FB03F304FB02F204FB01F1062001F022
:102EC000FDF900231A461946072001F0F7F90023FF
:102ED0001A461946082001F0F1F99DF8180040F64D
:102EE000B83303FB00F3002241F2707101FB00F1E3
:102EF00001F0E4F901F05AFC6420FDF791FB302D5C
:102F00003FF63FAF00233AE700234FF4FA6242F264
:102F10001071012001F0D2F900234FF4FA6242F25D
:102F20001071022001F0CAF900234FF4FA6242F254
:102F30001071032001F0C2F900234FF4FA6242F24B
:102F40001071042001F0BAF900234FF4FA6242F242
:102F50001071052001F0B2F900234FF4FA6242F239
:102F60001071062001F0AAF900234FF4FA6242F230
:102F700010719DF8180001F0A1F901F017FC11483B
:102F8000FFF714F89DF818200F4909A801F090FCEC
:102F900009A8FFF70BF80D48FFF708F8002418E020
:102FA0000004024049270008712700085D27000837
:102FB0002D2B00088527000858AA000800080240A9
:102FC0000800002060AA000870AA0008A8AB00084A
:102FD000012454B90125062DFBD8E8B2FEF7F4FF11
:102FE0000028F5D10135ADB2F5E7B748FEF7DEFFB1
:102FF0002A46B64909A801F05BFC09A8FEF7D6FFEE
:10300000B348FEF7D3FFEDB2012407E000231A46D0
:103010001946E0B201F052F90134A4B2082CF5D9F6
:1030200047F2305300221146284601F047F901F0DB
:10303000BDFB40F6B830FDF7F3FA9DF81830A34217
:103040000BD00124082C10D800231A461946E0B2F0
:1030500001F034F90134A4B2F4E7002347F230520E
:103060001946E0B201F02AF90EE000231A4647F2B1
:103070003051284601F022F9002347F23052194618
:103080009DF8180001F01AF901F090FB01210020D1
:1030900000F026F9022000F079FBFEF7E1FF00F0D6
:1030A000A7FC0021032000F01BF90028F5D0002127
:1030B000084600F015F9054600287FF421AE0021EE
:1030C000012000F00DF90028E7D0824A9379D179E8
:1030D00043EA0123107A43EA0040FFF763F806A8A9
:1030E00000F06CFE012001F075FB00F025FD4FF4AF
:1030F000FA70FDF795FA00F005FDB7EE000A00F052
:1031000063FD6420FDF78CFA00F096FD2C46082C38
:1031100024D000231A461946204601F0CFF8013486
:10312000E4B2F4E741F27073002242F6E06101205C
:1031300001F0C4F801F03AFB4FF4FA70FDF770FAB1
:1031400000231A461946012001F0B8F801F02EFBC1
:103150004FF4FA70FDF764FA0135EDB2042DE1D1B8
:103160005D48FEF723FF9DF82020584909A801F08B
:103170009FFB09A8FEF71AFF5548FEF717FF9DF8B9
:103180001E0000F07DFD6420FDF74AFA002404E0F3
:103190006420FDF745FA0134A4B29DF81F30A34224
:1031A0000DD00AAB234413F8100C00F069FD9DF814
:1031B0002030A342ECD1002001F00CFBE8E700F046
:1031C000BBFC012509E000234FF4FA6242F21071C2
:1031D000284601F073F80135EDB2072DF3D1002335
:1031E0001A461946072001F069F800231A461946C5
:1031F000082001F063F801F0D9FA082000F0C6FABF
:10320000002500E0012555B90124062CFBD8E0B2C9
:10321000FEF7DAFE0028F5D10134A4B2F5E72F4815
:10322000FEF7C4FE2246294909A801F041FB09A87E
:10323000FEF7BCFE2648FEF7B9FEE4B20125082DD4
:1032400008D800231A461946E8B201F037F80135CC
:10325000ADB2F4E747F2305300221146204601F0A8
:103260002DF801F0A3FA40F6B830FDF7D9F99DF832
:103270002030AB4201D001250FE0002347F230524D
:103280001946E8B201F01AF818E000231A46194668
:10329000E8B201F013F80135ADB2082DF5D90023DD
:1032A0001A4647F23051204601F008F8002347F251
:1032B000305219469DF8180001F000F801F076FA36
:1032C000022000F063FAE8E674AA000870AA000879
:1032D000A8AB00080800002088AA00089CAA0008E3
:1032E00030B583B0044600238DF8043019B10129AC
:1032F00017D0002512E0144B1D5CEDB200221A54C9
:103300000246124901A801F0D3FA1148FEF74EFE19
:1033100001A8FEF74BFE0F48FEF748FE284603B013
:1033200030BD0246094901A801F0C2FA0A48FEF779
:103330003DFE01A8FEF73AFE0648FEF737FE024BB7
:1033400001221A550025E9E71C03002070AA000895
:10335000B0AA0008A8AB0008C0AA000870B582B0E7
:10336000F1B91E4B9B7A1E4C922202FB030004EB28
:10337000800191F8233291F8222291F821128830AD
:1033800014F8200000240194164C34F8155FA4783A
:10339000ADF800508DF80240FEF7BAFF02B070BDE4
:1033A0000E4B9B7A0E4C922202FB030004EB800131
:1033B00091F8233291F8222291F82112883014F8E2
:1033C000200000240194074C34F8185FA478ADF86D
:1033D00000508DF80240FEF79BFFDFE71C03002042
:1033E0000098000808000020F0B583B071BB2E4B98
:1033F0009B7A4FF4127404FB03F2322404FB002482
:1034000018342A4E2A4D4FF4927202FB030306EB46
:10341000430292F80D2203F5827306EB43031979F8
:10342000002301932B4633F8150F9B78ADF800006D
:103430008DF80230AB7CE87C43EA0023287D43EA28
:1034400000433019FFF756F903B0F0BD164B9B7AD5
:103450004FF4127404FB03F2322404FB00241834EA
:10346000124E134D4FF4927202FB030306EB43021C
:1034700092F80D2203F5827306EB430319790023BA
:1034800001932B4633F8180F9B78ADF800008DF8A8
:1034900002306B7DA87D43EA0023E87D43EA0043C8
:1034A0003019FFF727F9CFE71C0300200098000828
:1034B0000800002070B505460E46002401E00134E6
:1034C000E4B2294B997A294A4FF4127303FB012382
:1034D0005B78A34220D04FF4927303FB0142234B4D
:1034E00003EB42031A79204B1B7B9A42E7D14FF43E
:1034F000927303FB01431D4901EB43014A791A4BC7
:103500005B7B9A42DBD100212046FFF727FF002199
:103510002046FFF769FFD2E7002401E00134E4B25E
:10352000114B9A7A11494FF4127303FB02135B7823
:10353000A34218D04FF4927303FB02410B4B03EBF1
:1035400041031B79AB42E9D1084B03EB41025379AC
:10355000B342E3D101212046FFF700FF01212046BD
:10356000FFF742FFDAE770BD1C0300200098000857
:1035700010B5104A9379D07943EA0023107A43EAD0
:103580000040FEF70FFE002409E000212046FFF76F
:10359000E5FE00212046FFF727FF0134E4B2064B89
:1035A0009B7A064A4FF4127101FB03235B78A34216
:1035B000EBD110BD080000201C030020009800087B
:1035C00070B582B0002525E00134E4B2192C1FD07B
:1035D00004EB840303EB8303114A13445B5D002B6C
:1035E000F2D0A1000E31A8000E30002301930D4B44
:1035F00033F8122F9B78ADF800208DF802300423A9
:103600001A4601F0FE0100F0FE00FEF781FEDBE746
:103610000135EDB2192D01D00024D7E702B070BDFD
:103620000C7900080800002038B500251BE00134A3
:10363000E4B2802C15D00E4B03EBC5131B5D002BA1
:10364000F5D00C4BC5F15D019A7CD87C42EA002292
:10365000187D002342EA0042C9B22046FEF70AFE66
:10366000E5E70135EDB2392D01D00024E1E738BDA1
:10367000807B00080800002000B583B00C4A0023BE
:103680000193134633F8061F9B78ADF800108DF8B0
:103690000230537D917D43EA0123D27D43EA024308
:1036A0003C220A210348FFF725F803B05DF804FB2C
:1036B00008000020D0AA000870B582B01F4C002678
:1036C0000196254635F8062FAB78ADF800208DF829
:1036D0000230A37CE27C43EA0223227D43EA0243D8
:1036E000642205211648FFF705F801962A88AB7871
:1036F000ADF800208DF80230A37CE27C43EA02237F
:10370000227D43EA0243562205210E48FEF7F2FFCE
:1037100001962A88AB78ADF800208DF80230A37CA2
:10372000E27C43EA0223227D43EA02434822052148
:103730000548FEF7DFFF02B070BD00BF08000020A3
:10374000ECAA0008FCAA00080CAB000800B583B086
:103750000C4A00230193134633F8031F9B78ADF8FE
:1037600000108DF80230937CD17C43EA0123127D56
:1037700043EA02433C221E210348FEF7BBFF03B08D
:103780005DF804FB080000201CAB000838B5441E9F
:103790001B4DAC721B4A9379D07943EA0023107A0F
:1037A00043EA0040FEF7FEFC0023AB73EB73072CEB
:1037B00007D8DFE804F0040C1215181B1E21FFF7D0
:1037C000D7FE0F4BD97B987BFFF774FE38BD0C4BAF
:1037D0000122DA73FFF7CCFEF3E7FFF7F1FEF0E723
:1037E000FFF722FFEDE7FFF747FFEAE7FFF764FF88
:1037F000E7E7FFF7BDFEE4E7FFF7A8FFE1E700BF5B
:103800001C0300200800002038B504460D46704B0C
:103810009B7A062B10D8DFE803F00438780F0F935B
:10382000B20000B949B10CB9012D0DD00CB9022D6F
:1038300015D00CB9032D1DD038BD6648FEF7B6FB78
:103840000320FFF7A3FFEEE76348FEF7AFFB01217C
:103850000220FFF745FD0620FFF798FFE6E75F48E7
:10386000FEF7A4FB01210846FFF73AFD0220FFF70F
:103870008DFFDEE75A48FEF799FB01210020FFF794
:103880002FFD0220FFF782FFD6E704215548FDF700
:103890003DF818B304B975B1002CCDD1012DCBD1B1
:1038A0005148FEF783FB01210320FFF719FD052096
:1038B000FFF76CFFC0E74D48FEF778FB01210420BD
:1038C000FFF70EFD00210846FFF70AFD0021012049
:1038D000FFF706FD0120FFF759FFDDE7002CDBD1E4
:1038E000002DD9D14148FEF761FB01210420FFF7EB
:1038F000F7FC00210846FFF7F3FC00210120FFF749
:10390000EFFC0720FFF742FFC6E704213548FCF72C
:10391000FDFF50B1002C8FD1002D8DD13348FEF723
:1039200045FB0120FFF732FF86E7002C84D1002DF4
:1039300082D12E48FEF73AFB0720FFF727FF7BE7EF
:1039400004212848FCF7E2FF60B1002C7FF474AF3B
:10395000002D7FF471AF2548FEF728FB0120FFF70B
:1039600015FF69E7002C7FF467AF002D7FF464AF8B
:103970001E48FEF71BFB0720FFF708FF5CE700B9B6
:1039800099B10CB9012D17D0002C7FF455AF022D41
:103990007FF452AF1248FEF709FB01210020FFF728
:1039A0009FFC0220FFF7F2FE46E70A48FEF7FEFA08
:1039B0000320FFF7EBFEE4E70748FEF7F7FA0121E3
:1039C0000220FFF78DFC0620FFF7E0FEDCE700BFDA
:1039D0001C03002024AB000838AB00084CAB0008E7
:1039E00068AB00080008024098AB000884AB0008F0
:1039F00010B504463A4BD97B5973987B1873052C44
:103A00000FD0374B9A7A4FF4127303FB02F3354908
:103A1000CB5CDBB9013C032C18D8DFE804F00521AE
:103A2000394DFFF7F1FEECE72D4BDB7B7BB1013B22
:103A30002B49CB732B494FF4127303FB0212D3783B
:103A400023B1274BD97B987BFFF734FD10BD254967
:103A50004FF4127303FB0213D978214BD973E9E7B2
:103A60001F4B9B7B5BB1013B1D498B731D494FF481
:103A7000127303FB02129378002BE2D1E6E7194997
:103A80004FF4127303FB02139978154B9973EDE70A
:103A900014494FF4127303FB02129278104B9B7B74
:103AA0009A4205D80E4B00219973002AC9D1CDE75F
:103AB00001330B498B73F8E70A4B4FF4127101FB8A
:103AC0000232D278064BDB7B9A4205D8044B0021A8
:103AD000D973002AB5D1B9E701330149CB73F8E7AF
:103AE0001C03002000980008B42802D810B91E203A
:103AF00002E0B42040081E30014B1B685863704739
:103B00004003002010B501224FF480610848FCF703
:103B100004FF084C00224FF480612046FCF7FDFEB4
:103B200001224FF400612046FCF7F7FE10BD00BFF4
:103B3000001002400004024010B50A4C00224FF46D
:103B400080612046FCF7E9FE01224FF40061204627
:103B5000FCF7E3FE00224FF480610348FCF7DDFE32
:103B600010BD00BF000402400010024010B50A4C16
:103B700001224FF400612046FCF7CFFE0120FCF744
:103B80004FFD00224FF400612046FCF7C6FE0120E5
:103B9000FCF746FD10BD00BF0010024008B548B953
:103BA00000224FF400410748FCF7B7FE6420FCF701
:103BB00037FD08BD01224FF400410248FCF7ADFE7D
:103BC000F4E700BF0010024010B5F7EE007AB4EE43
:103BD000670AF1EE10FA04D0B5EE400AF1EE10FAE1
:103BE00013D0144C00224FF480412046FCF795FE80
:103BF00000224FF400512046FCF78FFE00224FF4C4
:103C000080512046FCF789FE10BD0A4C01224FF47A
:103C100080412046FCF781FE00224FF400512046EF
:103C2000FCF77BFE00224FF480512046FCF775FE26
:103C3000EAE700BF0010024010B50120FFF7AEFF19
:103C400001E0FFF793FF4FF480410B48FCF75EFE65
:103C50000028F6D06420FCF7E3FC0020FFF79EFF6D
:103C6000002402E0FFF782FF01340A2CFAD1034B53
:103C700000221A7010BD00BF000C0240900400200A
:103C800038B50446062800D90624364B1B7863B1A4
:103C9000344B1B78DBB2A34225D8324B1B78DBB206
:103CA000A3423FD32F4B1C7038BD0020FFF776FF97
:103CB000002502E0FFF75AFF01354FF400512A4872
:103CC000FCF724FE38B94FF480412748FCF71EFE6C
:103CD00008B90F2DEED1234B01221A704FF47A70E0
:103CE000FCF79EFCD4E70120FFF758FF002502E017
:103CF000FFF73CFF01354FF400511B48FCF706FE6F
:103D00000028CFD14FF480411748FCF7FFFD002871
:103D1000C8D1144B1B781A1B962303FB02F3AB424A
:103D2000E6D1BFE70020FFF739FF002502E0FFF7EB
:103D30001DFF01354FF400510B48FCF7E7FD00284B
:103D4000B0D14FF480410848FCF7E0FD0028A9D12C
:103D5000044B1B78E21A962303FB02F3AB42E6D135
:103D6000A0E700BF90040020000C024010B582B014
:103D700002A90022002361E902230B48FDF759F94B
:103D80000A4CDDE900230A49204600F091FD09486C
:103D9000FEF70CF92046FEF709F90748FEF706F989
:103DA000009802B010BD00BF280400209404002039
:103DB000ACAB0008B0AB0008A8AB000838B50446AF
:103DC000FFF7D4FF1E4BA3FB0023DB0803EB8303A9
:103DD0005A00831A237000250CE0FFF7C7FF184B29
:103DE000A3FB0023DB0803EB83035A00831A63550C
:103DF000092D07D8635D013BDBB2052BEDD80135FA
:103E0000EDB2F5E7E279237A9A4203D2A378627899
:103E1000A2706370002306E0E25C3032D2B209493E
:103E2000CA540133DBB20A2BF6D10748FEF7BEF8BD
:103E30000448FEF7BBF80548FEF7B8F8002038BD87
:103E4000CDCCCCCC94040020B8AB0008A8AB0008C3
:103E500030B583B002AD05F8010D0A4C23685B68EC
:103E60000020984723689B680020984723681B69B7
:103E700001212846984723685B680120984703B0D2
:103E800030BD00BFC804002070B505460E46094C81
:103E900023685B680020984723689B680120984747
:103EA00023681B6931462846984723685B680120D0
:103EB000984770BDC804002070B582B00E4602ADB0
:103EC00005F8010D094C23685B68002098472368BA
:103ED0009B683046984723681B690121284698470C
:103EE00023685B680120984702B070BDC8040020B9
:103EF00030B583B000238DF804307F258DF8055050
:103F0000094C2078FFF7A4FF022101A8FFF7BCFFAE
:103F10008DF805506078FFF79BFF022101A8FFF79D
:103F2000B3FF03B030BD00BFC0000020002A61D045
:103F300010B5314C226013680120984723681B6834
:103F4000002098472368DB684FF47A70984723680D
:103F50001B680120984723685B6801209847236805
:103F6000DB684FF4FA709847244C0021607BFFF720
:103F7000A3FF0121B120FFF79FFF0021E07BFFF7A6
:103F80009BFF0121F020FFF797FF0021E078FFF76A
:103F900093FF01212020FFF78FFF00212079FFF7F9
:103FA0008BFF01210020FFF787FF00216079FFF7D9
:103FB00083FF01210020FFF77FFF0021A07BFFF797
:103FC0007BFF01210F20FFF777FF0D4A937CD07C08
:103FD00043EA0023107D43EA0040FEF7E3F8FFF7D1
:103FE00087FF0021207AFFF767FF0021E07AFFF7C3
:103FF00063FF10BD704700BFC8040020C000002050
:104000000800002082B0002100910B4B5A6C42F452
:1040100080425A645A6C02F480420092009A0191E4
:104020001A6C42F080521A641B6C03F080530193A7
:10403000019B02B0704700BF003802400268094B84
:104040009A4200D0704782B000230193064B5A6B0E
:1040500042F040025A635B6B03F040030193019B03
:1040600002B07047000806500038024000B589B021
:104070000023039304930593069307930268154B5B
:104080009A4202D009B05DF804FB0021019103F5CA
:1040900084335A6C42F480525A645A6C02F480524F
:1040A0000192019A02911A6B42F001021A631B6B92
:1040B00003F001030293029BA023039302230493C2
:1040C000032306930523079303A90348FCF73AFB50
:1040D000D8E700BF003001400000024082B0036812
:1040E000104A934204D0104A93420ED002B0704757
:1040F000002300930D4B5A6C42F001025A645B6C32
:1041000003F001030093009BF0E700230193074BAA
:104110001A6C42F004021A641B6C03F0040301934E
:10412000019BE3E700000140000800400038024026
:1041300000B589B000230393049305930693079376
:1041400003681D4A934205D01C4A93421BD009B014
:104150005DF804FB00230193194B1A6B42F0100227
:104160001A631B6B03F010030193019B4FF4007360
:1041700003930223049306930123079303A9114891
:10418000FCF7E0FAE3E7002302930D4B1A6B42F0D1
:1041900008021A631B6B03F008030293029B4FF49F
:1041A00080530393022304930693079303A90648BD
:1041B000FCF7C8FACBE700BF000001400008004050
:1041C0000038024000100240000C024000B589B0E7
:1041D000002303930493059306930793026803F166
:1041E000804303F588339A4202D009B05DF804FB9E
:1041F0000021019103F594335A6C42F010025A6485
:104200005A6C02F010020192019A02911A6B42F06C
:1042100002021A631B6B03F002030293029BC0238A
:10422000039302230493032306930723079303A90D
:104230000148FCF787FAD8E7000402407047FEE720
:10424000FEE7FEE7FEE770477047704708B5FCF7EA
:10425000D5F908BD08B50248FDF70CFE08BD00BF42
:10426000A803002008B503460B4A126842B10A4A67
:10427000106803446A46934206D8074A136008BD93
:10428000054A06491160F2E700F0E0FA0C230360EA
:104290004FF0FF30F3E700BF2C030020D0040020D4
:1042A000054BD3F8882042F47002C3F888204FF001
:1042B00000629A60704700BF00ED00E0F0B407288C
:1042C00000D90720102423E0651E41FA05F616F0F8
:1042D000010F37D0C4F1E006CC4F4FF0010C07F8C6
:1042E00006C042FA05F616F0010F33D0C4F1D0062D
:1042F000C64F4FF0010C07F806C043FA05F515F05C
:10430000010F2FD0C4F1C005C04E01277755013CE5
:10431000002C00F0C581451E072DF8D801A656F8DF
:1043200025F000BFCD44000841450008B545000810
:104330002D460008C942000871430008E543000803
:1043400059440008C4F1E006B04F4FF0000C07F8E4
:1043500006C0C6E7C4F1D006AC4F4FF0000C07F81A
:1043600006C0CAE7C4F1C005A84E00277755CEE7BE
:10437000651E41FA05F616F0010F1DD0C4F1B00616
:10438000A24F4FF0010C07F806C042FA05F616F0EE
:10439000010F19D0C4F1A0069C4F4FF0010C07F893
:1043A00006C043FA05F515F0010F15D0C4F19005CC
:1043B000964E01277755AAE7C4F1B006934F4FF008
:1043C000000C07F806C0E0E7C4F1A0068F4F4FF0DD
:1043D000000C07F806C0E4E7C4F190058B4E0027F7
:1043E000775594E7651E41FA05F616F0010F1DD0CA
:1043F000C4F18006854F4FF0010C07F806C042FA61
:1044000005F616F0010F19D0C4F170067F4F4FF07A
:10441000010C07F806C043FA05F515F0010F15D099
:10442000C4F16005794E0127775570E7C4F1800625
:10443000764F4FF0000C07F806C0E0E7C4F17006B5
:10444000724F4FF0000C07F806C0E4E7C4F16005B6
:104450006E4E002777555AE7651E41FA05F616F0AD
:10446000010F1DD0C4F15006684F4FF0010C07F842
:1044700006C042FA05F616F0010F19D0C4F1400645
:10448000624F4FF0010C07F806C043FA05F515F02E
:10449000010F15D0C4F130055C4E0127775536E782
:1044A000C4F15006594F4FF0000C07F806C0E0E782
:1044B000C4F14006554F4FF0000C07F806C0E4E782
:1044C000C4F13005514E0027775520E7651E41FAAB
:1044D00005F616F0010F1DD0C4F5E0764B4F4FF0F6
:1044E000010C07F806C042FA05F616F0010F19D0C4
:1044F000C4F5D876454F4FF0010C07F806C043FAD3
:1045000005F515F0010F15D0C4F5D0753F4E012704
:104510007755FCE6C4F5E0763C4F4FF0000C07F809
:1045200006C0E0E7C4F5D876384F4FF0000C07F826
:1045300006C0E4E7C4F5D075344E00277755E6E6AB
:10454000651E41FA05F616F0010F1DD0C4F5C876B8
:104550002E4F4FF0010C07F806C042FA05F616F090
:10456000010F19D0C4F5C076284F4FF0010C07F8A1
:1045700006C043FA05F515F0010F15D0C4F5B8755E
:10458000224E01277755C2E6C4F5C8761F4F4FF07B
:10459000000C07F806C0E0E7C4F5C0761B4F4FF0EB
:1045A000000C07F806C0E4E7C4F5B875174E0027FD
:1045B0007755ACE6651E41FA05F616F0010F1DD0E1
:1045C000C4F5B076114F4FF0010C07F806C042FA5F
:1045D00005F616F0010F1BD0C4F5A8760B4F4FF06F
:1045E000010C07F806C043FA05F515F0010F17D0C6
:1045F000C4F5A075054E0127775588E6C4F5B07659
:10460000024F4FF0000C07F806C0E0E7D40000208E
:10461000C4F5A876234F4FF0000C07F806C0E2E778
:10462000C4F5A0751F4E0027775570E6651E41FA48
:1046300005F616F0010F1DD0C4F59876194F4FF00E
:10464000010C07F806C042FA05F616F0010F19D062
:10465000C4F59076134F4FF0010C07F806C043FAEB
:1046600005F515F0010F15D0C4F588750D4E01271D
:1046700077554CE6C4F598760A4F4FF0000C07F8D2
:1046800006C0E0E7C4F59076064F4FF0000C07F83F
:1046900006C0E4E7C4F58875024E0027775536E674
:1046A000F0BC7047D4000020F0B410F0800F07D1A8
:1046B00011F0800F06D112F0800F05D100244BE0DD
:1046C0007F20F5E77F21F6E77F22F7E7C4EBC406FA
:1046D00075011F35ED1A234E002777551FE0C4EBF7
:1046E000C40675011835ED1A1E4E0027775523E0D4
:1046F000C4EBC40675011135ED1A1A4E0027775523
:1047000043B3013B40FA03F515F0010FDED0C4EBD3
:10471000C40675011F35ED1A124E0127775541FA6F
:1047200003F515F0010FDAD0C4EBC4067501183596
:10473000ED1A0C4E0127775542FA03F515F0010FDB
:10474000D6D0C4EBC40675011135ED1A054E01270C
:104750007755D5E70134E4B2022C01D00723CFE727
:10476000F0BC7047D400002008B5142211461E206A
:10477000FFF79AFF08BD000008B5002301E000BF65
:104780000133642BFBD1012280210748FCF7C5F8D7
:10479000002301E000BF0133642BFBD10022802104
:1047A0000148FCF7BAF808BD0008024010B5002423
:1047B00008E0064B1A5D40210548FCF7AEF8FFF70C
:1047C000DBFF0134B4F5E07FF3D110BDD40000204D
:1047D0000008024008B530B900224FF400410548F6
:1047E000FCF79BF808BD01224FF400410148FCF79B
:1047F00094F8F7E7000C0240DFF834D0002103E022
:104800000C4B5B58435004310B480C4B42189A42F6
:10481000F6D30B4A02E0002342F8043B094B9A42CC
:10482000F9D3FFF73DFD00F017F8FEF7DFF9704709
:104830000000022014AC000800000020F802002054
:10484000F8020020D0040020FEE70000014B1868A9
:10485000704700BF9402002070B50D4E0D4CA41B94
:10486000A4100025A54209D10B4E0C4C00F026FCEB
:10487000A41BA4100025A54205D170BD56F8253013
:1048800098470135EEE756F8253098470135F2E7AD
:104890000CAC00080CAC00080CAC000810AC000814
:1048A00002440346934200D1704703F8011BF9E725
:1048B0000EB400B59CB01DAB029006906FF00041A5
:1048C000094807910491094953F8042B05910068A0
:1048D000019302A900F066F8029B00221A701CB036
:1048E0005DF804EB03B07047940200200802FFFF5C
:1048F0002DE9F0478E689E4282460C4690469946C6
:1049000037D88A8912F4906F31D0256809696F1AF7
:104910006569022305EB450595FBF3F509F10103F4
:104920003B449D4238BF1D46530530D5294600F013
:104930002BFB064650B90C23CAF80030A38943F07C
:104940004003A3814FF0FF30BDE8F0873A4621696C
:1049500000F0A8FAA38923F4906343F08003A381B5
:10496000266165613E44ED1B2660A5604E464E45BE
:1049700000D94E4632464146206800F09EFAA368B0
:104980009B1BA36023681E4426600020DCE72A46A8
:1049900000F054FB06460028E2D12169504600F0A1
:1049A000A5FAC8E72DE9F04F1D468B891F069DB07B
:1049B00080460C4616460FD50B696BB9402100F0B6
:1049C000E3FA2060206128B90C23C8F800304FF0CA
:1049D000FF30C8E0402363610023099320238DF852
:1049E000293030238DF82A3003954FF0010B3746DC
:1049F0003D4615F8013B0BB1252B3ED1B7EB060A1E
:104A00000BD05346324621464046FFF771FF013036
:104A100000F0A480099B534409933B78002B00F0DD
:104A20009D8000234FF0FF32CDE9052304930793C7
:104A30008DF853301A932F46052217F8011B504862
:104A4000FBF74EFD049BD0B9D90644BF20228DF858
:104A500053201A0744BF2B228DF853202A782A2A84
:104A600015D0079A2F4600200A25394611F8013B38
:104A7000303B092B4DD9B8B10FE02F46B8E7404A7B
:104A8000801A0BFA00F0184304903D46D3E7039ACE
:104A9000111D12680391002A01DB079204E05242C3
:104AA00043F00203079204933B782E2B0CD17B78C2
:104AB0002A2B33D1039B1A1D1B680392002BB8BF0E
:104AC0004FF0FF33023705932E4D397803222846E5
:104AD000FBF706FD38B14023401B03FA00F0049BAE
:104AE000034301370493397827488DF828100622AC
:104AF0007E1CFBF7F5FC002838D0244B13BB039B2E
:104B0000073323F0070308330393099B4B440993AE
:104B10006DE705FB023201200F46A6E700230137AF
:104B2000059319460A25384610F8012B303A092A10
:104B300003D9002BC8D00591C6E705FB012101234D
:104B40000746F0E703AB00932246114B04A9404609
:104B5000AFF30080B0F1FF3F8146D6D1A3895B0659
:104B60003FF535AF09981DB0BDE8F08F03AB00935A
:104B70002246074B04A9404600F082F8EAE700BF4E
:104B8000D0AB0008D6AB0008DAAB0008000000008C
:104B9000F14800082DE9F04791461F468A680B69E5
:104BA000DDF820809342B8BF1346C9F8003091F871
:104BB000432006460C4612B10133C9F80030236881
:104BC000990642BFD9F800300233C9F80030256891
:104BD00015F0060507D104F1190AE368D9F8002099
:104BE0009B1AAB4228DC94F843302268003318BF8C
:104BF000012392062DD404F1430239463046C047C2
:104C0000013020D02368E568D9F8002003F00603BE
:104C1000042B08BFAD1AA36822690CBF25EAE5750D
:104C200000259342C4BF9B1AED184FF000091A34B7
:104C30004D451AD1002008E001235246394630463E
:104C4000C047013003D14FF0FF30BDE8F087013598
:104C5000C3E7E1185A1C302081F84300224494F83D
:104C6000451082F843100233C5E701232246394636
:104C70003046C0470130E6D009F10109D8E700000D
:104C80002DE9F04301F1430C0C46097E85B06E29F5
:104C90001746064698460C9A00F0B38022D863293E
:104CA00036D00AD8002900F0B980582900F0838056
:104CB00004F1420584F8421032E0642901D06929E8
:104CC000F6D120681368050603F104012AD51B6894
:104CD0001160002B03DA2D225B4284F843206F48D9
:104CE0000A2239E0732900F09D8008D86F2920D06E
:104CF0007029DDD1236843F02003236003E0752988
:104D000017D07829D4D1782384F84530644855E009
:104D10001368191D1B68116004F1420584F84230C4
:104D200001238CE01B68116010F0400F18BF1BB20C
:104D3000CFE713682568181D1060280601D51B6889
:104D400002E06806FBD51B8854486F2914BF0A226D
:104D50000822002184F843106568A560002DC0F288
:104D60009580216821F004012160002B3DD1002DA8
:104D700040F08E806546082A0BD12368DB0708D5F2
:104D8000236962689A42DEBF302305F8013C05F1D1
:104D9000FF35ACEB05032361CDF800803B4603AA49
:104DA00021463046FFF7F6FE01304DD14FF0FF307F
:104DB00005B0BDE8F083394884F8451013682168D0
:104DC0001D1D1B6815600A060BD5CA0744BF41F0BC
:104DD000200121601BB9226822F0200222601022EB
:104DE000B7E74D0648BF9BB2EFE76546B3FBF2F16C
:104DF00002FB1133C35C05F8013D0B460029F5D1D8
:104E0000B9E7136825686169181D106028061B68DA
:104E100001D5196002E06A06FBD5198000232361E1
:104E20006546B9E71368191D11601D6862680021A5
:104E30002846FBF755FB08B1401B6060636823619F
:104E4000002384F84330A7E723692A4639463046D1
:104E5000C0470130AAD023689B0713D4E068039BA6
:104E60009842B8BF1846A3E701234A463946304660
:104E7000C04701309AD00135E368039A9B1AAB42D0
:104E8000F2DCEBE7002504F11909F5E7002BACD1C2
:104E9000037884F8423004F142056CE7E1AB000886
:104EA000F2AB000810B5431E0A44914200D110BD78
:104EB00011F8014B03F8014FF7E7884210B501EBF9
:104EC000020307D8421E99420AD011F8014B02F89A
:104ED000014FF8E78342F5D98118D21AD34200D1A5
:104EE00010BD13F8014D01F8014DF7E738B505463F
:104EF000002945D051F8043C0C1F002BB8BFE41822
:104F000000F0D2F81F4A1368104633B9636014608A
:104F10002846BDE8384000F0C8B8A3420CD9216843
:104F20006218934204BF1A685B68636004BF52183A
:104F300022600460ECE713465A680AB1A242FAD92B
:104F400019685818A0420BD12068014458188242B1
:104F50001960DDD1106852685A6001441960D7E7C2
:104F600002D90C232B60D3E7206821188A4204BFA2
:104F700011685268626004BF091821605C60C7E76D
:104F800038BD00BF3403002070B5CD1C25F00305EB
:104F900008350C2D38BF0C25002D064601DBA94233
:104FA00003D90C233360002070BD00F07DF8214A46
:104FB0001468214691B9204C23681BB9304600F093
:104FC00063F820602946304600F05EF8431C24D187
:104FD0000C233360304600F068F8E4E70B685B1B95
:104FE00018D40B2B0FD90B60CD50CC18304600F0E5
:104FF0005CF804F10B00231D20F00700C31AD3D086
:105000005A42E250D0E78C424B6816BF636013608F
:105010000C46EBE70C464968CCE7C41C24F00304BB
:10502000A04205D0211A304600F02EF80130CFD032
:105030002560DBE73403002038030020F8B507467D
:1050400014460E4621B91146BDE8F840FFF79CBF53
:1050500022B9FFF74BFF25462846F8BD00F026F899
:10506000A0420FD221463846FFF78EFF05460028A2
:10507000F2D031462246FFF715FF31463846FFF79A
:1050800035FFE9E73546E7E738B5064C0023054626
:1050900008462360FFF7E6F8431C02D1236803B1FA
:1050A0002B6038BDCC0400207047704751F8043C99
:1050B000181F002BBCBF0B58C0187047F8B500BFB5
:1050C000F8BC08BC9E467047F8B500BFF8BC08BCE9
:0450D0009E46704741
:1050D40000000001000000000000000000010001C9
:1050E40000000000000000000100010000000000BA
:1050F40000000001000100000000000000000100A9
:105104000100000000000000010000000100000098
:105114000000000100000001000000000000010187
:105124000101010000000000000100000001000076
:105134000000000100000000000100000000010068
:10514400000000000100000000000000000000005A
:10515400000000000000000000000000000000004B
:10516400000000000000000000000C080001010124
:105174000101000000000000010000000001000027
:105184000000000100000000010000000000010018
:105194000000000100000000000100000000010008
:1051A40000000000010101010100000000000001F5
:1051B40000000000010000000000010000000001E8
:1051C40000000000000100000000010000000000D9
:1051D40001000000000100000000000101010101C4
:1051E40000000000000000000000000000000000BB
:1051F40000000000000000000000000000000000AB
:105204000000000000000C09000000010101000082
:105214000000000000010000000100000000000187
:105224000000000000010000000001000000000078
:105234000000000000010000000000000000000069
:105244000100000000000000000000010000000058
:105254000000000000000100000000000100000048
:105264000001000000000001000000000001000037
:105274000001000000000000000101010000000026
:10528400000000000000000000000000000000001A
:10529400000000000000000000000000000000000A
:1052A40000000809000101010101000000000000E4
:1052B40001000000000100000000000100000000E7
:1052C40000010000000001000000000001000000D7
:1052D40000010000000000010000000001000000C7
:1052E40000000100000000010000000000010000B7
:1052F40000000100000000000100000000010000A7
:105304000000000100000000010000000001000096
:105314000000000101010101000000000000000084
:105324000000000000000000000000000000000079
:1053340000000000000000000000000000000A0A55
:105344000001010101010100000000000100000052
:105354000000000000000001000000000000000048
:105364000000010000000000000000000001000037
:105374000000000000000000010101010100000024
:105384000000000100000000000000000000010017
:105394000000000000000000000100000000000008
:1053A40000000000010000000000000000000001F7
:1053B40001010101010000000000000000000000E4
:1053C40000000000000000000000000000000000D9
:1053D400000000000000000000000C0800010101B2
:1053E40001010100000000000100000000000000B5
:1053F40000000001000000000000000000000100A7
:105404000000000000000000000100000000000097
:105414000000000001010101010000000000000182
:105424000000000000000000000001000000000077
:105434000000000000010000000000000000000067
:105444000100000000000000000000010000000056
:105454000000000000000000000000000000000048
:105464000000000000000000000000000000000038
:105474000000000000000C08000000010101010010
:105484000000000000010000000001000000000115
:105494000000000000000100000001000000000006
:1054A40000000000000100000000000000000000F7
:1054B40001000000000000000000000100000001E5
:1054C40001010100000001000000000000010000D3
:1054D40000010000000000000100000000010000C5
:1054E40000000001000000000001010101010000B2
:1054F40000000000000000000000000000000000A8
:105504000000000000000000000000000000000097
:1055140000000C0A0001000000000001000000006F
:105524000100000000000100000000010000000074
:105534000001000000000100000000000100000064
:105544000001000000000001000000000101010151
:105554000101010000000001000000000001000042
:105564000000010000000000010000000001000034
:105574000000000100000000010000000000010024
:105584000000000100000000000100000000000015
:105594000000000000000000000000000000000007
:1055A40000000000000000000000000000000809E6
:1055B40000010000000000000000000001000000E5
:1055C40000000000000000010000000000000000D6
:1055D40000000100000000000000000000010000C5
:1055E40000000000000000000100000000000000B6
:1055F40000000001000000000000000000000100A5
:105604000000000000000000000100000000000095
:105614000000000001000000000000000000000184
:105624000000000000000000000000000000000076
:105634000000000000000000000000000000000066
:10564400000000000000000000000404000000004E
:105654000001000000000000000000000100000044
:105664000000000000000001000000000000000035
:105674000000010000000000000000000001000024
:105684000000000000000000010000000000000015
:105694000000000100000000000000000000010004
:1056A40000000000000100000001000000000000F4
:1056B40001000000010000000000000001010100E1
:1056C40000000000000000000000000000000000D6
:1056D40000000000000000000000000000000000C6
:1056E4000000000000000C0C00010000000001009C
:1056F40000000000010000000100000000000001A3
:105704000000010000000000000001000001000092
:105714000000000000010001000000000000000083
:105724000101010000000000000000010000010070
:105734000000000000000100000100000000000063
:105744000001000000010000000000000100000052
:105754000100000000000001000000000100000042
:105764000000000000000000000000000000000035
:105774000000000000000000000000000000000025
:1057840000000C0C000100000000000000000000FC
:105794000100000000000000000000010000000003
:1057A40000000000000001000000000000000000F4
:1057B40000010000000000000000000001000000E3
:1057C40000000000000000010000000000000000D4
:1057D40000000100000000000000000000010000C3
:1057E40000000000000000000100000000000000B4
:1057F40000000001010101010000000000000000A0
:105804000000000000000000000000000000000094
:1058140000000000000000000000000000000C0771
:105824000001000000000000000100000101000070
:10583400000000010100000101000000000001015E
:10584400000001000100000001000100000100014E
:10585400000000010001000001000100000001003F
:10586400010000010000010001000001000001002E
:10587400000100010000010000010000010001001E
:10588400000100000100000001000000010000010F
:105894000000000100000001000000000000000002
:1058A40000000000000000000000000000000000F4
:1058B400000000000000000000000C0C00010000CB
:1058C40000000001000000000101000000000100D0
:1058D40000000001010000000001000000000100C0
:1058E40001000000010000000001000100000001AF
:1058F40000000000010000010000010000000001A0
:10590400000001000001000000000100000001008F
:10591400010000000001000000000101000000007F
:10592400010000000001010000000001000000006F
:105934000001000000000000000000000000000062
:105944000000000000000000000000000000000053
:105954000000000000000C0900000001010101002A
:105964000000000000010000000001000000000130
:105974000000000000000100000001000000000021
:105984000001000000010000000000000100000010
:105994000100000000000001000000010000000000
:1059A40000000100000001000000000000010000F0
:1059B40000010000000000000100000000010000E0
:1059C40000000100000000000001010101000000CE
:1059D40000000000000000000000000000000000C3
:1059E40000000000000000000000000000000000B3
:1059F40000000A0A0001010101010000000000008A
:105A0400010000000001000000000001000000008F
:105A1400010000000000010000000001000000007F
:105A2400000100000000010000000000010101016C
:105A34000100000000000001000000000000000060
:105A44000000010000000000000000000001000050
:105A54000000000000000000010000000000000041
:105A64000000000100000000000000000000000031
:105A74000000000000000000000000000000000022
:105A840000000000000000000000000000000C08FE
:105A940000000001010101000000000000010000FD
:105AA40000000100000000010000000000000100EF
:105AB40000000100000000000001000000010000DF
:105AC40000000000010000000100000000000001CF
:105AD40000000001000000000000010000000100BF
