:020000040800F2
:10000000B80500209D010008311A00087F1600087D
:10001000C9190008B9020008A12200080000000068
:10002000000000000000000000000000611C00084B
:100030007903000800000000331A0008D11C0008F2
:10004000B7010008B7010008B7010008B7010008B0
:10005000B7010008B7010008B7010008B7010008A0
:10006000B7010008B7010008B7010008B701000890
:10007000B7010008B7010008B7010008B701000880
:10008000B7010008B7010008B7010008B701000870
:10009000B7010008B7010008B7010008B701000860
:1000A000B7010008B7010008B7010008B701000850
:1000B000B7010008891D0008B7010008B701000852
:1000C000B7010008B7010008B7010008B701000830
:1000D000B701000895220008B7010008B701000821
:1000E000B7010008B7010008B7010008B701000810
:1000F000B7010008B7010008B7010008B701000800
:10010000B7010008B7010008B7010008B7010008EF
:10011000B7010008B7010008B7010008B7010008DF
:10012000B7010008B7010008B7010008B7010008CF
:10013000B7010008B7010008B7010008B7010008BF
:10014000B7010008B7010008B7010008B7010008AF
:10015000B7010008B7010008B7010008B70100089F
:10016000B7010008B7010008B7010008B70100088F
:10017000B7010008B7010008B7010008000000003F
:10018000B7010008B7010008DFF80CD000F082F8D2
:100190000048004749260008B80500200648804767
:1001A00006480047FEE7FEE7FEE7FEE7FEE7FEE75C
:1001B000FEE7FEE7FEE7FEE76D1D00088901000887
:1001C0002DE9F05F0546002092469B46884606468C
:1001D000814640241BE0284641464746224600F01F
:1001E00048F853465A46C01A914110D31146184652
:1001F000224600F02FF82D1A67EB01084F462246E1
:100200000120002100F026F817EB00094E41201EC6
:10021000A4F10104DFDC484631462A464346BDE8E6
:10022000F09FD2B201E000F8012B491EFBD27047CB
:100230000022F6E710B513460A4604461946FFF7B2
:10024000F0FF204610BD421C10F8011B0029FBD115
:10025000801A7047202A04DB203A00FA02F10020BD
:1002600070479140C2F1200320FA03F319439040F4
:100270007047202A04DB203A21FA02F0002170475F
:1002800021FA02F3D040C2F12002914008431946FE
:1002900070470000064C074D06E0E06840F001039F
:1002A00094E8070098471034AC42F6D3FFF770FF8C
:1002B000C07E0008E07E0008FEE7000070B5244C18
:1002C0000546052DA17821716078E07001D101F01B
:1002D0007DFB207800EBC00101EB80111D4810F878
:1002E0003120002A32D1012D0DD0022D13D0032D43
:1002F00019D0042D2AD100EBC100C178A078814229
:100300001CD8A2701CE0A2780AB1521EF9E700EBDB
:10031000C100C07813E062780AB1521E09E000EB18
:10032000C100807808E000EBC100817860788142EC
:1003300001D8627004E0401C607001E0401CA070B5
:10034000A1786078BDE8704002F0D0BA70BD0000BE
:10035000300000204C54000810B50446FFF773FF2E
:10036000214682B2BDE810404FF4FA63014801F023
:1003700028B9000074010020704790F83510022958
:1003800003D08021416501207047052180F8351098
:100390000068016821F00101016000207047000041
:1003A00070B5044600F0F4F80546601C02D004481D
:1003B0000078044400F0ECF8401BA042FAD370BD72
:1003C0003C0000202DE9F84F00224FF001080325E2
:1003D0004FF00F0E0B6808FA02F42340A3426ED1CF
:1003E0004E68012E05D0022E03D0112E01D0122E00
:1003F00012D186684FEA420C05FA0CF7BE43CF686B
:1004000007FA0CF7374387604668A6430C79C4F3B4
:100410000014944034434460C668570005FA07FC52
:100420008C6826EA0C06BC403443C4604C68022C3D
:1004300001D0122C13D1D40800EB8404A346D4F8C5
:10044000209054074FEAD46A0EFA0AF629EA060900
:100450000E6906FA0AF646EA0906CBF82060066835
:100460000C7926EA0C0604F00304BC403443046013
:100470004C68E40065D5364C266846F48046266014
:10048000246822F0030604F480440094314C344480
:10049000A446D4F808489607370F0EFA07F6B44377
:1004A0002D4EB04201D1002624E02C4EB04201D1A5
:1004B00001261FE02A4EB04202D102261AE040E097
:1004C000284EB04201D1032614E0274EB04201D19C
:1004D00004260FE0254EB04201D105260AE0244E45
:1004E000B04201D1062605E0224EB04201D10726D6
:1004F00000E00826BE402643CCF808681E4E34684B
:100500004F689C43FF0300D51C4334601A4C241DE4
:1005100026684F689E43BF0300D51E432660164ED3
:10052000083634684F689C43FF0200D51C43346092
:10053000114E0C3634684F689C43BF0200D51C43F3
:100540003460521C102AFFF445AFBDE8F88F00005C
:1005500044380240003001400000024000040240E4
:1005600000080240000C024000100240001402404B
:1005700000180240001C0240003C01400069084095
:1005800000D0012070470AB1816170470904FBE780
:1005900001488068704700003C00002002488168E4
:1005A00002781144816070473C0000200B4810B570
:1005B000016841F400710160016841F480610160EB
:1005C000016841F480710160032000F06FF80020A1
:1005D00000F006F800F024F8002010BD003C0240B6
:1005E00070B50D4D04464FF47A712878B1FBF0F0E8
:1005F0000A490968B1FBF0F000F09AFC48B9102CE8
:1006000007D200222146501E00F030F800206C6016
:1006100070BD012070BD00003C000020480000209B
:100620000A4808B5016841F480410160006800F49F
:10063000804000900548001F016841F08051016032
:10064000006800F08050009008BD0000443802406F
:10065000002809DB00F01F020121914040098000C1
:1006600000F1E020C0F8001170470000F0B40E4B1C
:100670001B680C46C3F30223C3F10705042D00D900
:100680000425191D072901D2002300E0DB1E0126E5
:1006900006FA05F1491E214099409E40761E1640FB
:1006A0003143F0BC01F0FDBD0CED00E0064900F067
:1006B000070208684FF6FF03184040EA0220034A89
:1006C00010430860704700000CED00E00000FA05E0
:1006D0002DE9F0470E46050065D0DFF81481D8F803
:1006E0000000F7B200F00F00B04207D288F80070A7
:1006F000D8F8000000F00F00B04254D128683D4CFB
:10070000810712D5400703D5206840F4E0502060EF
:100710002878000703D5206840F4604020602068F6
:10072000A96820F0F000084320602878C0072DD089
:10073000304968680839012812D0022813D00328EC
:1007400011D00968890700292DDA216821F00301F9
:1007500001432160FFF71CFF814641F2883A0EE019
:1007600009688903EFE709688901ECE7FFF710FFE3
:10077000A0EB0901514502D90320BDE8F0872068AC
:10078000696800F00C00B0EB810FEFD1D8F80010D1
:10079000404601F00F01B14207D90770006800F030
:1007A0000F00B04201D00120E7E72878400705D5C7
:1007B0002068E96820F4E0500843206028780007AA
:1007C00006D52068296920F4604040EAC100206015
:1007D00000F038F82168084AC1F30311515CC840A1
:1007E0000649086006480068FFF7FAFE0020C4E7E3
:1007F000003C024008380240A57E00084800002066
:10080000400000200448054900680968044AC1F313
:100810008221515CC84070474800002008380240DF
:10082000B57E00080448054900680968044AC1F318
:100830004231515CC84070474800002008380240EF
:10084000B57E0008154810B5006810F00C02144879
:1008500013D01449042A0FD0082A0ED10F4C241F9C
:100860002268236802F03F025B0207D52068C0F3CC
:100870008810A0FB010106E0084610BD2168C1F305
:100880008811A1FB00010023FFF79AFC2168C1F346
:100890000141491C4900B0FBF1F010BD083802408D
:1008A0000024F40080BA8C01F0B51F4C16460D46AA
:1008B0001D4B002102220327283C0028186887B01E
:1008C00019D040F004001860186800F0040005908A
:1008D00010020090CDE90121CDE90371694613486A
:1008E000FFF770FD206845EAC60120F07840084314
:1008F000206007B0F0BD40F001001860186800F0FB
:10090000010005904FF480700090CDE90121CDE900
:10091000037169460648FFF755FD2068354320F00E
:10092000EC602843E4E70000303802400008024051
:10093000000002402DE9F84F04006ED02078DFF867
:100940003C93C007A9F104054AD009F104000168ED
:10095000C1F38101012908D00068C0F38100022899
:100960000AD1D9F80000400206D52868800337D59F
:1009700060680028E1D033E06068B0F5803F10D0B7
:10098000B0F5A02F286810D020F4803028602868A7
:1009900020F4802028606068A8B1FFF7F9FD0646C2
:1009A0000DE0286840F48030F4E740F480202860AF
:1009B000F7E700BFFFF7ECFD801B642873D82868B9
:1009C0008003F7D50CE0FFF7E3FD064605E000BF26
:1009D000FFF7DEFD801B6428F0D828688003F7D479
:1009E0002078DFF89C8280074FF0000A3ED5A348AC
:1009F000001D016811F00C0F08D00068C0F38100E1
:100A000002280BD1D9F80000400207D428688007DB
:100A100016D5E068012800D112E02BE1E068B8B1FA
:100A20000120C8F80000FFF7B3FD064605E000BF4F
:100A3000FFF7AEFD801B0228C0D828688007F7D5D5
:100A40002868216920F0F80040EAC10028600DE024
:100A5000C8F800A0FFF79CFD064604E0FFF798FDEC
:100A6000801B02281FD828688007F7D42078000749
:100A700022D5824E83486169703671B101210160CF
:100A8000FFF786FD074604E0FFF782FDC01B022842
:100A900009D830688007F7D50EE0C0F800A0FFF74E
:100AA00077FD074605E082E0FFF772FDC01B0228D4
:100AB0007DD830688007F7D42078400768D5DFF804
:100AC000BCB100270BF13C0BDBF80000C0000BD4DD
:100AD000DBF8001041F08051CBF80010DBF800008B
:100AE000012700F080500090674E3068C00510D498
:100AF000306840F480703060FFF74AFD009005E0F8
:100B0000FFF746FD0099401A022850D83068C0050A
:100B1000F6D55A4EA0686C3601280FD005283068EB
:100B200010D020F001003060306820F00400306008
:100B3000A068B8B1FFF72CFD00900FE0306840F0DE
:100B40000100F4E740F004003060F7E7FFF720FD14
:100B50000099411A41F28830814266D83068800796
:100B6000F4D50EE0FFF714FD009007E0FFF710FD4D
:100B70000099411A41F28830814256D83068800786
:100B8000F4D42FB1DBF8001021F08051CBF8001025
:100B9000A069C8B33949091D0968C1F38101022957
:100BA0004AD00228504607D0C8F8600000E03CE078
:100BB000FFF7EEFC04463BE04746C8F86000FFF74D
:100BC000E7FC064605E000BFFFF7E2FC801B0228B9
:100BD0002BD828688001F7D4D4E907010843A16A1B
:100BE0002A4A490802EB0141626A41EA821108433C
:100BF00094F82C1040EA0161C9F800100120386611
:100C0000FFF7C6FC044606E036E000BFFFF7C0FC75
:100C1000001B022809D828688001F7D52CE000BF06
:100C2000FFF7B6FC001B022802D90320BDE8F88FAD
:100C300028688001F4D41FE00128F7D0D9F800001B
:100C4000E26900F48001914214D1226A00F03F0170
:100C500091420FD147F6C071626A0140914209D1B9
:100C6000A26A00F44031914204D1E16A00F0706060
:100C7000884201D00120D9E70020D7E7043802409C
:100C800000004742800E4742007000400000FFFF16
:100C900070B5040003D06079002510B105E0012093
:100CA00070BD2571204600F00DF8022060712068AB
:100CB000016841F00401016001206071A56000201D
:100CC00070BD000008B500680649884208D1064892
:100CD000016841F040010160006800F040000090B0
:100CE00008BD0000000806503438024070B504000A
:100CF00005D00025A56294F8510010B106E001204E
:100D000070BD84F85050204600F030F8022084F87E
:100D100051002068016821F040010160D4E901011F
:100D20000843D4E903121143084361690843218B46
:100D300001F400710843E1690843216A0843A16A8C
:100D4000084321680860A069042101EA1040616A33
:100D50000843216848602068C16921F40061C161CD
:100D60006565012084F85100002070BD10B586B083
:100D7000044614216846FFF75BFA1349206888424D
:100D800020D112480021026842F4805202600068BB
:100D900000F4805005900D481438026842F00102BA
:100DA0000260006800F001000590A0200090022081
:100DB000CDE9010103200390052004906946044811
:100DC000FFF700FB06B010BD003001404438024080
:100DD000000002402DE9F84F044690F8500000272B
:100DE0001D461646894601280DD04FF0010B84F8A8
:100DF00050B0FFF7CDFB804694F85100BA46012869
:100E000004D002278EE00220BDE8F88FB9F1000F70
:100E10007DD0002E7BD0032084F85100C4F854A06C
:100E2000C4F83090A686E686C4F838A0A4F83CA0A2
:100E3000A4F83EA0C4F844A0C4F840A0A068B0F54F
:100E4000004F04D12068016841F4804101602068AE
:100E50000168490603D4016841F040010160E0687F
:100E6000B0F5006F606803D030B3012E24D040E0AD
:100E700008B1012E1CD1206B21680088C86006E0F3
:100E800020688168890709D5216B0988C160206BBA
:100E9000801C2063E08E401EE08609E0FFF778FBAF
:100EA000A0EB0800A84202D3681C01D031E07DB35A
:100EB000E08E0028E4D11FE0206B216800780873E1
:100EC00006E020688168890709D5216B09780173DC
:100ED000206B401C2063E08E401EE08609E0FFF797
:100EE00057FBA0EB0800A84202D3681C01D010E019
:100EF00075B1E08E0028E4D142462946204600F034
:100F000039FE08B120206065A06820B107E008E044
:100F1000FFE7032706E02068C16880680090606DE5
:100F200000B1012784F851B084F850A038466BE72F
:100F300010B5401EB0F1807F01D3012010BD4FF0ED
:100F4000E02460610F21601701F0ABF90020A0617F
:100F500007202061002010BD7047704710B590F841
:100F60003C20012A22D0012280F83C20CA688C68EB
:100F700022F4407222434C6822F4806222430C68BF
:100F800022F4006222430C6922F4805222434C690D
:100F900022F400522243C969002322F480420A430A
:100FA00001684A6480F83C30002010BD022010BD6A
:100FB00070B590F83C20012A32D0012480F83C40E2
:100FC000022280F83D2003685A689D6822F070066E
:100FD0000A6832435A60134B02689A4214D0B2F145
:100FE000804F11D0104B9A420ED0104B9A420BD02A
:100FF0000F4B9A4208D00F4B9A4205D00E4B9A42A3
:1010000002D00E4B9A4204D1496825F0800319435F
:10101000916080F83D40002180F83C10084670BD8A
:10102000022070BD000001400004004000080040A4
:10103000000C004000040140004001400018004046
:10104000704770B50446006801694FF00005C94358
:10105000890715D4C168C943890711D4E91E016104
:1010600001202077206880698007204602D0FFF7A2
:10107000E7FF04E000F0F2F8204600F0ADF9257734
:1010800020680169C943490717D4C168C9434907A2
:1010900013D46FF004010161022020772068806979
:1010A00010F4407F204602D0FFF7CAFF04E000F0B2
:1010B000D5F8204600F090F9257720680169C943EA
:1010C000090716D4C168C943090712D46FF0080193
:1010D0000161042020772068C0698007204602D083
:1010E000FFF7AEFF04E000F0B9F8204600F074F915
:1010F000257720680169C943C90617D4C168C94367
:10110000C90613D46FF01001016108202077206810
:10111000C06910F4407F204602D0FFF791FF04E041
:1011200000F09CF8204600F057F925772068016907
:10113000C943C90708D1C168C943C90704D1891E79
:101140000161204600F049F920680169C943090698
:1011500009D4C168C943090605D46FF08001016153
:101160002046FFF7F9FE20680169C943490609D402
:10117000C168C943490605D46FF0400101612046AA
:1011800000F02CF920680169C94389060BD4C168B5
:10119000C943890607D46FF0200101612046BDE8EC
:1011A0007040FFF7DABE70BD10B586B0044614215A
:1011B0006846FFF73DF82368214C002121480222B0
:1011C000A34211D1036843F0100303600068CDE926
:1011D000021200F0100005901002CDE9000201207B
:1011E00004906946184812E0184CA34213D10368D2
:1011F00043F0040303600068CDE9021200F004002C
:1012000005904020CDE90002694611480492FFF79D
:10121000D9F806B010BD0F4CA342FAD1036843F0D1
:10122000080303600068CDE9021200F00800059091
:10123000A014CDE90002694607480492E7E70000E0
:10124000000001403038024000100240000400401D
:101250000008024000080040000C0240704770B5D2
:10126000044690F83C000D4601280DD0012684F874
:101270003C60022084F83D0042B1042A18D0082ABC
:101280002AD00C2A4DD139E0022070BD206800F030
:10129000E5FD2068816941F008018161206881696C
:1012A00021F004018161206881692A69114311E0FC
:1012B000206800F003FE2068816941F400618161CB
:1012C0002068816921F480618161206881692A69CF
:1012D00041EA0221816124E0206800F025FE2068B7
:1012E000C16941F00801C1612068C16921F00401B0
:1012F000C1612068C1692A69114311E0206800F0CA
:1013000047FE2068C16941F40061C1612068C1697C
:1013100021F48061C1612068C1692A6941EA022122
:10132000C16184F83D60002084F83C0070BD10B5B8
:10133000040003D094F83D0010B107E0012010BD77
:10134000002084F83C00204600F00CF8022084F8CD
:101350003D00211D206800F01DFD012084F83D00A6
:10136000002010BD08B501681748814208D1174810
:10137000016841F001010160006800F0010020E017
:101380001248134A001F914211D1016841F0020135
:1013900001600068002200F00200009011461D204C
:1013A000FFF764F9BDE808401D20FFF751B9094A6D
:1013B000914207D1016841F004010160006800F02A
:1013C0000400009008BD00000000014044380240C5
:1013D00000040040000800407047704770477047A5
:1013E00070B5026804461068D168536910F00F0F99
:1013F00052D003F0010501F490762E435FD0C2076E
:1014000005D0CA0503D5E26B42F00102E263420750
:1014100005D5DA0703D0E26B42F00202E2638207ED
:1014200005D5DA0703D0E26B42F00402E26302075B
:1014300007D501F020022A4303D0E26B42F00802F4
:10144000E263E26B002A33D0800604D5880602D519
:10145000204600F0DBFD20684069E16BC0F380109E
:10146000090700D428B3204600F0C2FD2068416976
:1014700049061AD5416921F040014161606BA0B174
:101480001B490165606BFEF778FF002810D0606B88
:10149000016DBDE870400847830610D58B060ED558
:1014A0002046BDE8704000F0B1BD2046FFF797FF31
:1014B00070BD2046FFF793FF0020E06370BD030678
:1014C00006D50B0604D52046BDE8704000F07EBE70
:1014D0004006F3D54806F1D5D168204621F04001F9
:1014E000D160202184F8391000F0C8F870BD0000E8
:1014F000E11F000870B5040004D094F839000025FD
:1015000010B106E0012070BD84F83850204600F08C
:1015100023F8242084F839002068C16821F40051A0
:10152000C160204600F0BEFD2068016921F49041B1
:1015300001612068416921F02A0141612068C16888
:1015400041F40051C160E563202084F8390084F83B
:101550003A00002070BD000010B586B0044614218A
:101560006846FEF765FE13492068884220D112487C
:101570000021026842F010020260006800F01000D2
:1015800005900D481438026842F0020202600068BB
:1015900000F002000590C02000900220CDE901017A
:1015A000032003900720049069460448FEF70AFFD1
:1015B00006B010BD00100140443802400004024053
:1015C00070472DE9F843044690F839001F46164647
:1015D0000D46202850D1B5B1AEB194F8380001289D
:1015E0004AD0012084F838004FF00008C4F83C804D
:1015F000212084F83900FEF7CBFFA6848146E684DB
:1016000084F8388026E00120BDE8F883E08C401E95
:10161000E084A0684B46B0F5805F4FF000024FF0C9
:1016200080012046009703D000F001FEE8B90DE0EC
:1016300000F0FDFDC8B928882168C0F308004860A3
:10164000206908B16D1C05E0AD1C03E0216815F8A8
:10165000010B4860E08C0028D8D14B460022402185
:101660002046009700F0E3FD08B10320CCE72020DE
:1016700084F839000020C7E70220C5E77047FEE77D
:101680002DE9F04F87B014216846FEF7D1FD694877
:101690000024016841F010010160016801F01001AF
:1016A0000591016841F080010160016801F080014D
:1016B0000591016841F004010160016801F0040135
:1016C0000591016841F001010160016801F001012B
:1016D0000591016841F002010160016801F0020119
:1016E0000591016841F0080101600068DFF848A138
:1016F00000F008000590002258215046FEF743FFF5
:10170000DFF8389140F60448002241464846FEF78B
:101710003AFFDFF82CB100224FF680515846FEF711
:1017200032FF4FF40047002239464648FEF72BFFB0
:10173000002280214448FEF726FF7C2002258DE808
:10174000310069465846FEF73DFE0620CDE900040B
:1017500069463D480294FEF735FE01265820CDE942
:101760000006CDE9024669465046FEF72BFE4FF2D1
:101770000300CDE90004694648460294FEF722FEC4
:10178000CDF80080CDE90164694648460394FEF730
:1017900019FE4FF280500090CDE901646946584629
:1017A0000394FEF70FFEA802CDE9000669465846ED
:1017B000CDE90245FEF706FE4FF4C640CDE9000430
:1017C000694620480294FEF7FDFD0097CDE90164CB
:1017D00069461C480394FEF7F5FD8020CDE900061C
:1017E00069461948CDE90245FEF7ECFDE801009095
:1017F000CDE901540394694650460494FEF7E2FD96
:10180000009769465046CDE90145FEF7DBFD4FF4F0
:10181000E0508DE8310069460B48FEF7D3FD032008
:101820008DE8310069460748FEF7CCFD07B0BDE8FA
:10183000F08F0000303802400000024000040240F7
:1018400000100240000C0240000802400D480C4904
:101850004FF4007201604FF4827141604FF4004117
:1018600081600021C1600161C0E905122022C0E948
:101870000721416281620A21C162FFF737BA000085
:10188000003001405C00002010B592B000240F949D
:101890001C2108A81094FEF7CBFC20216846FEF717
:1018A000C7FC1A481849C0E900144FF6FF71C0E997
:1018B0000241046144618461FFF739FD0F940FA96F
:1018C00012481094FFF774FB6020CDE908040A94D5
:1018D0000B940C940D94002208A90C480E94FFF769
:1018E000BEFC00944FF40050CDE9044002940194F2
:1018F0000394694605480794FFF730FB0348FFF758
:1019000053FC12B010BD000000000140B4000020E4
:1019100010B58AB0002407941C2168460894FEF78D
:1019200087FC11480F49C0E900144FF6FF71C0E968
:10193000024104618461FFF7FAFC079407A90A4891
:101940000894FFF735FB6020CDE9000402940022E3
:10195000694605480494FFF782FC0348FFF724FC1E
:101960000AB010BD00040040F400002010B58AB099
:10197000002407941C2168460894FEF759FC11487E
:101980000F49C0E900144FF6FF71C0E9024104613C
:101990008461FFF7CCFC079407A90A480894FFF775
:1019A00007FB6020CDE90004029400226946054847
:1019B0000494FFF754FC0348FFF7F6FB0AB010BD90
:1019C0000008004034010020FEE7000070B5044626
:1019D00016480D46017844EA0500062924D2DFE8BE
:1019E00001F003121C23231C10B9032000F03AF964
:1019F000002C19D1012D02D1062000F033F9032D5E
:101A000012D102200CE010B9012000F02BF9002CBB
:101A10000AD1012D08D1052002E0002804D10120BF
:101A2000BDE8704000F01EB970BD0000300000201D
:101A3000704770472DE9FF41002400940194444E03
:101A40000294402130460394FEF798FD012510B121
:101A50008DF8005001E08DF8004020213046FEF75F
:101A60008DFD10B18DF8015001E08DF8014010217D
:101A70003046FEF783FD10B18DF8025001E08DF87D
:101A8000024008213046FEF779FD10B18DF8035071
:101A900001E08DF8034004213046FEF76FFD10B1E0
:101AA0008DF8045001E08DF804402A49002002AB73
:101AB0001DF800606A460F5CBE4201D01D5400E074
:101AC0001C54401CC0B20528F2D10020135C0B54FA
:101AD000401CC0B20628F9D19DF8000048B19DF81D
:101AE000080030B11CA0FEF737FC042004B0BDE8AC
:101AF000F0819DF8010038B19DF8090020B117A0D0
:101B0000FEF72AFC0220F1E79DF8020038B19DF8AB
:101B10000A0020B113A0FEF71FFC0320E6E79DF8A2
:101B2000030038B19DF80B0020B110A0FEF714FCA3
:101B30000120DBE79DF8040038B19DF80C0020B1CE
:101B40000BA0FEF709FC0520D0E70020CEE700003F
:101B50000010024036000020544F50004C454654BF
:101B6000000000005249474854000000424F540012
:101B70004D49440038B504461248134B0068B0FB89
:101B8000F3F04FF47A73584300906068B0F5827FA9
:101B90000DD10B46009200228021204600F016F85D
:101BA00070B1606D40F020006065032038BD009882
:101BB00030B1401E009020688068C0430006F6D512
:101BC000002038BD4800002000366E012DE9F041AC
:101BD0001D4617460E460446DDF8188008E0681CCE
:101BE00006D0FEF7D5FCA0EB0800A8420BD255B1F9
:101BF0002068806836EA000030D00020B842EED17C
:101C00000020BDE8F0812068416821F0E0014160DA
:101C10006068B0F5827F0BD1A068B0F5004F02D0AC
:101C2000B0F5806F04D12068016821F040010160A7
:101C3000A06AB0F5005F09D12068016821F4005165
:101C400001602068016841F400510160012084F8BE
:101C50005100002084F850000320D2E70120CDE796
:101C60007047000038B5184D0446401E28701748CC
:101C7000C188ADF80010007A8DF80200009800F0DD
:101C80002FFB00206870A870072C16D2DFE804F044
:101C90001504070A0D10130000F0CEFB0DE0012023
:101CA000A870F9E700F046FF07E000F0F1FE04E05D
:101CB00000F018FF01E000F07FFEA9786878BDE829
:101CC000384000F013BE000030000020000000206B
:101CD000FEF764BC30B593B030216846FEF7A8FA31
:101CE00014210CA8FEF7A4FA1E480025016841F053
:101CF00080510160006800F0805011901A4801681E
:101D000041F4804101600068022400F48040119099
:101D1000032000904FF480300190012003901020A8
:101D200004908004CDE906400D200890A820CDE95C
:101D3000090407200B906846FEF7FCFD0CA90F2054
:101D400081E831004FF4A0500F90E002109005217F
:101D50000CA8FEF7BDFC002211461046FEF7A4FDBC
:101D600013B030BD403802400070004005480168A3
:101D700041F47001016003494FF000608039086050
:101D80007047000088ED00E00148FFF75AB90000F5
:101D9000F4000020F0B50268254C264D264E274F52
:101DA000274B4FF0804CA04209D0604507D0A84295
:101DB00005D0B04203D0B84201D0984204D122F0FD
:101DC000700E4A6842EA0E02A0421BD0604519D04C
:101DD000A84217D0B04215D0B84213D0984211D0C3
:101DE000184DA8420ED0184DA8420BD0174DA8424E
:101DF00008D0174DA84205D0164DA84202D0164D66
:101E0000A84203D122F44075CA682A434D6922F0E2
:101E100080022A4302608A68C2620A688262A04223
:101E200001D0984201D10969016301214161F0BDEE
:101E3000000001400004004000080040000C004089
:101E400000040140004001400044014000480140BE
:101E500000180040001C004000200040F0B5026A5D
:101E600022F001020262036A42688469124E24F081
:101E700073050C682C4323F002058B682B430D4D32
:101E8000A84201D0B04205D123F00807CB683B43FC
:101E900023F00403A84201D0B04205D14D6922F4D9
:101EA000407215438A692A434260846149684163EC
:101EB0000362F0BD0000014000040140F0B5026A79
:101EC00022F010020262026A436884690D6824F4F9
:101ED000E64444EA05248D6822F0200242EA051215
:101EE0000F4D104EA84201D0B04206D1CF6822F06B
:101EF000800242EA071222F04002A84201D0B0421A
:101F000007D14D6923F4406343EA85038D6943EAB1
:101F1000850343608461496881630262F0BD00000B
:101F20000000014000040140F0B5026A22F4807212
:101F30000262026A4368C46922F4007224F07305E5
:101F40000C68124E2C438D6842EA05220E4DA842C1
:101F500001D0B04206D1CF6822F4006242EA0722E3
:101F600022F48062A84201D0B04207D14D6923F427
:101F7000405343EA05138D6943EA05134360C46186
:101F80004968C1630262F0BD0000014000040140E5
:101F900030B5026A22F480520262046A4268C36960
:101FA0000D6823F4E64343EA05238D6824F40054C6
:101FB00044EA0534084DA84202D0084DA84204D195
:101FC0004D6922F4804242EA85124260C361496849
:101FD0000164046230BD00000000014000040140C3
:101FE00010B5806B0021C185C184FFF7F8F910BDE1
:101FF0000168CA6822F49072CA6001684A6922F0D6
:1020000001024A61202180F83A10704710B590F81B
:102010003A10222901D0022010BD8168B1F5805FFD
:1020200011D00169002901681FD0496801F07F03C0
:10203000816A4A1C82620B70C18D491E0904090C19
:10204000C18518D02BE00269816A002A02685268B3
:1020500005D0D2B20A80816A491C8162ECE7C2F3E2
:1020600008020A80816A891CF7E74A68816A4B1C6A
:1020700083620A70E0E70168CA6822F02002CA6041
:102080000168CA6822F48072CA6001684A6922F055
:1020900001024A61202180F83A10FFF791FA0020EE
:1020A00010BD00002DE9F041044600680169E268B6
:1020B00021F44051114301612169A068E26908439C
:1020C0006169114308432168CA6849F20C639A4365
:1020D0000243CA6020684169A26921F4407111433A
:1020E0004161E069192764253226B0F5004F354A71
:1020F000354920684FF0000806D0884201D0904250
:1021000036D1FEF78FFB35E0884201D0904202D1F4
:10211000FEF788FB01E0FEF775FB61684A18A0FB3B
:10212000070148EB0803FEF74BF80146B0FBF5F05A
:102130000201B1FBF5F06FF01803584301EB80008A
:1021400006EBC000B0FBF5F000F0F80002EB400237
:10215000B1FBF5F0584301EB800006EBC000B0FB8B
:10216000F5F000F00700216810448860BDE8F081B8
:10217000FEF748FB61688B0F8A00A0FB0701FEF7A2
:102180001FF80146B0FBF5F06FF01802504301EB69
:10219000800006EB0010B0FBF5F000F0F002B1FBA0
:1021A000F5F002EB0012B1FBF5F06FF018035843A5
:1021B00001EB800006EB0010B0FBF5F000F00F0023
:1021C000D1E70000001401400010014090F83910E0
:1021D000212901D0022070478168B1F5805F016A32
:1021E0000BD04A1C0262026809785160C18C491EFA
:1021F0000904090CC1840ED017E009880268C1F3F4
:102200000801516001690029016A02D0491C01627C
:10221000ECE7891CFBE70168CA6822F08002CA600B
:102220000068C16841F04001C160002070472DE99D
:10223000F041984617460E460446069D1DE0681C70
:102240001BD02DB1FEF7A4F9A0EB0800A84214D9C9
:102250002068C16821F4D071C1602068416921F013
:1022600001014161202084F8390084F83A000020FF
:1022700084F838000320BDE8F0812068006836EA61
:10228000000004D00020B842D9D00020F3E701209C
:10229000F9E700000148FFF7A3B80000740100202F
:1022A000FEE70907090E002804DB00F1E02080F8B2
:1022B0000014704700F00F0000F1E02080F8141DBA
:1022C000704702E008C8121F08C1002AFAD17047FF
:1022D0007047002001E001C1121F002AFBD17047A6
:1022E00070B5064600250024E9B2E0B2012332466B
:1022F00000F028FA641CA4B2802CF5D36D1CADB29A
:10230000802DF0D370BD00002DE9FF5F044600264C
:102310004138DDF83CB09046894619280AD9A4F125
:102320006100192801D81A3004E0A4F1300009280E
:1023300002D8201DC7B206E02E2C20D0252C20D09C
:102340002A2C20D04127DFF88CA00025202C1FD07C
:10235000C7EBC70000EB47110AEB810006EB460113
:1023600001EBC6010844405D78B1A8EB06000D30D2
:10237000C1B209EB0500C0B20023039A11E0402767
:10238000E1E73F27DFE73E27DDE7BBF1000F0AD09B
:10239000A8EB06000D30C1B209EB0500C0B2002366
:1023A0000E9A00F0CFF96D1CEDB20B2DCED3761C3A
:1023B000F6B20E2EC9D3202C0AD0C7EBC70000EB13
:1023C00047110AEB810090F89B0004B0BDE8F09F34
:1023D0000520FAE7142C00087CB50C001449154AB6
:1023E0004FF000050978114E01EBC10303EB811199
:1023F00002EBC10101EB800393F8200293F8211254
:1024000093F8222293F82332019504D0348BADF84F
:102410000040B47E04E0B6F81540ADF80040F47D0D
:102420008DF8024000F076F87CBD0000000000202E
:10243000300000204C540008F8B51148C188ADF8B0
:102440000010007A8DF802000098FFF749FF002481
:102450000C4D0D4E09E000212046FFF7BDFF002185
:10246000204600F013F8641CE4B2287800EBC001A9
:1024700001EB801006EBC0004078A042EBD1F8BD24
:1024800000000020300000204C540008FEB50F0072
:102490001E491F4C00EBC002097802EB001201EB51
:1024A000C10505EB811104EBC101174B01EB42049F
:1024B00001EB40004FF0000CB3F81560DD7D90F8A3
:1024C0000C1290F80D2204F11804CDF804C00BD0C2
:1024D000188BADF80000987E8DF80200ADF808600A
:1024E00020468DF80A500AE0ADF800608DF80250E1
:1024F00020465C8AADF808401B7D8DF80A30029BAF
:1025000000F04CFBFEBD0000000000203000002069
:102510004C5400082DE9F05F1646804630440025F3
:10252000401EDDF82CB01F468A46802804DA0AEBEC
:102530000700401E802814DBBDE8F09F00240AEB52
:1025400005090AE008EB040009F0FF01C0B200230E
:102550000A9A00F0F7F8641CE4B2B442F2D36D1C9E
:10256000EDB2BD42EAD3BBF1000FE5D0BDE8F05FAC
:1025700000F006BA38B5002A61D0314C0120226043
:102580001168884720680168002088472068C16872
:102590004FF47A70884720680168012088472068D6
:1025A0004168012088472068C1684FF4FA70884765
:1025B000241D0021607B00F081F90121B12000F091
:1025C0007DF9E07B002100F079F90121F02000F095
:1025D00075F9E078002100F071F90121202000F068
:1025E0006DF92079002100F069F90121002000F047
:1025F00065F96079002100F061F90121002000F007
:102600005DF9A07B002100F059F901210F2000F0B5
:1026100055F90C48418AADF80010007D8DF8020094
:102620000098FFF75DFE00F0ABF9207A002100F082
:1026300045F9E07ABDE83840002100F03FB938BDE7
:102640001C0000200000002086B0FDF7AFFFFFF760
:1026500041FBFFF715F82549234808600846FEF7B7
:1026600017FBFFF7F3F8FFF70FF9FFF751F9FFF743
:102670007DF920481E490C2201604FF4E131416090
:1026800000218160C160C0E904128161C161FEF76F
:1026900031FF002211462520FDF7E8FF2520FDF738
:1026A000D7FF15480190154800901548029015482D
:1026B00004901548012103906A460846FFF75AFF27
:1026C00012A0FDF749FE0420FFF7CCFA4FF47A7010
:1026D000FDF766FE0120FFF7C5FA00BFFFF7AAF974
:1026E000FDF7ECFDFAE70000000806504C00002062
:1026F000001001407401002015270008352700084C
:1027000025270008FD2B0008112C000853544152C6
:1027100054000000024640210148FDF734BF00008C
:1027200000000240024610210148FDF72CBF0000C6
:1027300000000240024608210148FDF724BF0000C6
:10274000000002402DE9F041144680283BD2802948
:1027500039D2C0F17F00C6B2C1F17F00C5B2802E70
:1027600031D2802D2FD2194F0021387800F0A6F8F1
:102770000121304600F0A2F801217F2000F09EF8F0
:102780007878002100F09AF80121284600F096F8A8
:1027900001217F2000F092F8B878002100F08EF837
:1027A000C4F30725C5F3C200210C40EAC100C0B242
:1027B000012100F083F865F35F14E0B2BDE8F04159
:1027C000012100F07BB8BDE8F0810000200000206E
:1027D0002DE9F041144680283BD2802939D2C0F13E
:1027E0007F00C6B2C1F17F00C5B2802E31D2802DEC
:1027F0002FD2194F0021387800F060F801213046BF
:1028000000F05CF801217F2000F058F87878002172
:1028100000F054F80121284600F050F801217F20F3
:1028200000F04CF8B878002100F048F8C4F3072510
:10283000C5F3C200210C40EAC100C0B2012100F082
:102840003DF865F35F14E0B2BDE8F041012100F00E
:1028500035B8BDE8F08100002000002031B5094CFA
:1028600020684168002088472068816800208847E8
:10287000206801210269684690472068416801206C
:10288000884738BD1C00002070B50B4C06460D462D
:1028900020684168002088472068816801208847B7
:1028A0002068294602693046904720684168BDE8A3
:1028B00070400120084700001C00002073B50A4C3E
:1028C0000D462068416800208847206881682846B6
:1028D000884720680121026968469047206841685E
:1028E000012088477CBD00001C0000202DE9F0413C
:1028F000884606460025204C204F13E000EB45009B
:10290000E278017991420BD140792179884207D14F
:1029100000212846FFF760FD00212846FFF7B6FD9D
:102920006D1CEDB2207800EBC00101EB801007EBCD
:10293000C0004178A942E1D1002511E000EB45003B
:102940000179B1420AD14179414507D10121284697
:10295000FFF742FD01212846FFF798FD6D1CEDB2FF
:10296000207800EBC00101EB801007EBC00041783C
:10297000A942E3D1BDE8F081300000204C540008AA
:1029800038B5002000900B4D8DF800007F248DF8A5
:1029900001402878FFF762FF02216846FFF774FFC5
:1029A0008DF801406878FFF759FF02216846FFF76C
:1029B0006BFF38BD200000203EB5274C0025019557
:1029C000E088ADF80000207A8DF80200608AADF84A
:1029D0000800207D8DF80A0064220A211FA0029BB6
:1029E00000F0DCF80195E088ADF80000207A8DF861
:1029F0000200608AADF80800207D8DF80A0056229A
:102A00000A2119A0029B00F0C9F80195E088ADF8F1
:102A10000000207A8DF80200608AADF80800207D61
:102A20008DF80A0048220A2113A0029B00F0B6F894
:102A30000195E088ADF80000207A8DF80200608AE8
:102A4000ADF80800207D8DF80A003A220A210EA078
:102A5000029B00F0A3F83EBD00000020424D412043
:102A600032303230000000004C696F6E6172646F6A
:102A7000205765726E6C69004D6172636F205374EC
:102A8000617562657200000042656C31376100005B
:102A90002DE9F843DFF84490DFF844800025002456
:102AA00009EBC516C5F15D07305D68B1B8F81210C5
:102AB000ADF8001098F814008DF80200F9B2002368
:102AC0002046009AFFF784FE641CE4B2802CEBD110
:102AD0006D1CEDB2392DE2D1BDE8F8832562000806
:102AE000000000200EB5002001900A483C22C18859
:102AF000ADF80010017A8DF80210B0F81510ADF89D
:102B00000810C07D8DF80A000A2103A0029B00F086
:102B100045F80EBD000000205072657373206120DF
:102B2000626F7820627574746F6E206966207265BA
:102B3000616479002DE9FC470025DFF85880DFF853
:102B40005890AA460E26002406EB850704EBC40025
:102B500000EB041101EB0800405D88B1CDF804A042
:102B6000B9F81210ADF8001099F814008DF80200B1
:102B700006EB8400C1B20423F8B21A46FFF7CAFC80
:102B8000641CE4B2192CE1D16D1CEDB2192DDAD11F
:102B9000BDE8FC87B45F0008000000202DE9FF4F6E
:102BA00083B092460C46054688464FF00009BDF8B2
:102BB00040709DF84260DDF844B016E0CDE901B9FF
:102BC000ADF800708DF80260524621466D1C069BE0
:102BD000FFF79AFB01197F2902D22044C4B204E016
:102BE000AAF10D0000F0FF0A444628780028E5D13C
:102BF00007B0BDE8F04FFFF7C3BE00008AB2014640
:102C00004FF47A730148FEF7E5B800005C0000203D
:102C1000FDF7C6BB0000000100000000000000003E
:102C200000010001000000000000000001000100A0
:102C30000000000000000001000100000000000092
:102C40000000010001000000000000000100000081
:102C50000100000000000001000000010000000071
:102C6000000001010101010000000000000100005E
:102C70000001000000000001000000000001000051
:102C80000000010000000000010000000000000042
:102C90000000000000000000000000000000000034
:102CA00000000000000000000000000000000C0810
:102CB000000101010101000000000000010000000E
:102CC0000001000000000001000000000100000001
:102CD00000000100000000010000000000010000F1
:102CE00000000100000000000101010101000000DE
:102CF00000000001000000000100000000000100D1
:102D000000000001000000000001000000000100C0
:102D100000000000010000000001000000000001B0
:102D2000010101010000000000000000000000009F
:102D30000000000000000000000000000000000093
:102D4000000000000000000000000C09000000016D
:102D5000010100000000000000010000000100006F
:102D60000000000100000000000100000000010060
:102D70000000000000000000000100000000000052
:102D80000000000001000000000000000000000141
:102D90000000000000000000000001000000000032
:102DA0000100000000010000000000010000000020
:102DB000000100000001000000000000000101010E
:102DC0000000000000000000000000000000000003
:102DD00000000000000000000000000000000000F3
:102DE00000000000000008090001010101010000CD
:102DF00000000000010000000001000000000001D0
:102E000000000000000100000000010000000000C0
:102E100001000000000100000000000100000000AF
:102E2000010000000000010000000001000000009F
:102E3000000100000000010000000000010000008F
:102E4000000100000000000100000000010000007F
:102E5000000100000000000101010101000000006C
:102E60000000000000000000000000000000000062
:102E70000000000000000000000000000000000052
:102E800000000A0A00010101010101000000000028
:102E90000100000000000000000000010000000030
:102EA0000000000000000100000000000000000021
:102EB000000100000000000000000000010101010D
:102EC0000100000000000001000000000000000000
:102ED00000000100000000000000000000010000F0
:102EE00000000000000000000100000000000000E1
:102EF00000000001010101010100000000000000CC
:102F000000000000000000000000000000000000C1
:102F100000000000000000000000000000000C089D
:102F2000000101010101010000000000010000009A
:102F30000000000000000001000000000000000090
:102F4000000001000000000000000000000100007F
:102F5000000000000000000001010101010000006C
:102F6000000000010000000000000000000001005F
:102F70000000000000000000000100000000000050
:102F8000000000000100000000000000000000013F
:102F90000000000000000000000000000000000031
:102FA0000000000000000000000000000000000021
:102FB000000000000000000000000C0800000001FC
:102FC00001010100000000000001000000000100FC
:102FD00000000001000000000000010000000100EE
:102FE00000000000000000000001000000000000E0
:102FF00000000000010000000000000000000001CF
:1030000000000001010101000000010000000000BB
:1030100000010000000100000000000001000000AD
:10302000000100000000000100000000000101019B
:10303000010100000000000000000000000000008E
:103040000000000000000000000000000000000080
:103050000000000000000C0A000100000000000158
:10306000000000000100000000000100000000015D
:10307000000000000001000000000100000000004E
:10308000010000000001000000000001000000003D
:103090000101010101010100000000010000000028
:1030A000000100000000010000000000010000001D
:1030B000000100000000000100000000010000000D
:1030C00000000100000000010000000000010000FD
:1030D00000000000000000000000000000000000F0
:1030E00000000000000000000000000000000000E0
:1030F00000000809000100000000000000000000BE
:1031000001000000000000000000000100000000BD
:1031100000000000000001000000000000000000AE
:10312000000100000000000000000000010000009D
:10313000000000000000000100000000000000008E
:10314000000001000000000000000000000100007D
:10315000000000000000000001000000000000006E
:10316000000000010000000000000000000000005E
:10317000000000000000000000000000000000004F
:103180000000000000000000000000000000040437
:10319000000000000001000000000000000000002E
:1031A000010000000000000000000001000000001D
:1031B000000000000000010000000000000000000E
:1031C00000010000000000000000000001000000FD
:1031D00000000000000000010000000000000000EE
:1031E00000000100000000000001000000010000DC
:1031F00000000000010000000100000000000000CD
:1032000001010100000000000000000000000000BB
:1032100000000000000000000000000000000000AE
:10322000000000000000000000000C0C0001000085
:10323000000001000000000001000000010000008B
:10324000000000010000010000000000000001007B
:10325000000100000000000000010001000000006B
:10326000000000000101010000000000000000015A
:10327000000001000000000000000100000100004B
:10328000000000000001000000010000000000003C
:10329000010000000100000000000001000000002B
:1032A000010000000000000000000000000000001D
:1032B000000000000000000000000000000000000E
:1032C0000000000000000C0C0001000000000000E5
:1032D00000000000010000000000000000000001EC
:1032E00000000000000000000000010000000000DD
:1032F00000000000000100000000000000000000CD
:1033000001000000000000000000000100000000BB
:1033100000000000000001000000000000000000AC
:10332000000100000000000000000000010000009B
:103330000000000000000001010101010000000088
:10334000000000000000000000000000000000007D
:10335000000000000000000000000000000000006D
:1033600000000C0700010000000000000001000048
:103370000101000000000001010000010100000047
:103380000000010100000100010000000100010037
:103390000001000100000001000100000100010027
:1033A0000000010001000001000001000100000117
:1033B0000000010000010001000001000001000008
:1033C00001000100000100000100000001000000F8
:1033D00001000001000000010000000100000000E9
:1033E00000000000000000000000000000000000DD
:1033F00000000000000000000000000000000C0CB5
:1034000000010000000000010000000001010000B8
:1034100000000100000000010100000000010000A8
:103420000000010001000000010000000001000197
:103430000000000100000000010000010000010088
:103440000000000100000100000100000000010078
:103450000000010001000000000100000000010167
:103460000000000001000000000101000000000158
:10347000000000000001000000000000000000004B
:10348000000000000000000000000000000000003C
:10349000000000000000000000000C090000000116
:1034A0000101010000000000000100000000010017
:1034B0000000000100000000000001000000010009
:1034C00000000000000100000001000000000000FA
:1034D00001000000010000000000000100000001E8
:1034E00000000000000001000000010000000000DA
:1034F00000010000000100000000000001000000C9
:1035000000010000000001000000000000010101B6
:1035100001000000000000000000000000000000AA
:10352000000000000000000000000000000000009B
:103530000000000000000A0A000101010101000072
:103540000000000001000000000100000000000178
:103550000000000001000000000001000000000168
:103560000000000000010000000001000000000059
:103570000101010101000000000000010000000045
:10358000000000000000010000000000000000003A
:103590000001000000000000000000000100000029
:1035A000000000000000000100000000000000001A
:1035B000000000000000000000000000000000000B
:1035C00000000000000000000000000000000000FB
:1035D00000000C08000000010101010000000000D3
:1035E00000010000000001000000000100000000D8
:1035F00000000100000001000000000000010000C8
:1036000000010000000000000100000001000000B7
:1036100000000001000000010000000000000100A7
:103620000000010000000000000100000001000097
:103630000001000101000000000100000001010084
:103640000000000000010101000001000000000076
:103650000000000000010000000000000000000069
:1036600000000000000000000000000000000C0A44
:103670000001010101010100000000000100000043
:103680000000010000000001000000000001000037
:103690000000010000000000010000000001000027
:1036A0000000000100000000010101010101000013
:1036B0000000000100000001000000000000010007
:1036C00000000001000000000001000000000101F6
:1036D00000000000010000000000010000000001E7
:1036E00000000000000001000000000000000000D9
:1036F00000000000000000000000000000000000CA
:10370000000000000000000000000C0A00000101A1
:1037100001010000000000000100000000010000A5
:103720000000000100000000010000000000010096
:103730000000000000000000000001000000000088
:103740000000000000000101010000000000000076
:103750000000000001000000000001000000000166
:103760000000000000010000000001000000000057
:103770000100000000010000000000000101010143
:103780000000000000000000000000000000000039
:103790000000000000000000000000000000000029
:1037A0000000000000000C080001010101010101FE
:1037B0000000000000000001000000000000000008
:1037C00000000100000000000000000000010000F7
:1037D00000000000000000000100000000000000E8
:1037E00000000001000000000000000000000100D7
:1037F00000000000000000000001000000000000C8
:1038000000000000010000000000000000000001B6
:1038100000000000000000000000010000000000A7
:103820000000000000000000000000000000000098
:103830000000000000000000000000000000000088
:10384000000004080001000000000001000000006A
:103850000100000000000100000000010000000065
:103860000001000000000100000000000100000055
:103870000001000000000001000000000100000045
:103880000000010000000001000000000001000035
:103890000000010000000000010000000001000025
:1038A0000000000100000000000100000001000015
:1038B0000000000000010101000000000000000005
:1038C00000000000000000000000000000000000F8
:1038D00000000000000000000000000000000C08D4
:1038E00000010000000000010000000001000000D5
:1038F00000000100000000000100000001000000C5
:1039000000000001000000010000000000000100B4
:1039100000000100000000000001000000010000A4
:103920000000000000010001000000000000000095
:103930000100010000000000000000010001000083
:103940000000000000000100010000000000000075
:103950000000010000000000000000000000000066
:103960000000000000000000000000000000000057
:10397000000000000000000000000C0C010000002E
:103980000001000000000101000000010001000032
:103990000001010000000100010000000100010021
:1039A0000001000100000100000100000100010011
:1039B0000001000001000100000001000100000101
:1039C00000010000000100010000010001000000F2
:1039D00001000100000100010000000100010000E1
:1039E00000010000000000010000000001000000D4
:1039F00000000100000000000000000000000000C6
:103A000000000000000000000000000000000000B6
:103A10000000000000000C0C01000000000000018C
:103A20000000000001000000000100000000000094
:103A30000100000100000000000000010000010082
:103A40000000000000000001010000000000000074
:103A50000000010000000000000000000001010063
:103A60000000000000000001000001000000000054
:103A70000000010000010000000000000100000043
:103A80000001000000000100000000000001000033
:103A90000000000000000000000000000000000026
:103AA0000000000000000000000000000000000016
:103AB00000000C0C010000000000010000000000EC
:103AC00001000000010000000000000100000001F2
:103AD00000000000000000010001000000000000E4
:103AE00000000100010000000000000000000100D3
:103AF00000000000000000000001000000000000C5
:103B000000000000010000000000000000000001B3
:103B100000000000000000000000010000000000A4
:103B20000000000000010000000000000000000094
:103B30000000000000000000000000000000000085
:103B400000000000000000000000000000000C0C5D
:103B5000010101010101010000000000000000005E
:103B60000001000000000000000000010000000053
:103B70000000000000010000000000000000000044
:103B80000100000000000000000001000000000033
:103B90000000000001000000000000000000000123
:103BA0000000000000000000000100000000000014
:103BB0000000000100000000000000000000010102
:103BC00001010101010000000000000000000000F0
:103BD00000000000000000000000000000000000E5
:103BE000000000000000000000000C0C00000000BD
:103BF00000000000000000000000000000000000C5
:103C000000000000000000000000000000000001B3
:103C100001010000000000000001000000010000A0
:103C20000000000000000001010000000000000092
:103C3000010100010000000000000100000001007F
:103C40000000000000010000000100000000000072
:103C5000010000010100000000000000010100015E
:103C60000000000000000000000000000000000054
:103C70000000000000000000000000000000000044
:103C80000000000000000C07000100000000000020
:103C90000000000001000000000000000000000122
:103CA0000000000000000000000001000101000011
:103CB0000000000000010100000100000000000001
:103CC00001000000010000000000000100000001F0
:103CD00000000000000001000000010000000000E2
:103CE00000010000000100000000000001010000D0
:103CF00001000000000000010001010000000000C0
:103D000000000000000000000000000000000000B3
:103D100000000000000000000000000000000000A3
:103D200000000C0700000000000000000000000080
:103D30000000000000000000000000000000000083
:103D40000000000000000001010100000000000070
:103D50000001000000010000000000000100000060
:103D60000000000000000001000000000000000052
:103D70000000010000000000000000000001000041
:103D80000001000000000000010000000100000030
:103D90000000000001010100000000000000000020
:103DA0000000000000000000000000000000000013
:103DB00000000000000000000000000000000C07F0
:103DC00000000000000100000000000000000000F2
:103DD00001000000000000000000000100000000E1
:103DE00000000001010001000000000000010000CF
:103DF00001010000000000000100000001000000BF
:103E000000000001000000010000000000000100AF
:103E1000000001000000000000010000000100009F
:103E2000000000000100000101000000000000008F
:103E3000010100010000000000000000000000007F
:103E40000000000000000000000000000000000072
:103E5000000000000000000000000C07000000004F
:103E60000000000000000000000000000000000052
:103E70000000000000000000000000000000000141
:103E8000010100000000000000010000000100002E
:103E9000000000000100000001000000000000011F
:103EA000010101010000000000000100000000000D
:103EB0000000000000010000000000000000000001
:103EC00001000000010000000000000001010100ED
:103ED00000000000000000000000000000000000E2
:103EE00000000000000000000000000000000000D2
:103EF0000000000000000C070001010000000000AD
:103F000000000000010000000000000000000001AF
:103F1000000000000000000000010101000000009E
:103F20000000000000010000000000000000000090
:103F3000010000000000000000000001000000007F
:103F40000000000000000100000000000000000070
:103F5000000100000000000000000000010000005F
:103F60000000000000000001000000000000000050
:103F70000000000000000000000000000000000041
:103F80000000000000000000000000000000000031
:103F900000000C0400000000000000000000000011
:103FA0000000000000000000000000000000000011
:103FB00000000000000000010100010000000000FE
:103FC00000010000010100000000000001000000ED
:103FD00001000000000000010000000100000000DE
:103FE00000000100000001000000000000010000CE
:103FF00000010000000000000100000101000000BD
:1040000000000000010100010000000000000000AD
:10401000000001000000000000010000000100009D
:1040200000000000000101010000000000000C077A
:10403000000100000000000000000000010000007E
:10404000000000000000000100000000000000006F
:10405000000001000101000000000000000101005B
:10406000000100000000000001000000010000004D
:10407000000000010000000100000000000001003D
:10408000000001000000000000010000000100002D
:10409000000000000100000001000000000000011D
:1040A000000000010000000000000000000000000F
:1040B0000000000000000000000000000000000000
:1040C000000000000000000000000C0700010000DC
:1040D00000000000000000000000000000000000E0
:1040E00000000000000000000000000000000100CF
:1040F00000000000000000000001000000000000BF
:1041000000000000010000000000000000000001AD
:10411000000000000000000000000100000000009E
:10412000000000000001000000000000000000008E
:10413000010000000000000000000001000000007D
:10414000000000000000000000000000000000006F
:10415000000000000000000000000000000000005F
:104160000000000000000C0300010000000000003F
:10417000000000000000000000000000000000003F
:10418000000000000000000000000100000000002E
:10419000000000000001000000000000000000001E
:1041A000010000000000000000000001000000000D
:1041B00000000000000001000000000000000000FE
:1041C00000010000000000000000000001000000ED
:1041D00000000000000000010000000000000000DE
:1041E00000000100000000000000000000010000CD
:1041F00000000000000000010100000000000000BD
:1042000000000C030001000000000000000000009E
:10421000010000000000000000000001000000009C
:10422000000000000000010000000100000000008C
:10423000000100000100000000000000010001007A
:10424000000000000000000101010000000000006B
:10425000000001000100000000000000000100005B
:10426000010000000000000001000000010000004B
:10427000000000010000000100000000000000003C
:10428000000000000000000000000000000000002E
:1042900000000000000000000000000000000C070B
:1042A000000100000000000000000000010000000C
:1042B00000000000000000010000000000000000FD
:1042C00000000100000000000000000000010000EC
:1042D00000000000000000000100000000000000DD
:1042E00000000001000000000000000000000100CC
:1042F00000000000000000000001000000000000BD
:1043000000000000010000000000000000000001AB
:10431000000000000000000000000000000000009D
:10432000000000000000000000000000000000008D
:10433000000000000000000000000C03000000006E
:10434000000000000000000000000000000000006D
:10435000000000000000000000000000000001005C
:104360000101000101010000000101000001010044
:104370000001000001000000010000000100000138
:104380000000000100000001000001000000010029
:104390000000010000010000000100000001000019
:1043A0000100000001000000010000010000000108
:1043B00000000001000000000000000000000000FC
:1043C00000000000000000000000000000000000ED
:1043D0000000000000000C0B0000000000000000C6
:1043E00000000000000000000000000000000000CD
:1043F00000000000000000000000010001010000BA
:1044000000000000000101000001000000000000A9
:104410000100000001000000000000010000000198
:10442000000000000000010000000100000000008A
:104430000001000000010000000000000100000079
:104440000100000000000001000000010000000069
:10445000000000000000000000000000000000005C
:10446000000000000000000000000000000000004C
:1044700000000C0700000000000000000000000029
:10448000000000000000000000000000000000002C
:104490000000000000000001010100000000000019
:1044A0000001000000010000000000000100000009
:1044B00001000000000000010000000100000000F9
:1044C00000000100000001000000000000010000E9
:1044D00000010000000000000100000001000000D9
:1044E00000000000010101000000000000000000C9
:1044F00000000000000000000000000000000000BC
:1045000000000000000000000000000000000C0798
:10451000000000000000000000000000000000009B
:10452000000000000000000000000000000000008B
:104530000000010001010000000000000001010076
:104540000001000000000000010000000100000068
:104550000000000100000001000000000000010058
:104560000000010000000000000100000001000048
:104570000000000001010000010000000000000137
:104580000001010000000000000001000000000028
:10459000000000000001000000000000000000001A
:1045A000010000000000000000000C0700000000F7
:1045B00000000000000000000000000000000000FB
:1045C00000000000000000000000000000000001EA
:1045D00001000100000000000001000001010000D6
:1045E00000000000010000000100000000000001C8
:1045F00000000001000000000000010000000100B8
:1046000000000000000100000001000000000000A8
:104610000100000101000000000000000101000194
:104620000000000000000000000001000000000089
:104630000000000000010000000000000000000079
:104640000100000000000C07000000000000000056
:10465000000000000000000000000000000000005A
:104660000000000000000000000001000101010046
:104670000000000000010100000000000000000038
:104680000100000000000000000000010000000028
:104690000000000000000100000000000000000019
:1046A0000001000000000000000000000100000008
:1046B00000000000000000010000000000000000F9
:1046C00000000000000000000000000000000000EA
:1046D00000000000000000000000000000000000DA
:1046E00000000C06000000000000000000000000B8
:1046F00000000000000000000000000000000000BA
:1047000000000000000001010100000000000000A6
:104710000100000001000000000000010000000096
:104720000000000000000001010100000000000086
:104730000000000000010000000000000000000078
:104740000100000000000001000000010000000066
:104750000000000101010000000000000000000056
:104760000000000000000000000000000000000049
:1047700000000000000000000000000000000C0627
:104780000001000000000000000000000100000027
:104790000000000000000001000000000000000018
:1047A0000001010100000000000000000001000005
:1047B00000000000000000000100000000000000F8
:1047C00000000001000000000000000000000100E7
:1047D00000000000000000000001000000000000D8
:1047E00000000000010000000000000000000001C7
:1047F00001000000000000000000000000000000B8
:1048000000000000000000000000000000000000A8
:10481000000000000000000000000C040000000088
:104820000000000000000000000000000000000088
:104830000000000000000000000000000000010077
:104840000000010000000000000100000001000065
:104850000000000001000000010000000000000155
:104860000000000100000000000001000000010045
:104870000000000000010000000100000000000036
:104880000100000101000000000000000101000122
:104890000000000000000000000000000000000018
:1048A0000000000000000000000000000000000008
:1048B0000000000000000C070000000000000000E5
:1048C00000000000000000000000000000000000E8
:1048D00000000000000000000001000000010000D6
:1048E00000000000010000000100000000000000C6
:1048F00001000100000000000000000100010000B4
:1049000000000000000001000100000000000000A5
:104910000001000100000000000000000100010093
:104920000000000000000000010000000000000086
:104930000000000000000000000000000000000077
:104940000000000000000000000000000000000067
:1049500000000C0700000000000000000000000044
:104960000000000000000000000000000000000047
:104970000000000000010000000100000001000034
:104980000100000001000000010000000100010022
:104990000100010000000001000100010001000011
:1049A0000000010001000100010000000001000101
:1049B00000010001000000000001000000010000F3
:1049C00000000000010000000100000000000000E5
:1049D00000000000000000000000000000000000D7
:1049E00000000000000000000000000000000C0BB0
:1049F00000000000000000000000000000000000B7
:104A000000000000000000000000000000000000A6
:104A10000001000000000100000000000001000093
:104A20000100000000000000010000010000000083
:104A30000000000001010000000000000000000173
:104A40000100000000000000000100000100000063
:104A50000000000001000001000000000000010053
:104A60000000000100000000000000000000000045
:104A70000000000000000000000000000000000036
:104A8000000000000000000000000C080000000012
:104A90000000000000000000000000000000000016
:104AA0000000000000000000000000000001000005
:104AB00000010000000000000100000001000000F3
:104AC00000000000010001000000000000000001E3
:104AD00000010000000000000000010001000000D3
:104AE00000000000000100010000000000000000C4
:104AF00000010000000000000000000001000000B4
:104B000000000000000000010000000000000000A4
:104B10000000010000000000000000010100000092
:104B20000000000000000C07000000000000000072
:104B30000000000000000000000000000000000075
:104B40000000000000000000000101010101000060
:104B50000000000000000000010000000000000054
:104B60000000010000000000000000000100000043
:104B70000000000000000001000000000000000034
:104B80000001000000000000000000010000000023
:104B90000000000000000101010101000000000010
:104BA0000000000000000000000000000000000005
:104BB00000000000000000000000000000000000F5
:104BC00000000C07000001010000000000000000D0
:104BD00001000001000000000000010000000001D1
:104BE00000000000000100000000010000000000C3
:104BF00001000000000100000000000100000000B2
:104C000001000000000001000000000100000000A1
:104C10000001000000000100000000000100000091
:104C20000001000000000000010000010000000081
:104C30000000000001010000000000000000000072
:104C40000000000000000000000000000000000064
:104C500000000000000000000000000000000C0C3C
:104C60000000000100000000000000000000010042
:104C70000000000000000000010100000000000032
:104C80000000010001000000000000000000000121
:104C90000000000000000000000001000000000013
:104CA0000000000000010000000000000000000003
:104CB00001000000000000000000000100000000F2
:104CC00000000000000001000000000000000000E3
:104CD00000010000000000000000000000000000D3
:104CE00000000000000000000000000000000000C4
:104CF000000000000000000000000C0600000101A0
:104D000000000000000000000100000100000000A1
:104D10000000010000000001000000000000000091
:104D20000000010000000000000000000001000081
:104D30000000000000000001000000000000000072
:104D40000001000000000000000000010000000061
:104D50000000000000010000000000000000000151
:104D6000000000000000000000000101010101013D
:104D70000000000000000000000000000000000033
:104D80000000000000000000000000000000000023
:104D90000000000000000C0C0001010100000000F8
:104DA0000000000100000001000000000000010000
:104DB00000000001000000000000000000000100F1
:104DC00000000000000000000100000000000000E2
:104DD00000010100000000000000000000000100D0
:104DE00000000000000000000000010000000000C2
:104DF00001000000000100000000000100000001AF
:104E0000000000000000000101010000000000009F
:104E10000000000000000000000000000000000092
:104E20000000000000000000000000000000000082
:104E300000000C0C00000000010000000000000059
:104E4000000001010000000000000000000101005E
:104E50000000000000000001000100000000000050
:104E6000000001000100000000000000010000013E
:104E70000000000000000100000001000000000030
:104E8000000101010101010000000000000000001C
:104E90000100000000000000000000010000000010
:104EA0000000000000000100000000000000000001
:104EB00000000000000000000000000000000000F2
:104EC00000000000000000000000000000000C0CCA
:104ED00000010101010100000000000001000000CC
:104EE00000000000000000010000000000000000C1
:104EF00000010000000000000000000001000101AE
:104F0000000000000000000101000001000000009E
:104F10000000000000000001000000000000000090
:104F2000000001000000000001000000000100007E
:104F3000000000010000000100000000000000016E
:104F4000010100000000000000000000000000005F
:104F50000000000000000000000000000000000051
:104F6000000000000000000000000C0C0000010127
:104F7000010000000000000001000000010000002E
:104F8000000001000000000100000000000100001E
:104F9000000000000000000001000101000000000E
:104FA00000000001010000010000000000000100FD
:104FB00000000001000000000001000000000100EE
:104FC00000000000010000000001000000000000DF
:104FD00001000001000000000000000001010000CD
:104FE00000000000000000000000000000000000C1
:104FF00000000000000000000000000000000000B1
:105000000000000000000C0C010101010101000082
:10501000000000000000000001000000000000008F
:10502000000001000000000000000000010000007E
:10503000000000000000000100000000000000006F
:10504000000100000000000000000000010000005E
:10505000000000000000000100000000000000004F
:10506000000100000000000000000000010000003E
:10507000000000000000000100000000000000002F
:105080000000000000000000000000000000000020
:105090000000000000000000000000000000000010
:1050A00000000C06000001010000000000000000EC
:1050B00001000001000000000000010000000001EC
:1050C00000000000000100000000010000000000DE
:1050D00000010000010000000000000000010100CC
:1050E00000000000000000010000010000000000BE
:1050F00000010000000001000000000001000000AD
:10510000000100000000000001000001000000009C
:10511000000000000101000000000000000000008D
:10512000000000000000000000000000000000007F
:1051300000000000000000000000000000000C0C57
:10514000000001010000000000000000010000015B
:10515000000000000000010000000001000000004D
:10516000000100000000010000000000010000003C
:10517000000100000000000001000001010000002B
:10518000000000000101000100000000000000001C
:10519000000001000000000001000000000100000C
:1051A00000000000010000010000000000000000FD
:1051B00001010000000000000000000000000000ED
:1051C00000000000000000000000000000000000DF
:1051D000000000000000000000000C0C00000101B5
:1051E00000000000000000000100000100000000BD
:1051F00000000001000001000000000000000001AC
:10520000010000000000000000000000000000009D
:10521000000000000000000000000000000000008E
:10522000000000000000000000000000000000007E
:10523000000000000000000000000000000000006E
:10524000000000000000000000000000000000005E
:10525000000000000000000000000000000000004E
:10526000000000000000000000000000000000003E
:105270000000000000000C0C000101000000000113
:10528000000000010000010000010000000001001A
:105290000001000001000000000100000100010009
:1052A00000000000010000010001000000000000FB
:1052B00001010000010001010000000000000100E8
:1052C00001000001000000000001000100000100D9
:1052D00000000001000001000001000000000100CA
:1052E00000010000010000000100000000010100B9
:1052F00000000000000000000000000000000000AE
:10530000000000000000000000000000000000009D
:1053100000000C0C00000000000000000000000075
:10532000000000000000000000000000000000007D
:10533000000000000000000000000000000000006D
:10534000000000000000000000000000000000005D
:10535000000000000000000000000000000000004D
:10536000000000000000000000000000000000003D
:10537000000000000000000101000000000000002B
:10538000000001010000000000000000000000001B
:10539000000000000000000000000000000000000D
:1053A00000000000000000000000000000000C0CE5
:1053B00001010101010101010101010101010101DD
:1053C00001010101010101010101010101010101CD
:1053D00001010101010101010101010101010101BD
:1053E00001010101010101010101010101010101AD
:1053F000010101010101010101010101010101019D
:10540000010101010101010101010101010101018C
:10541000010101010101010101010101010101017C
:10542000010101010101010101010101010101016C
:10543000010101010101010101010101010101015C
:10544000010101010101010101010C0C0004000333
:105450000000000100020003000000000000000046
:105460000000000051520000000000000000000099
:10547000000000000000000000000000000000002C
:10548000000000000000000000000000000000001C
:10549000000000000000494E464F000000000000E0
:1054A00000000000000000000000000000000000FC
:1054B00000000000000000000000000000000000EC
:1054C00000000000000000004D4F544F520000004B
:1054D00000000000000000000000000000000000CC
:1054E00000000000000000000000000000000000BC
:1054F000000000000000000000004C454473000064
:10550000000000000000000000000000000000009B
:10551000000000000000000000000000000000008B
:10552000000000000000000000000000000000007B
:10553000000000000000000000000000000000006B
:10554000000000000000000000000000000000005B
:10555000000000000000000000000000000000004B
:10556000000000000000000000000000000000003B
:10557000000000000000000000000000000000002B
:10558000000000000000000000000000000000001B
:10559000000000000000000000000000000000000B
:1055A00000000000000000000000000000000000FB
:1055B00000000000000000000000000000000000EB
:1055C00000000000000000000000000000000000DB
:1055D00000000000000000000000000000000000CB
:1055E00000000000000000000000000000000000BB
:1055F00000000000000000000000000000000000AB
:10560000000000000000000000000000000000009A
:10561000000000000000000000000000000000008A
:10562000000000000000000000000000000000007A
:10563000000000000000000000000000000000006A
:10564000000000000000000000000000000000005A
:105650000000000000000000370C322A29483266A2
:105660000000000000000000000000001D0A4614B9
:105670001D2846141D4646141D64461400000000F3
:10568000000000000000000000000000000000001A
:105690000000000000020001000000010000000006
:1056A0000000000000000000000000004241434BE9
:1056B00000000000000000000000000000000000EA
:1056C00000000000000000000000000000000000DA
:1056D0000000000000000000000000000000535423
:1056E00041525400000000000000000000000000D3
:1056F00000000000000000000000000000000000AA
:105700000000000000000000000000000000000099
:105710000000000000000000000000000000000089
:105720000000000000000000000000000000000079
:105730000000000000000000000000000000000069
:105740000000000000000000000000000000000059
:105750000000000000000000000000000000000049
:105760000000000000000000000000000000000039
:105770000000000000000000000000000000000029
:105780000000000000000000000000000000000019
:105790000000000000000000000000000000000009
:1057A00000000000000000000000000000000000F9
:1057B00000000000000000000000000000000000E9
:1057C00000000000000000000000000000000000D9
:1057D00000000000000000000000000000000000C9
:1057E00000000000000000000000000000000000B9
:1057F00000000000000000000000000000000000A9
:105800000000000000000000000000000000000098
:105810000000000000000000000000000000000088
:105820000000000000000000000000000000000078
:105830000000000000000000000000000000000068
:105840000000000000000000000000000000000058
:105850000000000000000000000000000000000048
:105860000000000000000000000000000000000038
:105870000000000000000000000000000000000028
:105880000000000000000000000000000000000018
:105890000000000000000000000000000000000008
:1058A00032342B5200000000000000000000000015
:1058B000000000001D3246141D5046140000000078
:1058C00000000000000000000000000000000000D8
:1058D00000000000000000000000000001000000C7
:1058E00000000000000000000000000000000000B8
:1058F00000000000000000000000000000000000A8
:105900000000000000000000000000000000000097
:105910000000000000000000000000000000000087
:105B20000000000001000000000000000000000074
:105B30000000000000000000000000000000000065
:105B40000000000000000000000000000000000055
:105B50000000000000000000000000000000000045
:105B60000000000000000000000000000000000035
:105FB00000000000010101010101010001000001D8
:105FC00001010000000001010101010101010000C7
:105FD00000000001000101010101010000010000B9
:105FE00001010100000101000101010001000100A7
:105FF000010100000000000000000001010001019B
:10600000000101010001000100000000010000008A
:106010000101000101010101010001010100010074
:106020000100010101010101010101010100010063
:10603000010100000000000100000100000001005B
:106040000001000000010100000001010101010147
:10605000010001000000000100000100010001003A
:10606000010101000000000000000001000001012A
:106070000101010100000001010000000100010117
:106080000101010001000001000100010101010105
:1060900001000100000100000001000000010100FA
:1060A00001000101000000010101000000010100E8
:1060B00000000100010101000101010001010001D6
:1060C00001010101000101010001010100000100C5
:1060D00000000001000000000100010001000100BB
:1060E00001010000000101000001000001010000A9
:1060F0000001010001000101010000010001010097
:106100000001010000000101000101010100000087
:106110000001000001010001010001000000010177
