:020000040800F2
:10000000180600209D010008071A0008771600084E
:10001000051A0008B9020008452000080000000089
:100020000000000000000000000000000B1A0008A3
:10003000DD02000800000000091A00080D1A00087F
:10004000B7010008B7010008B7010008B7010008B0
:10005000B7010008B7010008B7010008B7010008A0
:10006000B7010008B7010008B7010008B701000890
:10007000B7010008B7010008B7010008B701000880
:10008000B7010008B7010008B7010008B701000870
:10009000B7010008B7010008B7010008B701000860
:1000A000B7010008B7010008B7010008B701000850
:1000B000B7010008C51A0008B7010008B701000819
:1000C000B7010008B7010008B7010008B701000830
:1000D000B701000839200008B7010008B70100087F
:1000E000B7010008B7010008B7010008B701000810
:1000F000B7010008B7010008B7010008B701000800
:10010000B7010008B7010008B7010008B7010008EF
:10011000B7010008B7010008B7010008B7010008DF
:10012000B7010008B7010008B7010008B7010008CF
:10013000B7010008B7010008B7010008B7010008BF
:10014000B7010008B7010008B7010008B7010008AF
:10015000B7010008B7010008B7010008B70100089F
:10016000B7010008B7010008B7010008B70100088F
:10017000B7010008B7010008B7010008000000003F
:10018000B7010008B7010008DFF80CD000F082F8D2
:1001900000480047E922000818060020064880476A
:1001A00006480047FEE7FEE7FEE7FEE7FEE7FEE75C
:1001B000FEE7FEE7FEE7FEE7A91A0008890100084E
:1001C0002DE9F05F0546002092469B46884606468C
:1001D000814640241BE0284641464746224600F01F
:1001E00048F853465A46C01A914110D31146184652
:1001F000224600F02FF82D1A67EB01084F462246E1
:100200000120002100F026F817EB00094E41201EC6
:10021000A4F10104DFDC484631462A464346BDE8E6
:10022000F09FD2B201E000F8012B491EFBD27047CB
:100230000022F6E710B513460A4604461946FFF7B2
:10024000F0FF204610BD421C10F8011B0029FBD115
:10025000801A7047202A04DB203A00FA02F10020BD
:1002600070479140C2F1200320FA03F319439040F4
:100270007047202A04DB203A21FA02F0002170475F
:1002800021FA02F3D040C2F12002914008431946FE
:1002900070470000064C074D06E0E06840F001039F
:1002A00094E8070098471034AC42F6D3FFF770FF8C
:1002B000A8230008C8230008FEE7000010B5044684
:1002C000FFF7C1FF214682B2BDE810404FF4FA6348
:1002D000014801F072B90000A00100207047000041
:1002E00010B50849084800F091FC064C07A10C48DD
:1002F000D4E9002301F0A8FE0948FFF7DFFF2068DA
:1003000010BD0000080000202000002052616E6433
:100310006F6D4E756D3A20256C6C64200A000000EC
:10032000E001002090F83510022903D080214165BA
:1003300001207047052180F835100068016821F020
:1003400001010160002070472DE9F84F00224FF0B5
:10035000010803254FF00F0E0B6808FA02F4234042
:10036000A3426ED14E68012E05D0022E03D0112E6D
:1003700001D0122E12D186684FEA420C05FA0CF712
:10038000BE43CF6807FA0CF7374387604668A64339
:100390000C79C4F30014944034434460C668570099
:1003A00005FA07FC8C6826EA0C06BC403443C4609E
:1003B0004C68022C01D0122C13D1D40800EB840419
:1003C000A346D4F8209054074FEAD46A0EFA0AF6EE
:1003D00029EA06090E6906FA0AF646EA0906CBF882
:1003E000206006680C7926EA0C0604F00304BC4081
:1003F000344304604C68E40065D5364C266846F406
:1004000080462660246822F0030604F480440094A9
:10041000314C3444A446D4F808489607370F0EFAF6
:1004200007F6B4432D4EB04201D1002624E02C4EF5
:10043000B04201D101261FE02A4EB04202D102266D
:100440001AE040E0284EB04201D1032614E0274EC6
:10045000B04201D104260FE0254EB04201D105265D
:100460000AE0244EB04201D1062605E0224EB042F9
:1004700001D1072600E00826BE402643CCF80868D4
:100480001E4E34684F689C43FF0300D51C43346004
:100490001A4C241D26684F689E43BF0300D51E4397
:1004A0002660164E083634684F689C43FF0200D51C
:1004B0001C433460114E0C3634684F689C43BF02B5
:1004C00000D51C433460521C102AFFF445AFBDE830
:1004D000F88F000044380240003001400000024024
:1004E0000004024000080240000C024000100240DC
:1004F0000014024000180240001C0240003C014071
:100500000AB1816170470904FBE700000148806877
:1005100070470000100000200248816802781144F2
:1005200081607047100000200B4810B5016841F44D
:1005300000710160016841F480610160016841F46B
:1005400080710160032000F06FF8002000F006F8D1
:1005500000F024F8002010BD003C024070B50D4DA5
:1005600004464FF47A712878B1FBF0F00A49096823
:10057000B1FBF0F000F04AFC48B9102C07D2002281
:100580002146501E00F030F800206C6070BD012044
:1005900070BD0000100000201C0000200A4808B5B3
:1005A000016841F480410160006800F480400090DF
:1005B0000548001F016841F080510160006800F0AB
:1005C0008050009008BD000044380240002809DB3C
:1005D00000F01F02012191404009800000F1E0205D
:1005E000C0F8001170470000F0B40E4B1B680C46B9
:1005F000C3F30223C3F10705042D00D90425191DF7
:10060000072901D2002300E0DB1E012606FA05F1CE
:10061000491E214099409E40761E16403143F0BC51
:1006200001F026BD0CED00E0064900F00702086865
:100630004FF6FF03184040EA0220034A10430860C7
:10064000704700000CED00E00000FA052DE9F047CE
:100650000E46050065D0DFF81481D8F80000F7B227
:1006600000F00F00B04207D288F80070D8F8000000
:1006700000F00F00B04254D128683D4C810712D5DC
:10068000400703D5206840F4E05020602878000738
:1006900003D5206840F4604020602068A96820F0FD
:1006A000F000084320602878C0072DD030496868E2
:1006B0000839012812D0022813D0032811D0096864
:1006C000890700292DDA216821F003010143216007
:1006D000FFF71CFF814641F2883A0EE00968890362
:1006E000EFE709688901ECE7FFF710FFA0EB0901CC
:1006F000514502D90320BDE8F0872068696800F001
:100700000C00B0EB810FEFD1D8F80010404601F09B
:100710000F01B14207D90770006800F00F00B04226
:1007200001D00120E7E72878400705D52068E9686F
:1007300020F4E050084320602878000706D52068A0
:10074000296920F4604040EAC100206000F038F8D8
:100750002168084AC1F30311515CC840064908608A
:1007600006480068FFF7FAFE0020C4E7003C02409C
:1007700008380240902300081C00002014000020CC
:100780000448054900680968044AC1F38221515CA4
:10079000C84070471C00002008380240A023000811
:1007A0000448054900680968044AC1F34231515CB4
:1007B000C84070471C00002008380240A0230008F1
:1007C000154810B5006810F00C02144813D01449F5
:1007D000042A0FD0082A0ED10F4C241F2268236848
:1007E00002F03F025B0207D52068C0F38810A0FB2F
:1007F000010106E0084610BD2168C1F38811A1FB84
:1008000000010023FFF7DCFC2168C1F30141491C12
:100810004900B0FBF1F010BD083802400024F4009C
:1008200080BA8C01F0B51F4C16460D461D4B0021B9
:1008300002220327283C0028186887B019D040F00E
:1008400004001860186800F0040005901002009081
:10085000CDE90121CDE9037169461348FFF774FD25
:10086000206845EAC60120F078400843206007B0C0
:10087000F0BD40F001001860186800F0010005901C
:100880004FF480700090CDE90121CDE903716946F4
:100890000648FFF759FD2068354320F0EC602843F7
:1008A000E4E7000030380240000802400000024047
:1008B0002DE9F84F04006ED02078DFF83C93C00794
:1008C000A9F104054AD009F104000168C1F38101CE
:1008D000012908D00068C0F3810002280AD1D9F8A4
:1008E0000000400206D52868800337D560680028DC
:1008F000E1D033E06068B0F5803F10D0B0F5A02FB4
:10090000286810D020F480302860286820F48020E7
:1009100028606068A8B1FFF7F9FD06460DE0286879
:1009200040F48030F4E740F480202860F7E700BF0F
:10093000FFF7ECFD801B642873D828688003F7D587
:100940000CE0FFF7E3FD064605E000BFFFF7DEFD24
:10095000801B6428F0D828688003F7D42078DFF85B
:100960009C8280074FF0000A3ED5A348001D016815
:1009700011F00C0F08D00068C0F3810002280BD1E1
:10098000D9F80000400207D42868800716D5E0682F
:10099000012800D112E02BE1E068B8B10120C8F8CD
:1009A0000000FFF7B3FD064605E000BFFFF7AEFD10
:1009B000801B0228C0D828688007F7D528682169DD
:1009C00020F0F80040EAC10028600DE0C8F800A05F
:1009D000FFF79CFD064604E0FFF798FD801B022808
:1009E0001FD828688007F7D42078000722D5824EC8
:1009F00083486169703671B101210160FFF786FD9E
:100A0000074604E0FFF782FDC01B022809D83068C2
:100A10008007F7D50EE0C0F800A0FFF777FD074686
:100A200005E082E0FFF772FDC01B02287DD8306828
:100A30008007F7D42078400768D5DFF8BCB10027DD
:100A40000BF13C0BDBF80000C0000BD4DBF800100E
:100A500041F08051CBF80010DBF80000012700F0D6
:100A600080500090674E3068C00510D4306840F464
:100A700080703060FFF74AFD009005E0FFF746FD0B
:100A80000099401A022850D83068C005F6D55A4E51
:100A9000A0686C3601280FD00528306810D020F0EF
:100AA00001003060306820F004003060A068B8B108
:100AB000FFF72CFD00900FE0306840F00100F4E7F4
:100AC00040F004003060F7E7FFF720FD0099411A7D
:100AD00041F28830814266D830688007F4D50EE054
:100AE000FFF714FD009007E0FFF710FD0099411A91
:100AF00041F28830814256D830688007F4D42FB153
:100B0000DBF8001021F08051CBF80010A069C8B3C9
:100B10003949091D0968C1F3810102294AD0022817
:100B2000504607D0C8F8600000E03CE0FFF7EEFC5C
:100B300004463BE04746C8F86000FFF7E7FC06467E
:100B400005E000BFFFF7E2FC801B02282BD82868D5
:100B50008001F7D4D4E907010843A16A2A4A490869
:100B600002EB0141626A41EA8211084394F82C10B9
:100B700040EA0161C9F8001001203866FFF7C6FCA1
:100B8000044606E036E000BFFFF7C0FC001B022869
:100B900009D828688001F7D52CE000BFFFF7B6FC24
:100BA000001B022802D90320BDE8F88F28688001C5
:100BB000F4D41FE00128F7D0D9F80000E26900F46E
:100BC0008001914214D1226A00F03F0191420FD17D
:100BD00047F6C071626A0140914209D1A26A00F4ED
:100BE0004031914204D1E16A00F07060884201D046
:100BF0000120D9E70020D7E704380240000047422F
:100C0000800E4742007000400000FFFF2DE9F047D2
:100C10000446007900278A4601280ED00125257157
:100C200060794FF00009012809D00420A060012755
:100C300084F804903846BDE8F0870220FBE74FF0C7
:100C4000020884F80580FFF761FC06460CE000BF4F
:100C5000FFF75CFC801B022806D96571C4F8088088
:100C600084F804900120E6E720684068C043C0078C
:100C7000EED120688068E060CAF800006571D7E7AF
:100C800070B5040003D06079002510B105E00120A3
:100C900070BD2571204600F00DF8022060712068BB
:100CA000016841F00401016001206071A56000202D
:100CB00070BD000008B500680649884208D10648A2
:100CC000016841F040010160006800F040000090C0
:100CD00008BD0000000806503438024070B504001A
:100CE00005D00025A56294F8510010B106E001205E
:100CF00070BD84F85050204600F030F8022084F88F
:100D000051002068016821F040010160D4E901012F
:100D10000843D4E903121143084361690843218B56
:100D200001F400710843E1690843216A0843A16A9C
:100D3000084321680860A069042101EA1040616A43
:100D40000843216848602068C16921F40061C161DD
:100D50006565012084F85100002070BD30B587B072
:100D6000044614216846FFF763FA234D22680021E8
:100D7000224802230324AA421BD1204A14321568B8
:100D800045F480551560126802F48052059202689D
:100D900042F0010202600068CDE9021400F0010097
:100DA0000590A020CDE90003052004906946144871
:100DB0001DE0144DAA421CD1104A1032156845F4AA
:100DC00000451560126802F400420592026842F084
:100DD000020202600068CDE9021400F002000590F2
:100DE0002820CDE900030620049069460648FFF755
:100DF000ABFA07B030BD000000300140303802408F
:100E000000000240003C00400004024010B5401EBB
:100E1000B0F1807F01D3012010BD4FF0E02460616C
:100E20000F21601701F024F90020A0610720206144
:100E3000002010BD7047704710B590F83C20012A83
:100E400022D0012280F83C20CA688C6822F44072CB
:100E500022434C6822F4806222430C6822F4006230
:100E600022430C6922F4805222434C6922F400523E
:100E70002243C969002322F480420A4301684A647C
:100E800080F83C30002010BD022010BD70B590F8F5
:100E90003C20012A32D0012480F83C40022280F814
:100EA0003D2003685A689D6822F070060A68324344
:100EB0005A60134B02689A4214D0B2F1804F11D09D
:100EC000104B9A420ED0104B9A420BD00F4B9A42C5
:100ED00008D00F4B9A4205D00E4B9A4202D00E4BCF
:100EE0009A4204D1496825F080031943916080F843
:100EF0003D40002180F83C10084670BD022070BDC6
:100F0000000001400004004000080040000C0040C8
:100F100000040140004001400018004010B50400EA
:100F200003D094F83D0010B107E0012010BD00206F
:100F300084F83C00204600F00DF8022084F83D00C3
:100F4000211D206800F0C4FD012084F83D00002030
:100F500010BD000008B500680649884208D106485F
:100F6000016841F004010160006800F00400009095
:100F700008BD0000000800404038024070B504463B
:100F800090F83C00012817D0012584F83C5002203D
:100F900084F83D002068826822F0770222F47F42C4
:100FA00082600868502830D00DDC20284DD005DC48
:100FB00098B310283BD148E0022070BD302844D0BF
:100FC000402834D139E0602828D0702806D0B0F508
:100FD000805F2CD0B0F5005F29D10AE0CB68D1E961
:100FE0000121206800F0D8FD2068816841F0770178
:100FF00009E0CB68D1E90121206800F0CDFD20682F
:10100000816841F48041816011E0CA6849682068C4
:1010100000F096FE5021206807E016E0CA68496893
:10102000206800F09EFE6021206800F0BFFD84F87B
:101030003D50002084F83C0070BDCA6849682068B3
:1010400000F07EFE40212068EFE72268014610464E
:10105000EBE7704770B50446006801694FF0000582
:10106000C943890715D4C168C943890711D4E91E4A
:10107000016101202077206880698007204602D026
:10108000FFF7E7FF04E000F0F3F8204600F0A0F9D6
:10109000257720680169C943490717D4C168C94346
:1010A000490713D46FF00401016102202077206802
:1010B000806910F4407F204602D0FFF7CAFF04E0A9
:1010C00000F0D6F8204600F083F925772068016902
:1010D000C943090716D4C168C943090712D46FF080
:1010E00008010161042020772068C069800720463C
:1010F00002D0FFF7AEFF04E000F0BAF8204600F09F
:1011000067F9257720680169C943C90617D4C16802
:10111000C943C90613D46FF010010161082020777C
:101120002068C06910F4407F204602D0FFF791FF8D
:1011300004E000F09DF8204600F04AF92577206889
:101140000169C943C90708D1C168C943C90704D1A6
:10115000891E0161204600F03CF920680169C943FD
:10116000090609D4C168C943090605D46FF0800196
:1011700001612046FFF75EFE20680169C943490608
:1011800009D4C168C943490605D46FF04001016123
:10119000204600F01FF920680169C94389060BD475
:1011A000C168C943890607D46FF020010161204658
:1011B000BDE87040FFF73FBE70BD000010B586B0BF
:1011C000044614216846FFF733F82368214C0021B8
:1011D00021480222A34211D1036843F010030360A7
:1011E0000068CDE9021200F0100005901002CDE970
:1011F0000002012004906946184812E0184CA342EE
:1012000013D1036843F0040303600068CDE90212C0
:1012100000F0040005904020CDE900026946114825
:101220000492FFF791F806B010BD0F4CA342FAD11B
:10123000036843F0080303600068CDE9021200F080
:1012400008000590A014CDE9000269460748049201
:10125000E7E7000000000140303802400010024083
:10126000000400400008024000080040000C02405A
:10127000704770B5044690F83C000D4601280DD02B
:10128000012684F83C60022084F83D0042B1042A23
:1012900018D0082A2AD00C2A4DD139E0022070BD7E
:1012A000206800F08BFC2068816941F008018161B1
:1012B0002068816921F004018161206881692A69BF
:1012C000114311E0206800F0A9FC2068816941F415
:1012D000006181612068816921F4806181612068F9
:1012E00081692A6941EA0221816124E0206800F0D5
:1012F000CBFC2068C16941F00801C1612068C16967
:1013000021F00401C1612068C1692A69114311E01B
:10131000206800F0EDFC2068C16941F40061C16102
:101320002068C16921F48061C1612068C1692A69AE
:1013300041EA0221C16184F83D60002084F83C004C
:1013400070BD10B5040003D094F83D0010B107E063
:10135000012010BD002084F83C00204600F00CF86D
:10136000022084F83D00211D206800F0B1FB01201F
:1013700084F83D00002010BD08B50068114988427E
:1013800009D11148016841F001010160006800F0D5
:101390000100009008BD0D498842FBD10A48001F9A
:1013A000016841F0020101600068002200F00200C3
:1013B000009011461D20FFF717F9BDE808401D20D9
:1013C000FFF704B900000140443802400004004027
:1013D000704770477047704770B5026804461068E0
:1013E000D168536910F00F0F52D003F0010501F4DA
:1013F00090762E435FD0C20705D0CA0503D5E26BB5
:1014000042F00102E263420705D5DA0703D0E26B3E
:1014100042F00202E263820705D5DA0703D0E26BED
:1014200042F00402E263020707D501F020022A43DA
:1014300003D0E26B42F00802E263E26B002A33D091
:10144000800604D5880602D5204600F0B2FC20684C
:101450004069E16BC0F38010090700D428B320462F
:1014600000F099FC2068416949061AD5416921F0CC
:1014700040014161606BA0B11B490165606BFEF7E3
:1014800051FF002810D0606B016DBDE87040084727
:10149000830610D58B060ED52046BDE8704000F0BF
:1014A00088BC2046FFF797FF70BD2046FFF793FFEB
:1014B0000020E06370BD030606D50B0604D5204668
:1014C000BDE8704000F054BD4006F3D54806F1D5A4
:1014D000D168204621F04001D160202184F83910E4
:1014E00000F0C8F870BD0000871D000870B504004A
:1014F00004D094F83900002510B106E0012070BD39
:1015000084F83850204600F023F8242084F839006D
:101510002068C16821F40051C160204600F094FCAD
:101520002068016921F4904101612068416921F03E
:101530002A0141612068C16841F40051C160E5633E
:10154000202084F8390084F83A00002070BD0000A3
:1015500010B586B0044614216846FEF769FE1349AB
:101560002068884220D112480021026842F010020F
:101570000260006800F0100005900D481438026801
:1015800042F002020260006800F002000590C020F4
:1015900000900220CDE90101032003900720049070
:1015A00069460448FEF7D0FE06B010BD00100140A9
:1015B000443802400004024070472DE9F8430446D5
:1015C00090F839001F4616460D46202850D1B5B177
:1015D000AEB194F8380001284AD0012084F83800D0
:1015E0004FF00008C4F83C80212084F83900FEF751
:1015F0008DFFA6848146E68484F8388026E00120A9
:10160000BDE8F883E08C401EE084A0684B46B0F54E
:10161000805F4FF000024FF080012046009703D01A
:1016200000F0D7FCE8B90DE000F0D3FCC8B9288879
:101630002168C0F308004860206908B16D1C05E00E
:10164000AD1C03E0216815F8010B4860E08C002810
:10165000D8D14B46002240212046009700F0B9FC2B
:1016600008B10320CCE7202084F839000020C7E728
:101670000220C5E77047FEE72DE9F04F87B014213F
:101680006846FEF7D5FD64480024016841F010016A
:101690000160016801F010010591016841F08001CD
:1016A0000160016801F080010591016841F00401C9
:1016B0000160016801F004010591016841F0010138
:1016C0000160016801F001010591016841F002012A
:1016D0000160016801F002010591016841F0080113
:1016E00001600068DFF834A100F0080005900022D6
:1016F00058215046FEF704FFDFF824B140F60448B5
:10170000002241465846FEF7FBFE00224FF680516C
:101710004448FEF7F5FE4FF40047002239464248A0
:10172000FEF7EEFEDFF80491002280214846FEF726
:10173000E7FE7C2002258DE8310069463948FEF736
:1017400003FE41F606408DE8310069464846FEF743
:10175000FBFD01265820CDE90006CDE90246694689
:101760005046FEF7F1FD4FF203008DE83100694667
:101770005846FEF7E9FDCDF80080CDE901646946E1
:1017800058460394FEF7E0FD4FF280500090CDE9FB
:101790000164694623480394FEF7D6FDA802CDE90B
:1017A000000669461F48CDE90245FEF7CDFD4FF41E
:1017B000C640CDE9000469461B480294FEF7C4FD0B
:1017C0000097CDE90164694617480394FEF7BCFD14
:1017D0008020CDE9000669464846CDE90245FEF77E
:1017E000B3FDE8010090CDE90154039469465046E9
:1017F0000494FEF7A9FD009769465046CDE90145DE
:10180000FEF7A2FD03208DE8310069460648FEF789
:101810009BFD07B0BDE8F08F303802400000024069
:101820000004024000100240000C02400008024088
:101830000D480C494FF4007201604FF48271416011
:101840004FF4004181600021C1600161C0E90512CF
:101850002022C0E90721416281620A21C162FFF7AB
:101860003DBA000000300140300000200D480C4916
:101870004FF4007201604FF4827141604FF40041F7
:1018800081600021C1600161C0E905121022C0E938
:101890000721416281620A21C162FFF71FBA00007D
:1018A000003C00408800002010B592B000240F9446
:1018B0001C2108A81094FEF7BBFC20216846FEF707
:1018C000B7FC1A481849C0E900144FF6FF71C0E987
:1018D0000241046144618461FFF733FD0F940FA955
:1018E00012481094FFF7D2FA6020CDE908040A9458
:1018F0000B940C940D94002208A90C480E94FFF749
:10190000B8FC00944FF40050CDE9044002940194D7
:101910000394694605480794FFF78EFA0348FFF7DA
:101920004DFC12B010BD000000000140E00000209E
:1019300010B58AB0002407941C2168460894FEF76D
:1019400077FC11480F49C0E900144FF6FF71C0E958
:10195000024104618461FFF7F4FC079407A90A4877
:101960000894FFF793FA6020CDE900040294002266
:10197000694605480494FFF77CFC0348FFF71EFC0A
:101980000AB010BD000400402001002010B58EB048
:1019900000240794089409940A940B941C21684627
:1019A0000C94FEF745FC1648144901605421C0E927
:1019B00001146421C0E903148461FFF7AFFA4FF406
:1019C0008050079007A90E48FFF7D8FA0C48FFF798
:1019D000B8FC0B940BA90A480C94FFF757FA602047
:1019E000CDE9000402940022694605480494FFF7FB
:1019F00040FC0348FFF7E2FB0EB010BD00080040BA
:101A000060010020FEE7704770477047FEF784BD15
:101A100030B593B030216846FEF70AFC14210CA8BB
:101A2000FEF706FC1E480025016841F08051016068
:101A3000006800F0805011901A48016841F480411C
:101A400001600068022400F480401190032000909F
:101A50004FF4803001900120039010200490800406
:101A6000CDE906400D200890A820CDE90904072003
:101A70000B906846FEF71CFF0CA90F2081E831008F
:101A80004FF4A0500F90E002109005210CA8FEF733
:101A9000DDFD002211461046FEF7C4FE13B030BD36
:101AA00040380240007000400548016841F4700170
:101AB000016003494FF00060803908607047000002
:101AC00088ED00E00148FFF7C5BA000020010020C2
:101AD000F0B50268254C264D264E274F274B4FF078
:101AE000804CA04209D0604507D0A84205D0B04242
:101AF00003D0B84201D0984204D122F0700E4A6857
:101B000042EA0E02A0421BD0604519D0A84217D06D
:101B1000B04215D0B84213D0984211D0184DA84207
:101B20000ED0184DA8420BD0174DA84208D0174D23
:101B3000A84205D0164DA84202D0164DA84203D1A6
:101B400022F44075CA682A434D6922F080022A4374
:101B500002608A68C2620A688262A04201D098422A
:101B600001D10969016301214161F0BD000001401B
:101B70000004004000080040000C00400004014048
:101B8000004001400044014000480140001800406E
:101B9000001C00400020004010B5846842EA032287
:101BA00024F47F440A432243826010BD826822F0FD
:101BB00070020A4342F0070181607047F0B5026A83
:101BC00022F001020262036A42688469124E24F024
:101BD00073050C682C4323F002058B682B430D4DD5
:101BE000A84201D0B04205D123F00807CB683B439F
:101BF00023F00403A84201D0B04205D14D6922F47C
:101C0000407215438A692A4342608461496841638E
:101C10000362F0BD0000014000040140F0B5026A1B
:101C200022F010020262026A436884690D6824F49B
:101C3000E64444EA05248D6822F0200242EA0512B7
:101C40000F4D104EA84201D0B04206D1CF6822F00D
:101C5000800242EA071222F04002A84201D0B042BC
:101C600007D14D6923F4406343EA85038D6943EA54
:101C7000850343608461496881630262F0BD0000AE
:101C80000000014000040140F0B5026A22F48072B5
:101C90000262026A4368C46922F4007224F0730588
:101CA0000C68124E2C438D6842EA05220E4DA84264
:101CB00001D0B04206D1CF6822F4006242EA072286
:101CC00022F48062A84201D0B04207D14D6923F4CA
:101CD000405343EA05138D6943EA05134360C46129
:101CE0004968C1630262F0BD000001400004014088
:101CF00030B5026A22F480520262046A4268C36903
:101D00000D6823F4E64343EA05238D6824F4005468
:101D100044EA0534084DA84202D0084DA84204D137
:101D20004D6922F4804242EA85124260C3614968EB
:101D30000164046230BD0000000001400004014065
:101D400010B5036A046A24F001040462846924F073
:101D5000F00444EA021423F00A020A438461026296
:101D600010BD10B5036A23F0100303628369046A8F
:101D700023F4704343EA023224F0A00343EA011142
:101D80008261016210BD10B5806B0021C185C184E4
:101D9000FFF721FB10BD0168CA6822F49072CA6087
:101DA00001684A6922F001024A61202180F83A1054
:101DB000704710B590F83A10222901D0022010BDCA
:101DC0008168B1F5805F11D00169002901681FD0D9
:101DD000496801F07F03816A4A1C82620B70C18DE1
:101DE000491E0904090CC18518D02BE00269816ADB
:101DF000002A0268526805D0D2B20A80816A491C62
:101E00008162ECE7C2F308020A80816A891CF7E765
:101E10004A68816A4B1C83620A70E0E70168CA68FD
:101E200022F02002CA600168CA6822F48072CA6087
:101E300001684A6922F001024A61202180F83A10C3
:101E4000FFF7BAFB002010BD2DE9F0410446006801
:101E50000169E26821F44051114301612169A068E0
:101E6000E26908436169114308432168CA6849F27D
:101E70000C639A430243CA6020684169A26921F455
:101E8000407111434161E069192764253226B0F59C
:101E9000004F354A354920684FF0000806D0884287
:101EA00001D0904236D1FEF77BFC35E0884201D06C
:101EB000904202D1FEF774FC01E0FEF761FC61681C
:101EC0004A18A0FB070148EB0803FEF779F9014621
:101ED000B0FBF5F00201B1FBF5F06FF018035843C9
:101EE00001EB800006EBC000B0FBF5F000F0F8005D
:101EF00002EB4002B1FBF5F0584301EB800006EB2A
:101F0000C000B0FBF5F000F00700216810448860C5
:101F1000BDE8F081FEF734FC61688B0F8A00A0FBFE
:101F20000701FEF74DF90146B0FBF5F06FF018021E
:101F3000504301EB800006EB0010B0FBF5F000F021
:101F4000F002B1FBF5F002EB0012B1FBF5F06FF01F
:101F50001803584301EB800006EB0010B0FBF5F0CE
:101F600000F00F00D1E70000001401400010014014
:101F700090F83910212901D0022070478168B1F50D
:101F8000805F016A0BD04A1C0262026809785160C6
:101F9000C18C491E0904090CC1840ED017E00988C0
:101FA0000268C1F30801516001690029016A02D089
:101FB000491C0162ECE7891CFBE70168CA6822F052
:101FC0008002CA600068C16841F04001C160002021
:101FD00070472DE9F041984617460E460446069D87
:101FE0001DE0681C1BD02DB1FEF790FAA0EB080095
:101FF000A84214D92068C16821F4D071C16020685A
:10200000416921F001014161202084F8390084F800
:102010003A00002084F838000320BDE8F0812068F1
:10202000006836EA000004D00020B842D9D0002071
:10203000F3E70120F9E700000148FFF7CDB9000000
:10204000A0010020FEE700000FB4084B10B504A962
:1020500002AA039800F02CF8044602A9002000F020
:102060003DF9204610BC5DF814FB0000DD2200089D
:102070000907090E002804DB00F1E02080F80014B5
:10208000704700F00F0000F1E02080F8141D704749
:1020900002E008C8121F08C1002AFAD17047704731
:1020A000002001E001C1121F002AFBD1704700008F
:1020B0002DE9FF4F8BB09A460F460446002606E0F6
:1020C00025280BD052460D999047641C761C207829
:1020D0000028F5D10FB03046BDE8F08F0025A946A5
:1020E00001227D4900E0054314F8013F203B02FA3C
:1020F00003F00842F7D120782E2817D114F8010FE9
:1021000045F004052A280ED06FF02F022078A0F1A8
:10211000300109290AD809EB890102EB410100EBE2
:102120000109641CF2E757F8049B641C20786C28B2
:102130000DD004DC4C2812D06A2811D104E0742898
:102140000DD07A280CD10AE045F4001507E061783B
:1021500045F48015814202D1641C05F58015641C8C
:10216000207869283ED006DC0028B3D063280BD045
:10217000642804D136E0732810D075285CD052460C
:102180000D999047761CA5E017F8040B8DF8000018
:1021900000208DF80100E846012003E057F8048B89
:1021A0004FF0FF3069074FF0000501D40AE06D1CC5
:1021B0004D450DDA8542FADB18F805100029F6D1F5
:1021C00006E06D1C8542FCDB18F805100029F8D1EB
:1021D0002E4404E018F8010B52460D9990476D1EED
:1021E000F8D277E000200A90C5F302504FF00A0BB6
:1021F00002280CD001CFC117021E71F100020CDAC7
:102200000023D0EB030063EB01012D2208E0FF1D4A
:1022100027F00707F7E80201EEE72A0504D52B228D
:102220008DF82420012203E0EA070FD02022F7E7EF
:102230000DF12008089218E000200A90C5F3025022
:102240004FF00A0B022803D001CF00210022EFE754
:10225000FF1D27F00707F7E80201F7E75A460A9B38
:10226000FDF7AEFF303208F8012D50EA0102F5D13A
:10227000ADEB080000F1200B680701D44FF0010915
:10228000D94502DDA9EB0B0000E0002081460025C6
:1022900006E009A85246405D0D9990476D1C761CDA
:1022A00008988542F5DB04E0302052460D999047AE
:1022B000761CB9F10001A9F10109F5DC05E018F877
:1022C000010B52460D999047761CBBF10001ABF112
:1022D000010BF4DC641CFAE6092801000A68531CAF
:1022E0000B6010707047000070B5FEF71DF9FFF726
:1022F0008FFBFFF7C1F91D491B4808600846FEF730
:10230000BFFCFFF795FAFFF7CFFAFFF711FBFFF7D6
:102310003DFB18481649002401604FF4E131C0E943
:1023200001140C21C460C0E904418461C461FFF759
:10233000DDF8FFF79BFA002211462520FEF754F93D
:102340002520FEF743F90CA0FDF7B8FF00250D4E40
:10235000FDF7C6FFC6E900046D1C642DF8DB0AA07A
:10236000FDF7ACFF002070BD0008065020000020E3
:1023700000100140A00100203A5354415254200A59
:1023800000000000000000203A454E44000000001C
:102390000000000000000000010203040607080915
:1023A0000000000001020304C82300080000002010
:1023B0002000000090200008E823000820000020F2
:1023C000F8050000A0200008000000000000000048
:1023D00000000000000000000100000010000000EC
:0823E000000000000024F400DD
:040000050800018965
:00000001FF
