:020000040800F2
:1000000000000120C10E0008F1050008F3050008FA
:10001000F5050008F7050008F905000800000000D4
:10002000000000000000000000000000FB050008C8
:10003000FD05000800000000FF050008010600089B
:10004000090F0008090F0008090F0008090F000830
:10005000090F0008090F0008090F0008090F000820
:10006000090F0008090F0008090F0008090F000810
:10007000090F0008090F0008090F0008090F000800
:10008000090F0008090F0008090F0008090F0008F0
:10009000090F0008090F0008090F0008090F0008E0
:1000A000090F0008090F0008090F0008090F0008D0
:1000B000090F0008090F0008090F0008090F0008C0
:1000C000090F0008090F0008090F0008090F0008B0
:1000D000090F0008090F0008090F0008090F0008A0
:1000E000090F0008090F0008090F000800000000B0
:1000F0000000000000000000000000000000000000
:100100000000000000000000090F0008090F0008AF
:10011000090F0008090F0008090F0008090F00085F
:10012000090F0008090F0008090F0008090F00084F
:10013000090F0008090F0008090F0008090F00083F
:10014000090F0008090F0008090F0008090F00082F
:10015000000000000000000000000000000000009F
:10016000000000000000000000000000000000008F
:10017000000000000000000000000000000000007F
:10018000000000000000000000000000000000006F
:10019000000000000000000000000000000000005F
:1001A000000000000000000000000000000000004F
:1001B000000000000000000000000000000000003F
:1001C000000000000000000000000000000000002F
:1001D000000000000000000000000000000000001F
:0401E0005FF8E0F1F3
:1001E40010B5054C237833B9044B13B10448AFF36D
:1001F40000800123237010BD0C00002000000000CB
:10020400640F000808B5034B1BB103490348AFF35F
:10021400008008BD0000000010000020640F0008EA
:1002240053B94AB9002908BF00281CBF4FF0FF3159
:100234004FF0FF3000F074B9ADF1080C6DE904CE55
:1002440000F006F8DDF804E0DDE9022304B07047AD
:100254002DE9F0478C460446089E002B4BD18A4278
:10026400154667D9B2FA82F24AB1C2F1200701FAFF
:1002740002F320FA07F7954047EA030C94404FEA4B
:10028400154EBCFBFEF71FFA85F80EFB17C307FBE0
:1002940008F9210C41EA0343994509D9EB1807F100
:1002A400FF3180F01C81994540F21981023F2B44B3
:1002B400A3EB0903B3FBFEF00EFB103300FB08F1C4
:1002C400A4B244EA0344A14209D92C1900F1FF3332
:1002D40080F00781A14240F2048102382C4440EAB4
:1002E40007400027641A1EB10023D440C6E9004326
:1002F4003946BDE8F0878B4209D9002E00F0EC8026
:100304000027C6E9000138463946BDE8F087B3FA4C
:1003140083F7002F48D18B4202D3824200F2FB8044
:10032400841A61EB030301209C46002EE0D0C6E949
:10033400004CDDE702B9FFDEB2FA82F2002A40F097
:100344008F800127491B4FEA15481FFA85F9B1FB35
:10035400F8FE08FB1E1109FB0EF04FEA144C4CEAA0
:100364000143984207D9EB180EF1FF3102D29842AB
:1003740000F2CD808E461B1AB3FBF8F008FB103355
:1003840009FB00F9A4B244EA0344A14507D92C1996
:1003940000F1FF3302D2A14500F2B6801846A4EB67
:1003A400090440EA0E409EE7C7F12005BB4022FA4B
:1003B40005FC4CEA030C21FA05F44FEA1C4EB4FB8D
:1003C400FEF91FFA8CF80EFB194420FA05F3B94024
:1003D40009FB08FA19430B0C43EA0444A24502FA48
:1003E40007F200FA07F30BD91CEB040409F1FF3000
:1003F40080F08880A24540F28580A9F10209644416
:10040400A4EB0A04B4FBFEF00EFB104400FB08FA54
:1004140089B241EA0444A24508D91CEB040400F162
:10042400FF316BD2A24569D90238644440EA0940DD
:10043400A0FB0289A4EB0A044C454146CE4654D3A2
:1004440051D0002E69D05A1A64EB0E0404FA05F553
:1004540022FA07F3FC401D43C6E90054002747E78E
:100464009540C2F1200321FA03F04FEA1548B0FB8E
:10047400F8F71FFA85F908FB170024FA03F39140F3
:1004840007FB09FC0B43190C41EA00418C4504FAB3
:1004940002F407D9691807F1FF3031D28C452FD9FE
:1004A400023F2944A1EB0C01B1FBF8F008FB101C3E
:1004B40000FB09FE99B241EA0C418E4507D969183F
:1004C40000F1FF3318D28E4516D902382944A1EB26
:1004D4000E0140EA07473AE73746304608E70F4639
:1004E400E6E61846FBE64345ABD2B8EB020169EBFE
:1004F4000C0201389646A4E71846E8E7084695E753
:100504000746CFE781467BE702382C4447E7AEF144
:10051400020E2B442FE7384607E73746E8E600BFCC
:10052400704700BF82B0064B9A6942F004029A6198
:100534009B6903F004030193019B02B0704700BF61
:100544000010024070B594B03422002107A800F0D6
:10055400FFFC00240194029403940494059402265D
:10056400069601250B9510230C930E964FF4E01379
:10057400109306A800F002F90F2301930296039446
:1005840004940594294601A800F0E4FB014B1D6086
:1005940014B070BD7000424208B500F059F8FFF77E
:1005A400D1FFFFF7BFFFFEE782B00E4B9A6942F01E
:1005B40001029A619A6902F001020092009ADA69D2
:1005C40042F08052DA61DB6903F080530193019BAE
:1005D400054A536823F0E06343F00073536002B0AC
:1005E400704700BF00100240000001407047FEE762
:1005F400FEE7FEE7FEE770477047704708B500F076
:1006040039F808BD7047000010B504460E4B187841
:100614004FF47A73B3FBF0F30C4A1068B0FBF3F0B9
:1006240000F080F868B90F2C01D901200AE00022FB
:1006340021464FF0FF3000F041F8034B5C6000208E
:1006440000E0012010BD00BF0400002000000020D5
:1006540008B5074A136843F010031360032000F041
:100664001BF80020FFF7D0FFFFF79EFF002008BD16
:1006740000200240034A1168034B1B780B441360AB
:10068400704700BF2800002004000020014B1868B8
:10069400704700BF28000020074AD36823F4E063B2
:1006A4001B041B0C000200F4E060184340F0BF6020
:1006B40040F40030D060704700ED00E030B4174BD8
:1006C400DB68C3F30223C3F10704042C28BF04240A
:1006D4001D1D062D18D9033B4FF0FF3505FA04F410
:1006E40021EA0401994005FA03F322EA03031943BA
:1006F40000280BDB0901C9B200F1604000F561403C
:1007040080F8001330BC70470023E5E700F00F00C9
:100714000901C9B2024B1954F4E700BF00ED00E02F
:1007240014ED00E00138B0F1807F0AD2064B586026
:10073400064AF02182F823100020986007221A60EC
:1007440070470120704700BF10E000E000ED00E0BA
:1007540082B0084B1B68084AA2FB03235B0A00FB18
:1007640003F0019000BF019B5A1E0192002BF9D1A6
:1007740002B0704700000020D34D6210002800F042
:10078400668270B582B00446036813F0010F2CD062
:10079400AB4B5B6803F00C03042B1DD0A84B5B68C8
:1007A40003F00C03082B12D0A368B3F5803F41D0AB
:1007B400002B55D103F1804303F504331A6822F466
:1007C40080321A601A6822F480221A6037E09C4B47
:1007D4005B6813F4803FE7D0994B1B6813F4003F28
:1007E40003D0A368002B00F03482236813F0020FB7
:1007F40076D0934B5B6813F00C0F5FD0904B5B6823
:1008040003F00C03082B54D06369002B00F08A809A
:100814008C4B01221A60FFF739FF0546884B1B6891
:1008240013F0020F75D1FFF731FF401B0228F5D9F1
:10083400032011E2824A136843F480331360A368EF
:1008440043B3FFF723FF05467D4B1B6813F4003FBA
:10085400CBD1FFF71BFF401B6428F5D90320FBE134
:10086400B3F5A02F09D0764B1A6822F480321A60AF
:100874001A6822F480221A60E1E703F18043A3F5A9
:100884003C331A6842F480221A601A6842F48032B7
:100894001A60D4E7FFF7FAFE0546694B1B6813F4A8
:1008A400003FA2D0FFF7F2FE401B6428F5D90320D5
:1008B400D2E1634B5B6813F4803FA5D1604B1B68A6
:1008C40013F0020F04D06369012B01D00120C3E1AE
:1008D4005B4A136823F0F803A16943EAC103136078
:1008E400236813F0080F32D0E369002B5BD0564B1A
:1008F40001221A60FFF7CAFE0546514B5B6A13F0EA
:10090400020F21D1FFF7C2FE401B0228F5D90320B4
:10091400A2E14B4A136823F0F803A16943EAC10337
:100924001360DDE7474B00221A60FFF7AFFE054670
:10093400434B1B6813F0020FD2D0FFF7A7FE401BF6
:100944000228F5D9032087E10120FFF701FF23687E
:1009540013F0040F00F09880394BDB6913F0805FCB
:1009640033D1374BDA6942F08052DA61DB6903F044
:1009740080530193019B0125344B1B6813F4807F42
:1009840025D02369012B36D0002B4CD103F18043B1
:1009940003F504331A6A22F001021A621A6A22F079
:1009A40004021A622CE0284B00221A60FFF76EFE44
:1009B4000546234B5B6A13F0020FC8D0FFF766FEAF
:1009C400401B0228F5D9032046E10025D4E71F4A3D
:1009D400136843F480731360FFF758FE06461B4BFD
:1009E4001B6813F4807FCCD1FFF750FE801B642872
:1009F400F5D9032030E1124A136A43F0010313626C
:100A040023697BB3FFF742FE06460D4B1B6A13F0C6
:100A1400020F38D1FFF73AFE801B41F28833984227
:100A2400F3D9032018E1052B12D0054B1A6A22F0E2
:100A340001021A621A6A22F004021A62E0E700BF95
:100A44000010024000004242800442420070004014
:100A5400844B1A6A42F004021A621A6A42F00102D2
:100A64001A62CDE7FFF712FE06467E4B1B6A13F0AF
:100A7400020F08D0FFF70AFE801B41F28833984228
:100A8400F3D90320E8E0EDB9E36A002B6FD0754A8F
:100A9400526812F4803F05D0724A526802F00C0288
:100AA400082A15D0022B4BD16E4B1B6813F0805FC4
:100AB40015D06C4BDB6A03F0F003626B93420ED0EB
:100AC4000120C9E0674AD36923F08053D361DBE78F
:100AD400644AD26A12F4803FE4D00120BCE0624B45
:100AE40000221A60FFF7D2FD05465E4B1B6813F027
:100AF400006F06D0FFF7CAFD401B6428F5D9032018
:100B0400AAE0584AD36A23F0F003616B0B43D36223
:100B1400D36A23F47063216B0B43D362524B0122DB
:100B24001A60FFF7B3FD05464E4B1B6813F0006FC8
:100B34001DD1FFF7ABFD401B6428F5D903208BE0E2
:100B4400484AD36A23F48033D362474B00221A60A5
:100B5400FFF79CFD0546434B1B6813F0006F06D05E
:100B6400FFF794FD401B6428F5D9032074E0236A41
:100B7400002B70D03B4A526802F00C02082A54D071
:100B8400022B11D0394B00221A60FFF77FFD044677
:100B9400344B1B6813F0007F45D0FFF777FD001B33
:100BA4000228F5D9032057E0304B00221A60FFF7E2
:100BB4006DFD05462B4B1B6813F0007F06D0FFF735
:100BC40065FD401B0228F5D9032045E0636AB3F5AF
:100BD400803F1AD023494B6823F47413626AA06AD5
:100BE400024313434B60214B01221A60FFF74EFD71
:100BF40004461C4B1B6813F0007F12D1FFF746FD1F
:100C0400001B0228F5D9032026E0164AD36A61683E
:100C14000B43D362D36A23F00F03E1680B43D3621F
:100C2400D8E7002018E0002016E0012B16D00D4B69
:100C34005B6803F48031626A914201D001200BE0C9
:100C440003F47013A26A93420AD0012004E0012045
:100C54007047012000E0002002B070BD0120FBE7D6
:100C64000020F9E70010024068004242600042425E
:100C74002DE9F04F89B0334C04AD94E80F0007C55B
:100C84002B806D46103494E80F0085E80F002E4B3E
:100C94005B6803F00C02082A52D1C3F3834208A90B
:100CA4000A4412F8104C13F4803F43D02649CB6A0F
:100CB40003F00F0308AA134413F8202CCB6A13F48F
:100CC400803F31D0CB6AC3F303130133C86AC0F346
:100CD40003200230A0FB046770017901801B61EBE3
:100CE40007018B464FEA811949EA90694FEA801857
:100CF400B8EB000A69EB0B0B4FEACB0545EA5A75D2
:100D04004FEACA0C1CEB060045EB07014D0245EA0D
:100D1400D055460230462946A3FB0223FFF780FA4A
:100D24000D2C0AD1400808E0084800FB04F0B0FB91
:100D3400F2F0F5E7064800FB04F009B0BDE8F08FD7
:100D44000248FAE7940F00080010024000127A00EB
:100D540000093D00002800F0A38070B50446524B02
:100D64001B6803F007038B420CD24F4A136823F02D
:100D740007030B431360136803F007038B4201D08E
:100D8400012070BD236813F0020F17D013F0040F75
:100D940004D0464A536843F4E0635360236813F075
:100DA400080F04D0414A536843F4605353603F4AE8
:100DB400536823F0F003A068034353600D4623688F
:100DC40013F0010F31D06368012B20D0022B25D002
:100DD400364A126812F0020F64D034494A6822F08D
:100DE400030213434B60FFF751FC06462F4B5B682D
:100DF40003F00C036268B3EB820F16D0FFF746FCD6
:100E0400801B41F288339842F0D90320B9E7274A7E
:100E1400126812F4003FE0D10120B2E7234A1268BD
:100E240012F0007FD9D10120ABE71F4B1B6803F000
:100E34000703AB420CD91C4A136823F007032B4366
:100E44001360136803F00703AB4201D0012098E755
:100E5400236813F0040F06D0144A536823F4E063A4
:100E6400E1680B435360236813F0080F07D00F4A5F
:100E7400536823F46053216943EAC1035360FFF7C5
:100E8400F7FE0A4B5B68C3F30313094AD35CD840EB
:100E9400084B1860084B1868FFF7B6FB002070E792
:100EA4000120704701206CE700200240001002403E
:100EB4007C0F00080000002008000020002103E04F
:100EC4000B4B5B58435004310A480B4B42189A426F
:100ED400F6D30A4A02E0002342F8043B084B9A4244
:100EE400F9D3FFF78FFB00F00FF8FFF755FB7047BE
:100EF400C40F0008000000200C0000200C0000209B
:100F04002C000020FEE7000070B500250C4E0D4CAF
:100F1400A41BA410A54209D100F022F800250A4E12
:100F24000A4CA41BA410A54205D170BD56F8253067
:100F340098470135EEE756F8253098470135F2E732
:100F4400BC0F0008BC0F0008BC0F0008C00F00084D
:100F540003460244934200D1704703F8011BF9E7AA
:100F6400F8B500BFF8BC08BC9E467047F8B500BF92
:080F7400F8BC08BC9E46704762
:100F7C00000000000000000001020304060708093D
:100F8C000000000001020304000004050607080924
:100F9C0000000000000D0000010203040506070814
:080FAC00090A0B0C0D0E0F10D9
:080FB400A0F2FF7F0100000024
:040FBC00090200081E
:040FC000E50100083F
:0C0FC4000024F4000100000010000000F8
:0400000508000EC120
:00000001FF
