:020000040800F2
:10000000780500209D01000833170008C51300087B
:1000100031170008A9020008011C000800000000B8
:10002000000000000000000000000000371700087A
:10003000AB0200080000000035170008391700085F
:10004000B7010008B7010008B7010008B7010008B0
:10005000B7010008B7010008B7010008B7010008A0
:10006000B7010008B7010008B7010008B701000890
:10007000B7010008B7010008B7010008B701000880
:10008000B7010008B7010008B7010008B701000870
:10009000B7010008B7010008B7010008B701000860
:1000A000B7010008B7010008B7010008B701000850
:1000B000B7010008F1170008B7010008B7010008F0
:1000C000B7010008B7010008B7010008B701000830
:1000D000B7010008F51B0008B7010008B7010008C8
:1000E000B7010008B7010008B7010008B701000810
:1000F000B7010008B7010008B7010008B701000800
:10010000B7010008B7010008B7010008B7010008EF
:10011000B7010008B7010008B7010008B7010008DF
:10012000B7010008B7010008B7010008B7010008CF
:10013000B7010008B7010008B7010008B7010008BF
:10014000B7010008B7010008B7010008B7010008AF
:10015000B7010008B7010008B7010008B70100089F
:10016000B7010008B7010008B7010008B70100088F
:10017000B7010008B7010008B7010008000000003F
:10018000B7010008B7010008DFF80CD000F07AF8DA
:1001900000480047411C00087805002006488047B9
:1001A00006480047FEE7FEE7FEE7FEE7FEE7FEE75C
:1001B000FEE7FEE7FEE7FEE7D51700088901000825
:1001C0002DE9F05F0546002092469B46884606468C
:1001D000814640241BE0284641464746224600F01F
:1001E00041F853465A46C01A914110D31146184659
:1001F000224600F028F82D1A67EB01084F462246E8
:100200000120002100F01FF817EB00094E41201ECD
:10021000A4F10104DFDC484631462A464346BDE8E6
:10022000F09FD2B201E000F8012B491EFBD27047CB
:100230000022F6E710B513460A4604461946FFF7B2
:10024000F0FF204610BD202A04DB203A00FA02F11C
:10025000002070479140C2F1200320FA03F31943B4
:1002600090407047202A04DB203A21FA02F0002156
:10027000704721FA02F3D040C2F1200291400843B6
:1002800019467047064C074D06E0E06840F0010350
:1002900094E8070098471034AC42F6D3FFF778FF94
:1002A000B41C0008D41C0008FEE7704790F8351015
:1002B000022903D08021416501207047052180F883
:1002C00035100068016821F00101016000207047CD
:1002D0002DE9F84F00224FF0010803254FF00F0ED3
:1002E0000B6808FA02F42340A3426ED14E68012E37
:1002F00005D0022E03D0112E01D0122E12D1866805
:100300004FEA420C05FA0CF7BE43CF6807FA0CF728
:10031000374387604668A6430C79C4F300149440C1
:1003200034434460C668570005FA07FC8C6826EA27
:100330000C06BC403443C4604C68022C01D0122C23
:1003400013D1D40800EB8404A346D4F820905407BA
:100350004FEAD46A0EFA0AF629EA06090E6906FA85
:100360000AF646EA0906CBF8206006680C7926EA08
:100370000C0604F00304BC40344304604C68E40001
:1003800065D5364C266846F480462660246822F0FF
:10039000030604F480440094314C3444A446D4F859
:1003A00008489607370F0EFA07F6B4432D4EB042B1
:1003B00001D1002624E02C4EB04201D101261FE0DD
:1003C0002A4EB04202D102261AE040E0284EB04246
:1003D00001D1032614E0274EB04201D104260FE0DC
:1003E000254EB04201D105260AE0244EB04201D18B
:1003F000062605E0224EB04201D1072600E008267D
:10040000BE402643CCF808681E4E34684F689C43B3
:10041000FF0300D51C4334601A4C241D26684F6826
:100420009E43BF0300D51E432660164E083634682F
:100430004F689C43FF0200D51C433460114E0C36BC
:1004400034684F689C43BF0200D51C433460521C83
:10045000102AFFF445AFBDE8F88F00004438024091
:100460000030014000000240000402400008024049
:10047000000C02400010024000140240001802402C
:10048000001C0240003C01400AB181617047090430
:10049000FBE7000001488068704700000000002072
:1004A0000248816802781144816070470000002092
:1004B0000B4810B5016841F400710160016841F416
:1004C00080610160016841F480710160032000F0E7
:1004D0006FF8002000F006F800F024F8002010BDAE
:1004E000003C024070B50D4D04464FF47A712878F7
:1004F000B1FBF0F00A490968B1FBF0F000F0CCFB69
:1005000048B9102C07D200222146501E00F030F8C6
:1005100000206C6070BD012070BD00000000002054
:100520000C0000200A4808B5016841F480410160D0
:10053000006800F4804000900548001F016841F009
:1005400080510160006800F08050009008BD0000FC
:1005500044380240002809DB00F01F0201219140CD
:100560004009800000F1E020C0F800117047000051
:10057000F0B40E4B1B680C46C3F30223C3F107050E
:10058000042D00D90425191D072901D2002300E0FC
:10059000DB1E012606FA05F1491E214099409E40C6
:1005A000761E16403143F0BC01F02BBB0CED00E091
:1005B000064900F0070208684FF6FF03184040EABA
:1005C0000220034A10430860704700000CED00E071
:1005D0000000FA052DE9F0470E46050065D0DFF86A
:1005E0001481D8F80000F7B200F00F00B04207D233
:1005F00088F80070D8F8000000F00F00B04254D125
:1006000028683D4C810712D5400703D5206840F487
:10061000E05020602878000703D5206840F460404F
:1006200020602068A96820F0F00008432060287846
:10063000C0072DD0304968680839012812D0022837
:1006400013D0032811D00968890700292DDA216801
:1006500021F0030101432160FFF71CFF814641F2B5
:10066000883A0EE009688903EFE709688901ECE739
:10067000FFF710FFA0EB0901514502D90320BDE8A7
:10068000F0872068696800F00C00B0EB810FEFD1B3
:10069000D8F80010404601F00F01B14207D90770A9
:1006A000006800F00F00B04201D00120E7E7287891
:1006B000400705D52068E96820F4E0500843206031
:1006C0002878000706D52068296920F4604040EAB0
:1006D000C100206000F018F82168084AC1F3031136
:1006E000515CC8400649086006480068FFF7FAFEFA
:1006F0000020C4E7003C024008380240A41C000867
:100700000C00002004000020154810B5006810F00F
:100710000C02144813D01449042A0FD0082A0ED111
:100720000F4C241F2268236802F03F025B0207D5AA
:100730002068C0F38810A0FB010106E0084610BD48
:100740002168C1F38811A1FB00010023FFF738FDE8
:100750002168C1F30141491C4900B0FBF1F010BD13
:10076000083802400024F40080BA8C01F0B51F4C18
:1007700016460D461D4B002102220327283C002867
:10078000186887B019D040F004001860186800F0AD
:100790000400059010020090CDE90121CDE903711C
:1007A00069461348FFF794FD206845EAC60120F02A
:1007B00078400843206007B0F0BD40F001001860A9
:1007C000186800F0010005904FF480700090CDE9AA
:1007D0000121CDE9037169460648FFF779FD2068DC
:1007E000354320F0EC602843E4E700003038024055
:1007F00000080240000002402DE9F84F04006ED0CE
:100800002078DFF83C93C007A9F104054AD009F12C
:1008100004000168C1F38101012908D00068C0F318
:10082000810002280AD1D9F80000400206D52868C4
:10083000800337D560680028E1D033E06068B0F508
:10084000803F10D0B0F5A02F286810D020F4803061
:100850002860286820F4802028606068A8B1FFF72D
:1008600019FE06460DE0286840F48030F4E740F4B5
:1008700080202860F7E700BFFFF70CFE801B64288C
:1008800073D828688003F7D50CE0FFF703FE06460F
:1008900005E000BFFFF7FEFD801B6428F0D8286844
:1008A0008003F7D42078DFF89C8280074FF0000A9D
:1008B0003ED5A348001D016811F00C0F08D0006858
:1008C000C0F3810002280BD1D9F80000400207D400
:1008D0002868800716D5E068012800D112E02BE1D6
:1008E000E068B8B10120C8F80000FFF7D3FD064664
:1008F00005E000BFFFF7CEFD801B0228C0D82868A6
:100900008007F7D52868216920F0F80040EAC10087
:1009100028600DE0C8F800A0FFF7BCFD064604E023
:10092000FFF7B8FD801B02281FD828688007F7D47E
:100930002078000722D5824E83486169703671B1F4
:1009400001210160FFF7A6FD074604E0FFF7A2FDC5
:10095000C01B022809D830688007F7D50EE0C0F820
:1009600000A0FFF797FD074605E082E0FFF792FD44
:10097000C01B02287DD830688007F7D42078400754
:1009800068D5DFF8BCB100270BF13C0BDBF80000A9
:10099000C0000BD4DBF8001041F08051CBF8001000
:1009A000DBF80000012700F080500090674E3068AF
:1009B000C00510D4306840F480703060FFF76AFDE5
:1009C000009005E0FFF766FD0099401A022850D814
:1009D0003068C005F6D55A4EA0686C3601280FD095
:1009E0000528306810D020F001003060306820F019
:1009F00004003060A068B8B1FFF74CFD00900FE034
:100A0000306840F00100F4E740F004003060F7E7A0
:100A1000FFF740FD0099411A41F28830814266D8C3
:100A200030688007F4D50EE0FFF734FD009007E052
:100A3000FFF730FD0099411A41F28830814256D8C3
:100A400030688007F4D42FB1DBF8001021F080511A
:100A5000CBF80010A069C8B33949091D0968C1F372
:100A6000810102294AD00228504607D0C8F8600008
:100A700000E03CE0FFF70EFD04463BE04746C8F8C7
:100A80006000FFF707FD064605E000BFFFF702FD27
:100A9000801B02282BD828688001F7D4D4E90701ED
:100AA0000843A16A2A4A490802EB0141626A41EA05
:100AB0008211084394F82C1040EA0161C9F8001033
:100AC00001203866FFF7E6FC044606E036E000BF8A
:100AD000FFF7E0FC001B022809D828688001F7D541
:100AE0002CE000BFFFF7D6FC001B022802D9032030
:100AF000BDE8F88F28688001F4D41FE00128F7D002
:100B0000D9F80000E26900F48001914214D1226A10
:100B100000F03F0191420FD147F6C071626A014077
:100B2000914209D1A26A00F44031914204D1E16AB4
:100B300000F07060884201D00120D9E70020D7E79B
:100B40000438024000004742800E474200700040D7
:100B50000000FFFF70B5040003D06079002510B1DC
:100B600005E0012070BD2571204600F00DF802203F
:100B700060712068016841F004010160012060712A
:100B8000A560002070BD000008B5006806498842D5
:100B900008D10648016841F040010160006800F09A
:100BA0004000009008BD00000008065034380240A4
:100BB00070B5040005D00025A56294F8510010B16D
:100BC00006E0012070BD84F85050204600F030F857
:100BD000022084F851002068016821F04001016082
:100BE000D4E901010843D4E90312114308436169C0
:100BF0000843218B01F400710843E1690843216A2D
:100C00000843A16A084321680860A069042101EA39
:100C10001040616A0843216848602068C16921F476
:100C20000061C1616565012084F85100002070BD3C
:100C300010B586B0044614216846FFF7F9FA134947
:100C40002068884220D112480021026842F4805274
:100C50000260006800F4805005900D481438026866
:100C600042F001020260006800F001000590A0203F
:100C700000900220CDE9010103200390052004909B
:100C800069460448FFF724FB06B010BD0030014060
:100C9000443802400000024010B5401EB0F1807F91
:100CA00001D3012010BD4FF0E02460610F216017D7
:100CB00000F0A7FF0020A06107202061002010BDE8
:100CC0007047704710B590F83C20012A22D00122CD
:100CD00080F83C20CA688C6822F4407222434C6839
:100CE00022F4806222430C6822F4006222430C69E1
:100CF00022F4805222434C6922F400522243C969F3
:100D0000002322F480420A4301684A6480F83C30A0
:100D1000002010BD022010BD70B590F83C20012AC3
:100D200032D0012480F83C40022280F83D20036844
:100D30005A689D6822F070060A6832435A60134B65
:100D400002689A4214D0B2F1804F11D0104B9A42EF
:100D50000ED0104B9A420BD00F4B9A4208D00F4B3B
:100D60009A4205D00E4B9A4202D00E4B9A4204D1C1
:100D7000496825F080031943916080F83D400021C7
:100D800080F83C10084670BD022070BD0000014094
:100D90000004004000080040000C00400004014036
:100DA000004001400018004010B5040003D094F842
:100DB0003D0010B107E0012010BD002084F83C0088
:100DC000204600F00DF8022084F83D00211D206827
:100DD00000F014FD012084F83D00002010BD00004B
:100DE00008B500680649884208D10648016841F004
:100DF00004010160006800F00400009008BD0000DC
:100E0000000800404038024070B5044690F83C00AD
:100E1000012817D0012584F83C50022084F83D00B9
:100E20002068826822F0770222F47F42826008689C
:100E3000502830D00DDC20284DD005DC98B3102888
:100E40003BD148E0022070BD302844D0402834D146
:100E500039E0602828D0702806D0B0F5805F2CD00B
:100E6000B0F5005F29D10AE0CB68D1E90121206803
:100E700000F035FD2068816841F0770109E0CB681A
:100E8000D1E90121206800F02AFD2068816841F441
:100E90008041816011E0CA684968206800F0F4FD73
:100EA0005021206807E016E0CA684968206800F011
:100EB000FCFD6021206800F01CFD84F83D500020FE
:100EC00084F83C0070BDCA684968206800F0DCFD09
:100ED00040212068EFE7226801461046EBE77047A3
:100EE00070B50446006801694FF00005C9438907E1
:100EF00015D4C168C943890711D4E91E01610120D5
:100F00002077206880698007204602D0FFF7E7FF3E
:100F100004E000F0F3F8204600F0A0F925772068FF
:100F20000169C943490717D4C168C943490713D4A4
:100F30006FF004010161022020772068806910F4BD
:100F4000407F204602D0FFF7CAFF04E000F0D6F849
:100F5000204600F083F9257720680169C943090715
:100F600016D4C168C943090712D46FF008010161A2
:100F7000042020772068C0698007204602D0FFF750
:100F8000AEFF04E000F0BAF8204600F067F92577DC
:100F900020680169C943C90617D4C168C943C90695
:100FA00013D46FF010010161082020772068C06918
:100FB00010F4407F204602D0FFF791FF04E000F0DC
:100FC0009DF8204600F04AF9257720680169C94359
:100FD000C90708D1C168C943C90704D1891E016185
:100FE000204600F05FF920680169C943090609D469
:100FF000C168C943090605D46FF08001016120462C
:10100000FFF75EFE20680169C943490609D4C1683B
:10101000C943490605D46FF040010161204600F044
:1010200042F920680169C94389060BD4C168C943E4
:10103000890607D46FF0200101612046BDE87040A9
:10104000FFF73FBE70BD000010B586B00446142106
:101050006846FFF7EDF82368214C00212148022261
:10106000A34211D1036843F0100303600068CDE987
:10107000021200F0100005901002CDE900020120DC
:1010800004906946184812E0184CA34213D1036833
:1010900043F0040303600068CDE9021200F004008D
:1010A00005904020CDE90002694611480492FFF7FF
:1010B0000FF906B010BD0F4CA342FAD1036843F0FC
:1010C000080303600068CDE9021200F008000590F3
:1010D000A014CDE90002694607480492E7E7000042
:1010E000000001403038024000100240000400407F
:1010F0000008024000080040000C0240704770B534
:10110000044690F83C000D4601280DD0012684F8D5
:101110003C60022084F83D0042B1042A18D0082A1D
:101120002AD00C2A4DD139E0022070BD206800F091
:10113000E9FB2068816941F00801816120688169CB
:1011400021F004018161206881692A69114311E05D
:10115000206800F007FC2068816941F4006181612A
:101160002068816921F480618161206881692A6930
:1011700041EA0221816124E0206800F029FC206816
:10118000C16941F00801C1612068C16921F0040111
:10119000C1612068C1692A69114311E0206800F02B
:1011A0004BFC2068C16941F40061C1612068C169DC
:1011B00021F48061C1612068C1692A6941EA022184
:1011C000C16184F83D60002084F83C0070BD10B51A
:1011D000040003D094F83D0010B107E0012010BDD9
:1011E000002084F83C00204600F00CF8022084F82F
:1011F0003D00211D206800F001FB012084F83D0026
:10120000002010BD08B500681149884209D1114875
:10121000016841F001010160006800F001000090E8
:1012200008BD0D498842FBD10A48001F016841F002
:10123000020101600068002200F0020000901146E7
:101240001D20FFF795F9BDE808401D20FFF782B982
:101250000000014044380240000400407047000094
:1012600010B504460068012200F02CFB0B492068F1
:10127000884202D00A49884203D1416C41F40041BE
:1012800041642068816801F00701062903D00168E4
:1012900041F001010160002010BD0000000001408C
:1012A00000040140704770477047000070B5026845
:1012B00004461068D168536910F00F0F52D003F044
:1012C000010501F490762E435FD0C20705D0CA0510
:1012D00003D5E26B42F00102E263420705D5DA076B
:1012E00003D0E26B42F00202E263820705D5DA071F
:1012F00003D0E26B42F00402E263020707D501F07B
:1013000020022A4303D0E26B42F00802E263E26B60
:10131000002A33D0800604D5880602D5204600F086
:10132000ECFB20684069E16BC0F38010090700D432
:1013300028B3204600F0D3FB2068416949061AD53E
:10134000416921F040014161606BA0B11B49016519
:10135000606BFEF7ABFF002810D0606B016DBDE83D
:1013600070400847830610D58B060ED52046BDE891
:10137000704000F0C2BB2046FFF796FF70BD2046CC
:10138000FFF792FF0020E06370BD030606D50B0651
:1013900004D52046BDE8704000F0FABB4006F3D506
:1013A0004806F1D5D168204621F04001D1602021C6
:1013B00084F8391000F005F870BD0000CF1A00085D
:1013C00070477047FEE700002DE9F04F87B0142109
:1013D0006846FEF72DFF69480024016841F01001BE
:1013E0000160016801F010010591016841F0800180
:1013F0000160016801F080010591016841F004017C
:101400000160016801F004010591016841F00101EA
:101410000160016801F001010591016841F00201DC
:101420000160016801F002010591016841F00801C5
:1014300001600068DFF848A100F008000590002274
:1014400058215046FFF720F8DFF8389140F604485D
:10145000002241464846FFF717F8DFF82CB100227A
:101460004FF680515846FFF70FF84FF4004700221F
:1014700039464648FFF708F8002280214448FFF724
:1014800003F87C2002258DE8310069465846FEF7B6
:101490001FFF0620CDE9000469463D480294FEF78F
:1014A00017FF01265820CDE90006CDE9024669461E
:1014B0005046FEF70DFF4FF20300CDE900046946E8
:1014C00048460294FEF704FFCDF80080CDE90164A0
:1014D000694648460394FEF7FBFE4FF280500090A9
:1014E000CDE90164694658460394FEF7F1FEA8026F
:1014F000CDE9000669465846CDE90245FEF7E8FE0B
:101500004FF4C640CDE90004694620480294FEF736
:10151000DFFE0097CDE9016469461C480394FEF79D
:10152000D7FE8020CDE9000669461948CDE902457D
:10153000FEF7CEFEE8010090CDE901540394694620
:1015400050460494FEF7C4FE009769465046CDE924
:101550000145FEF7BDFE4FF4E0508DE831006946CD
:101560000B48FEF7B5FE03208DE8310069460748B9
:10157000FEF7AEFE07B0BDE8F08F00003038024045
:10158000000002400004024000100240000C024033
:10159000000802400D480C494FF4007201604FF4FE
:1015A000827141604FF4004181600021C16001619E
:1015B000C0E905122022C0E90721416281620A21A7
:1015C000C162FFF7F5BA00000030014020000020A2
:1015D00010B592B000240F941C2108A81094FEF7B7
:1015E00027FE20216846FEF723FE1A481849C0E965
:1015F00000144FF6FF71C0E9024104614461846147
:10160000FFF7E5FD0F940FA912481094FFF784FB34
:101610006020CDE908040A940B940C940D940022E8
:1016200008A90C480E94FFF76AFD00944FF400508F
:10163000CDE9044002940194039469460548079457
:10164000FFF740FB0348FFF7FFFC12B010BD00009E
:10165000000001407800002010B58AB000240794F3
:101660001C2168460894FEF7E3FD11480F49C0E9C4
:1016700000144FF6FF71C0E9024104618461FFF775
:10168000A6FD079407A90A480894FFF745FB6020C8
:10169000CDE9000402940022694605480494FFF74E
:1016A0002EFD0348FFF7D0FC0AB010BD0004004037
:1016B000B800002010B58EB0002407940894099457
:1016C0000A940B941C2168460C94FEF7B1FD174850
:1016D0001549016040F20E71C0E901144FF47A71AE
:1016E000C0E903148461FFF75FFB4FF4805007905B
:1016F00007A90E48FFF788FB0C48FFF768FD0B941D
:101700000BA90A480C94FFF707FB6020CDE9000401
:1017100002940022694605480494FFF7F0FC034850
:10172000FFF792FC0EB010BD00080040F80000204A
:10173000FEE7704770477047FEF7B2BE30B593B012
:1017400030216846FEF774FD14210CA8FEF770FDE9
:101750001E480025016841F080510160006800F0DA
:10176000805011901A48016841F48041016000687E
:10177000022400F480401190032000904FF4803048
:10178000019001200390102004908004CDE90640D0
:101790000D200890A820CDE9090407200B90684689
:1017A000FFF72AF80CA90F2081E831004FF4A05070
:1017B0000F90E002109005210CA8FEF70BFF00220D
:1017C00011461046FEF7D2FF13B030BD403802403C
:1017D000007000400548016841F470010160034950
:1017E0004FF00060803908607047000088ED00E02D
:1017F0000148FFF775BB0000B8000020F0B5026893
:10180000254C264D264E274F274B4FF0804CA042AB
:1018100009D0604507D0A84205D0B04203D0B842F5
:1018200001D0984204D122F0700E4A6842EA0E02BA
:10183000A0421BD0604519D0A84217D0B04215D0A5
:10184000B84213D0984211D0184DA8420ED0184D6E
:10185000A8420BD0174DA84208D0174DA84205D07A
:10186000164DA84202D0164DA84203D122F440756D
:10187000CA682A434D6922F080022A4302608A68BE
:10188000C2620A688262A04201D0984201D109690D
:10189000016301214161F0BD0000014000040040EE
:1018A00000080040000C00400004014000400140DE
:1018B000004401400048014000180040001C004066
:1018C0000020004010B501F01F030121046A994077
:1018D0008C430462016A9A401143016210BD10B545
:1018E000846842EA032224F47F440A43224382604C
:1018F00010BD826822F070020A4342F00701816045
:1019000070470000F0B5026A22F001020262036A29
:1019100042688469124E24F073050C682C4323F04E
:1019200002058B682B430D4DA84201D0B04205D172
:1019300023F00807CB683B4323F00403A84201D0FF
:10194000B04205D14D6922F4407215438A692A4399
:1019500042608461496841630362F0BD0000014058
:1019600000040140F0B5026A22F010020262026A2D
:10197000436884690D6824F4E64444EA05248D68CC
:1019800022F0200242EA05120F4D104EA84201D06B
:10199000B04206D1CF6822F0800242EA071222F05C
:1019A0004002A84201D0B04207D14D6923F4406300
:1019B00043EA85038D6943EA85034360846149688E
:1019C00081630262F0BD000000000140000401409C
:1019D000F0B5026A22F480720262026A4368C46946
:1019E00022F4007224F073050C68124E2C438D68AB
:1019F00042EA05220E4DA84201D0B04206D1CF687E
:101A000022F4006242EA072222F48062A84201D056
:101A1000B04207D14D6923F4405343EA05138D6961
:101A200043EA05134360C4614968C1630262F0BDC3
:101A3000000001400004014030B5026A22F48052E7
:101A40000262046A4268C3690D6823F4E64343EA0C
:101A500005238D6824F4005444EA0534084DA84257
:101A600002D0084DA84204D14D6922F4804242EAD6
:101A700085124260C36149680164046230BD0000A0
:101A8000000001400004014010B5036A046A24F01C
:101A900001040462846924F0F00444EA021423F08F
:101AA0000A020A438461026210BD10B5036A23F082
:101AB000100303628369046A23F4704343EA023229
:101AC00024F0A00343EA01118261016210BD10B548
:101AD000806B0021C185C184FFF7E6FB10BD016862
:101AE000CA6822F49072CA6001684A6922F0010251
:101AF0004A61202180F83A10704710B590F83A10EA
:101B0000222901D0022010BD8168B1F5805F11D07B
:101B10000169002901681FD0496801F07F03816ACB
:101B20004A1C82620B70C18D491E0904090CC185D3
:101B300018D02BE00269816A002A0268526805D039
:101B4000D2B20A80816A491C8162ECE7C2F30802C2
:101B50000A80816A891CF7E74A68816A4B1C8362A4
:101B60000A70E0E70168CA6822F02002CA600168D2
:101B7000CA6822F48072CA6001684A6922F00102D0
:101B80004A61202180F83A10FFF71AFC002010BDAE
:101B900090F83910212901D0022070478168B1F5F1
:101BA000805F016A0BD04A1C0262026809785160AA
:101BB000C18C491E0904090CC1840ED017E00988A4
:101BC0000268C1F30801516001690029016A02D06D
:101BD000491C0162ECE7891CFBE70168CA6822F036
:101BE0008002CA600068C16841F04001C160002005
:101BF000704700000148FFF759BB00003801002082
:101C0000FEE70907090E002804DB00F1E02080F858
:101C10000014704700F00F0000F1E02080F8141D60
:101C2000704702E008C8121F08C1002AFAD17047A5
:101C30007047002001E001C1121F002AFBD170474C
:101C4000FEF736FCFFF77AFDFFF7BEFB134912489B
:101C500008600846FEF77EFFFFF79CFCFFF7B8FC24
:101C6000FFF7FAFCFFF726FD002211462520FEF7BC
:101C70007FFC2520FEF76EFC002240210848FEF77D
:101C800003FC06495520E8310968486303480021F0
:101C9000E830FFF7E5FAFEE70008065010000020E4
:101CA00000040240000000000000000001020304E4
:101CB00006070809D41C00080000002010000000DE
:101CC000221C0008E41C0008100000206805000029
:101CD000321C00080100000010000000000000009D
:041CE0000024F400E8
:040000050800018965
:00000001FF
