:020000040800F2
:10000000500700209D010008C7160008551300087E
:10001000C5160008FF020008711F0008000000005C
:10002000000000000000000000000000A51900080A
:100030000103000800000000C9160008A719000805
:10004000B7010008B7010008B7010008B7010008B0
:10005000B7010008B7010008B7010008B7010008A0
:10006000B7010008B7010008B7010008B701000890
:10007000B7010008B7010008B7010008B701000880
:10008000B7010008B7010008B7010008B701000870
:10009000B7010008B7010008B7010008B701000860
:1000A000B7010008B7010008B7010008B701000850
:1000B000B7010008B7010008B7010008B701000840
:1000C000B7010008B7010008B7010008B701000830
:1000D000B7010008651F0008B7010008B701000854
:1000E000B7010008B7010008B7010008B701000810
:1000F000B7010008B7010008B7010008B701000800
:10010000B7010008B7010008B7010008B7010008EF
:10011000B7010008B7010008B7010008B7010008DF
:10012000B7010008B7010008B7010008B7010008CF
:10013000B7010008B7010008B7010008B7010008BF
:10014000B7010008B7010008B7010008B7010008AF
:10015000B7010008B7010008B7010008B70100089F
:10016000B7010008B7010008B7010008B70100088F
:10017000B7010008B7010008B7010008000000003F
:10018000B7010008B7010008DFF80CD000F07AF8DA
:1001900000480047B11F000850070020064880476C
:1001A00006480047FEE7FEE7FEE7FEE7FEE7FEE75C
:1001B000FEE7FEE7FEE7FEE7451A000889010008B2
:1001C0002DE9F05F0546002092469B46884606468C
:1001D000814640241BE0284641464746224600F01F
:1001E00041F853465A46C01A914110D31146184659
:1001F000224600F028F82D1A67EB01084F462246E8
:100200000120002100F01FF817EB00094E41201ECD
:10021000A4F10104DFDC484631462A464346BDE8E6
:10022000F09FD2B201E000F8012B491EFBD27047CB
:100230000022F6E710B513460A4604461946FFF7B2
:10024000F0FF204610BD202A04DB203A00FA02F11C
:10025000002070479140C2F1200320FA03F31943B4
:1002600090407047202A04DB203A21FA02F0002156
:10027000704721FA02F3D040C2F1200291400843B6
:1002800019467047064C074D06E0E06840F0010350
:1002900094E8070098471034AC42F6D3FFF778FF94
:1002A000C0200008E020000870B58C1810F8015B31
:1002B00015F0070301D110F8013B2A1106D110F8FF
:1002C000012B03E010F8016B01F8016B5B1EF9D103
:1002D0002B0705D40023521E0DD401F8013BFAE789
:1002E00010F8013BCB1A921C03E013F8015B01F8F4
:1002F000015B521EF9D5A142D8D3002070BDFEE7A4
:10030000704790F83510022903D080214165012003
:100310007047052180F835100068016821F001015F
:1003200001600020704700002DE9F84F00224FF0D7
:10033000010803254FF00F0E0B6808FA02F4234062
:10034000A3426ED14E68012E05D0022E03D0112E8D
:1003500001D0122E12D186684FEA420C05FA0CF732
:10036000BE43CF6807FA0CF7374387604668A64359
:100370000C79C4F30014944034434460C6685700B9
:1003800005FA07FC8C6826EA0C06BC403443C460BE
:100390004C68022C01D0122C13D1D40800EB840439
:1003A000A346D4F8209054074FEAD46A0EFA0AF60E
:1003B00029EA06090E6906FA0AF646EA0906CBF8A2
:1003C000206006680C7926EA0C0604F00304BC40A1
:1003D000344304604C68E40065D5364C266846F426
:1003E00080462660246822F0030604F480440094CA
:1003F000314C3444A446D4F808489607370F0EFA17
:1004000007F6B4432D4EB04201D1002624E02C4E15
:10041000B04201D101261FE02A4EB04202D102268D
:100420001AE040E0284EB04201D1032614E0274EE6
:10043000B04201D104260FE0254EB04201D105267D
:100440000AE0244EB04201D1062605E0224EB04219
:1004500001D1072600E00826BE402643CCF80868F4
:100460001E4E34684F689C43FF0300D51C43346024
:100470001A4C241D26684F689E43BF0300D51E43B7
:100480002660164E083634684F689C43FF0200D53C
:100490001C433460114E0C3634684F689C43BF02D5
:1004A00000D51C433460521C102AFFF445AFBDE850
:1004B000F88F000044380240003001400000024044
:1004C0000004024000080240000C024000100240FC
:1004D0000014024000180240001C0240003C014091
:1004E0000AB1816170470904FBE700000148806898
:1004F00070470000C0010020024881680278114462
:1005000081607047C00100200B4810B5016841F4BC
:1005100000710160016841F480610160016841F48B
:1005200080710160032000F06FF8002000F006F8F1
:1005300000F024F8002010BD003C024070B50D4DC5
:1005400004464FF47A712878B1FBF0F00A49096843
:10055000B1FBF0F000F010FC48B9102C07D20022DB
:100560002146501E00F030F800206C6070BD012064
:1005700070BD0000C0010020CC0100200A4808B571
:10058000016841F480410160006800F480400090FF
:100590000548001F016841F080510160006800F0CB
:1005A0008050009008BD000044380240002809DB5C
:1005B00000F01F02012191404009800000F1E0207D
:1005C000C0F8001170470000F0B40E4B1B680C46D9
:1005D000C3F30223C3F10705042D00D90425191D17
:1005E000072901D2002300E0DB1E012606FA05F1EF
:1005F000491E214099409E40761E16403143F0BC72
:1006000001F0B7BC0CED00E0064900F007020868F5
:100610004FF6FF03184040EA0220034A10430860E7
:10062000704700000CED00E00000FA052DE9F047EE
:100630000E46050065D0DFF81481D8F80000F7B247
:1006400000F00F00B04207D288F80070D8F8000020
:1006500000F00F00B04254D128683D4C810712D5FC
:10066000400703D5206840F4E05020602878000758
:1006700003D5206840F4604020602068A96820F01D
:10068000F000084320602878C0072DD03049686802
:100690000839012812D0022813D0032811D0096884
:1006A000890700292DDA216821F003010143216027
:1006B000FFF71CFF814641F2883A0EE00968890382
:1006C000EFE709688901ECE7FFF710FFA0EB0901EC
:1006D000514502D90320BDE8F0872068696800F021
:1006E0000C00B0EB810FEFD1D8F80010404601F0BC
:1006F0000F01B14207D90770006800F00F00B04247
:1007000001D00120E7E72878400705D52068E9688F
:1007100020F4E050084320602878000706D52068C0
:10072000296920F4604040EAC100206000F038F8F8
:100730002168084AC1F30311515CC84006490860AA
:1007400006480068FFF7FAFE0020C4E7003C0240BC
:1007500008380240A8200008CC010020C401002075
:100760000448054900680968044AC1F38221515CC4
:10077000C8407047CC01002008380240B82000086B
:100780000448054900680968044AC1F34231515CD4
:10079000C8407047CC01002008380240B82000084B
:1007A000154810B5006810F00C02144813D0144915
:1007B000042A0FD0082A0ED10F4C241F2268236868
:1007C00002F03F025B0207D52068C0F38810A0FB4F
:1007D000010106E0084610BD2168C1F38811A1FBA4
:1007E00000010023FFF7ECFC2168C1F30141491C23
:1007F0004900B0FBF1F010BD083802400024F400BD
:1008000080BA8C01F0B51F4C16460D461D4B0021D9
:1008100002220327283C0028186887B019D040F02E
:1008200004001860186800F00400059010020090A1
:10083000CDE90121CDE9037169461348FFF774FD45
:10084000206845EAC60120F078400843206007B0E0
:10085000F0BD40F001001860186800F0010005903C
:100860004FF480700090CDE90121CDE90371694614
:100870000648FFF759FD2068354320F0EC60284317
:10088000E4E7000030380240000802400000024067
:100890002DE9F84F04006ED02078DFF83C93C007B4
:1008A000A9F104054AD009F104000168C1F38101EE
:1008B000012908D00068C0F3810002280AD1D9F8C4
:1008C0000000400206D52868800337D560680028FC
:1008D000E1D033E06068B0F5803F10D0B0F5A02FD4
:1008E000286810D020F480302860286820F4802008
:1008F00028606068A8B1FFF7F9FD06460DE028689A
:1009000040F48030F4E740F480202860F7E700BF2F
:10091000FFF7ECFD801B642873D828688003F7D5A7
:100920000CE0FFF7E3FD064605E000BFFFF7DEFD44
:10093000801B6428F0D828688003F7D42078DFF87B
:100940009C8280074FF0000A3ED5A348001D016835
:1009500011F00C0F08D00068C0F3810002280BD101
:10096000D9F80000400207D42868800716D5E0684F
:10097000012800D112E02BE1E068B8B10120C8F8ED
:100980000000FFF7B3FD064605E000BFFFF7AEFD30
:10099000801B0228C0D828688007F7D528682169FD
:1009A00020F0F80040EAC10028600DE0C8F800A07F
:1009B000FFF79CFD064604E0FFF798FD801B022828
:1009C0001FD828688007F7D42078000722D5824EE8
:1009D00083486169703671B101210160FFF786FDBE
:1009E000074604E0FFF782FDC01B022809D83068E3
:1009F0008007F7D50EE0C0F800A0FFF777FD0746A7
:100A000005E082E0FFF772FDC01B02287DD8306848
:100A10008007F7D42078400768D5DFF8BCB10027FD
:100A20000BF13C0BDBF80000C0000BD4DBF800102E
:100A300041F08051CBF80010DBF80000012700F0F6
:100A400080500090674E3068C00510D4306840F484
:100A500080703060FFF74AFD009005E0FFF746FD2B
:100A60000099401A022850D83068C005F6D55A4E71
:100A7000A0686C3601280FD00528306810D020F00F
:100A800001003060306820F004003060A068B8B128
:100A9000FFF72CFD00900FE0306840F00100F4E714
:100AA00040F004003060F7E7FFF720FD0099411A9D
:100AB00041F28830814266D830688007F4D50EE074
:100AC000FFF714FD009007E0FFF710FD0099411AB1
:100AD00041F28830814256D830688007F4D42FB173
:100AE000DBF8001021F08051CBF80010A069C8B3EA
:100AF0003949091D0968C1F3810102294AD0022838
:100B0000504607D0C8F8600000E03CE0FFF7EEFC7C
:100B100004463BE04746C8F86000FFF7E7FC06469E
:100B200005E000BFFFF7E2FC801B02282BD82868F5
:100B30008001F7D4D4E907010843A16A2A4A490889
:100B400002EB0141626A41EA8211084394F82C10D9
:100B500040EA0161C9F8001001203866FFF7C6FCC1
:100B6000044606E036E000BFFFF7C0FC001B022889
:100B700009D828688001F7D52CE000BFFFF7B6FC44
:100B8000001B022802D90320BDE8F88F28688001E5
:100B9000F4D41FE00128F7D0D9F80000E26900F48E
:100BA0008001914214D1226A00F03F0191420FD19D
:100BB00047F6C071626A0140914209D1A26A00F40D
:100BC0004031914204D1E16A00F07060884201D066
:100BD0000120D9E70020D7E704380240000047424F
:100BE000800E4742007000400000FFFF70B5040017
:100BF00003D06079002510B105E0012070BD25719A
:100C0000204600F00DF8022060712068016841F074
:100C10000401016001206071A560002070BD00002A
:100C200008B500680649884208D10648016841F0C5
:100C300040010160006800F04000009008BD000025
:100C4000000806503438024070B5040005D0002575
:100C5000A56294F8510010B106E0012070BD84F83F
:100C60005050204600F030F8022084F851002068EF
:100C7000016821F040010160D4E901010843D4E991
:100C800003121143084361690843218B01F4007189
:100C90000843E1690843216A0843A16A08432168BF
:100CA0000860A069042101EA1040616A08432168D4
:100CB00048602068C16921F40061C1616565012057
:100CC00084F85100002070BD30B587B0044614216F
:100CD0006846FFF7ADFA234D22680021224802231F
:100CE0000324AA421BD1204A1432156845F48055CA
:100CF0001560126802F480520592026842F0010207
:100D000002600068CDE9021400F001000590A02007
:100D1000CDE9000305200490694614481DE0144DF8
:100D2000AA421CD1104A1032156845F400451560DE
:100D3000126802F400420592026842F00202026068
:100D40000068CDE9021400F0020005902820CDE9EA
:100D500000030620049069460648FFF7E5FA07B04D
:100D600030BD000000300140303802400000024039
:100D7000003C00400004024010B5401EB0F1807FEE
:100D800001D3012010BD4FF0E02460610F216017F6
:100D900001F0EFF80020A06107202061002010BDC5
:100DA00010B590F83C20012A22D0012280F83C2086
:100DB000CA688C6822F4407222434C6822F4806234
:100DC00022430C6822F4006222430C6922F4805210
:100DD00022434C6922F400522243C969002322F4C1
:100DE00080420A4301684A6480F83C30002010BD0C
:100DF000022010BD70B590F83C20012A32D00124A9
:100E000080F83C40022280F83D2003685A689D68C3
:100E100022F070060A6832435A60134B02689A4205
:100E200014D0B2F1804F11D0104B9A420ED0104B1B
:100E30009A420BD00F4B9A4208D00F4B9A4205D0E2
:100E40000E4B9A4202D00E4B9A4204D1496825F0CB
:100E500080031943916080F83D40002180F83C10E8
:100E6000084670BD022070BD000001400004004033
:100E700000080040000C0040000401400040014018
:100E80000018004010B5040003D094F83D0010B1E4
:100E900007E0012010BD002084F83C00204600F04F
:100EA0000DF8022084F83D00211D206800F0D8FDD7
:100EB000012084F83D00002010BD000008B5006846
:100EC0000649884208D10648016841F004010160E2
:100ED000006800F00400009008BD00000008004019
:100EE0004038024070B5044690F83C00012817D005
:100EF000012584F83C50022084F83D002068826877
:100F000022F0770222F47F4282600868502830D0B5
:100F10000DDC20284DD005DC98B310283BD148E0EB
:100F2000022070BD302844D0402834D139E06028F8
:100F300028D0702806D0B0F5805F2CD0B0F5005FC7
:100F400029D10AE0CB68D1E90121206800F0ECFD4D
:100F50002068816841F0770109E0CB68D1E901217F
:100F6000206800F0E1FD2068816841F480418160E3
:100F700011E0CA684968206800F0AAFE5021206884
:100F800007E016E0CA684968206800F0B2FE6021F8
:100F9000206800F0D3FD84F83D50002084F83C0028
:100FA00070BDCA684968206800F092FE4021206840
:100FB000EFE7226801461046EBE7000010B586B067
:100FC000044614216846FFF733F92368164C0022C3
:100FD00016480221A34210D1036843F010030360B6
:100FE000006800F01000059008028DE8070001205D
:100FF000CDE9031069460E4811E00E4CA34210D112
:10100000036843F008030360006800F008000590DF
:10101000A0148DE807000391049169460648FFF784
:1010200083F906B010BD00000000014030380240D6
:101030000010024000080040000C024070B5044659
:1010400090F83C000D4601280DD0012684F83C6044
:10105000022084F83D0042B1042A18D0082A2AD080
:101060000C2A4DD139E0022070BD206800F06EFDE1
:101070002068816941F0080181612068816921F05F
:1010800004018161206881692A69114311E02068A7
:1010900000F08CFD2068816941F400618161206865
:1010A000816921F480618161206881692A6941EA4E
:1010B0000221816124E0206800F0AEFD2068C16952
:1010C00041F00801C1612068C16921F00401C161DA
:1010D0002068C1692A69114311E0206800F0D0FD41
:1010E0002068C16941F40061C1612068C16921F4CF
:1010F0008061C1612068C1692A6941EA0221C16138
:1011000084F83D60002084F83C0070BD10B50400F8
:1011100003D094F83D0010B107E0012010BD00207D
:1011200084F83C00204600F00DF8022084F83D00D1
:10113000211D206800F094FC012084F83D0000206F
:1011400010BD000008B500680649884208D106486D
:10115000016841F001010160006800F001000090A9
:1011600008BD000000000140443802407047000004
:1011700070B5026804461068D168536910F00F0F0B
:1011800052D003F0010501F490762E435FD0C207E0
:1011900005D0CA0503D5E26B42F00102E2634207C3
:1011A00005D5DA0703D0E26B42F00202E263820760
:1011B00005D5DA0703D0E26B42F00402E2630207CE
:1011C00007D501F020022A4303D0E26B42F0080267
:1011D000E263E26B002A33D0800604D5880602D58C
:1011E000204600F0AEFD20684069E16BC0F380103E
:1011F000090700D428B3204600F095FD2068416916
:1012000049061AD5416921F040014161606BA0B1E6
:101210001B490165606BFFF774F8002810D0606B04
:10122000016DBDE870400847830610D58B060ED5CA
:101230002046BDE8704000F084BD2046FFF796FFD1
:1012400070BD2046FFF792FF0020E06370BD0306EB
:1012500006D50B0604D52046BDE8704000F050BE10
:101260004006F3D54806F1D5D168204621F040016B
:10127000D160202184F8391000F06BF870BD0000B7
:10128000171D000870B5040004D094F8390000253B
:1012900010B106E0012070BD84F83850204600F0FF
:1012A00023F8242084F839002068C16821F4005113
:1012B000C160204600F090FD2068016921F4904152
:1012C00001612068416921F02A0141612068C168FB
:1012D00041F40051C160E563202084F8390084F8AE
:1012E0003A00002070BD000010B586B004461421FD
:1012F0006846FEF79DFF13492068884220D11248B6
:101300000021026842F010020260006800F0100044
:1013100005900D481438026842F00202026000682D
:1013200000F002000590C02000900220CDE90101EC
:10133000032003900720049069460448FEF7F4FF59
:1013400006B010BD001001404438024000040240C5
:1013500070477047FEE7000010B500BF012000BFD6
:10136000401C6428FBD10A4C012280212046FFF753
:10137000B7F800BF00BF022100BF491C6429FBD1A0
:1013800020460022BDE810408021FFF7A9B80000E8
:10139000000802402DE9F04F87B014216846FEF79F
:1013A00047FF64480024016841F0100101600168B2
:1013B00001F010010591016841F0800101600168B0
:1013C00001F080010591016841F0040101600168AC
:1013D00001F004010591016841F00101016001681B
:1013E00001F001010591016841F00201016001680D
:1013F00001F002010591016841F0080101600068F7
:10140000DFF834A100F00800059000225821504672
:10141000FFF766F8DFF824B140F6044800224146A1
:101420005846FFF75DF800224FF680514448FFF719
:1014300057F84FF40047002239464248FFF750F86A
:10144000DFF804910022C0214846FFF749F87C20CC
:1014500002268DE8510069463948FEF765FF41F6DE
:1014600006408DE8510069464846FEF75DFF0125BC
:101470005820CDE9000569465046CDE90245FEF702
:1014800053FF4FF203008DE8510069465846FEF7BE
:101490004BFFCDF80080CDE90154694658460394CE
:1014A000FEF742FF4FF280500090CDE901546946AB
:1014B00023480394FEF738FFE802CDE90005CDE9A3
:1014C000024669461E48FEF72FFF4FF4C640CDE99D
:1014D000000469461B480294FEF726FF0097CDE9F9
:1014E0000154694617480394FEF71EFFC020CDE95A
:1014F000000569464846CDE90245FEF715FF28027A
:101500000090CDE901640394694650460494FEF7C7
:101510000BFF0097CDE9014669465046FEF704FFF0
:1015200003208DE8510069460648FEF7FDFE07B02E
:10153000BDE8F08F30380240000002400004024055
:1015400000100240000C0240000802400D480C4907
:101550004FF4007201604FF4827141604FF400411A
:1015600081600021C1600161C0E905122022C0E94B
:101570000721416281620A21C162FFF765BB000059
:1015800000300140E00100200D480C494FF400728A
:1015900001604FF4827141604FF40041816000218D
:1015A000C1600161C0E905121022C0E90721416252
:1015B00081620A21C162FFF747BB0000003C004086
:1015C0003802002010B592B000240F941C2108A806
:1015D0001094FEF72DFE20216846FEF729FE1A48DA
:1015E0001849C0E900144FF6FF71C0E902410461D7
:1015F00044618461FFF78AFD0F940FA9124810948B
:10160000FFF7F8FB6020CDE908040A940B940C94D2
:101610000D94002208A90C480E94FFF70FFD0094CA
:101620004FF40050CDE904400294019403946946BC
:1016300005480794FFF7B4FB0348FFF7BFFC12B05F
:1016400010BD0000000001409002002010B58EB0D7
:1016500000240794089409940A940B941C2168466A
:101660000C94FEF7E5FD1648144901605421C0E9C9
:1016700001146421C0E903148461FFF703FC4FF4F3
:101680008050079007A90E48FFF72CFC0C48FFF785
:101690003DFD0B940BA90A480C94FFF7ABFB6020AF
:1016A000CDE9000402940022694605480494FFF73E
:1016B000C5FC0348FFF782FC0EB010BD00080040D7
:1016C000D0020020FEE77047704700002DE9F0418E
:1016D000084D094E00244FF4E0772A5D4021304642
:1016E000FEF7FEFEFFF738FE641CBC42F5D1BDE8F4
:1016F000F081000000000020000802401422114682
:10170000104600F001B800002DE9F0430027914693
:101710007F2800D97F207F2900D97F21B9F17F0F51
:1017200001D94FF07F09184E01234FF0000C07221A
:10173000C7EBC705A2F1010803FA08F4C2EB45188C
:101740000442B04402D088F8203001E088F820C07C
:10175000C2EB45180C42B04402D088F8193001E0C1
:1017600088F819C014EA090FC2EB4514344401D0BB
:10177000A37401E084F812C0521EDBD17F1CFFB2BB
:10178000022FD4D1BDE8F08300000020F0B501267F
:101790000027834D072802D9072010244BE010248E
:1017A000092845D2DFE800F04483A1BFDD052547C5
:1017B0006500A4F1010C06FA0CFE1EEA010FC4F14B
:1017C000E00C02D005F80C6001E005F80C701EEA90
:1017D000020FC4F1D00C02D005F80C6001E005F84E
:1017E0000C701EEA030FC4F1C00C1FD005F80C608A
:1017F0001EE0A4F1010C06FA0CFE1EEA010FC4F172
:10180000B00C02D005F80C6001E005F80C701EEA7F
:10181000020FC4F1A00C02D005F80C6001E005F83D
:101820000C701EEA030FC4F1900CDFD105F80C70A8
:10183000641EB5D1F0BDA4F1010E06FA0EFC1CEA3F
:10184000010FC4F1800E02D005F80E6001E005F82A
:101850000E701CEA020FC4F1700E02D005F80E6083
:1018600001E005F80E701CEA030FC4F1600CBDD155
:10187000DCE7A4F1010E06FA0EFC1CEA010FC4F12C
:10188000500E02D005F80E6001E005F80E701CEA5B
:10189000020FC4F1400E02D005F80E6001E005F819
:1018A0000E701CEA030FC4F1300C9FD1BEE7A4F107
:1018B000010E06FA0EFC1CEA010FC4F5E07E02D010
:1018C00005F80E6001E005F80E701CEA020FC4F581
:1018D000D87E02D005F80E6001E005F80E701CEA13
:1018E000030FC4F5D07C81D1A0E7A4F1010E06FA64
:1018F0000EFC1CEA010FC4F5C87E02D005F80E608C
:1019000001E005F80E701CEA020FC4F5C07E02D09B
:1019100005F80E6001E005F80E701CEA030FC4F52F
:10192000B87CA4D182E7A4F1010E06FA0EFC1CEAF1
:10193000010FC4F5B07E02D005F80E6001E005F895
:101940000E701CEA020FC4F5A87E02D005F80E60E6
:1019500001E005F80E701CEA030FC4F5A07C86D1E7
:1019600064E7A4F1010E06FA0EFC1CEA010FC4F5AF
:10197000987E02D005F80E6001E005F80E701CEAB2
:10198000020FC4F5907E02D005F80E6001E005F864
:101990000E701CEA030FC4F5887C86D146E7000070
:1019A000000000207047FEF7A7BD000030B593B0DF
:1019B00030216846FEF73CFC14210CA8FEF738FCE9
:1019C0001E480025016841F080510160006800F068
:1019D000805011901A48016841F48041016000680C
:1019E000022400F480401190032000904FF48030D6
:1019F000019001200390102004908004CDE906405E
:101A00000D200890A820CDE9090407200B90684616
:101A1000FEF73EFF0CA90F2081E831004FF4A050E3
:101A20000F90E002109005210CA8FEF7FFFD0022A8
:101A300011461046FEF7E6FE13B030BD40380240B6
:101A4000007000400548016841F4700101600349DD
:101A50004FF00060803908607047000088ED00E0BA
:101A6000F0B50268254C264D264E274F274B4FF0E8
:101A7000804CA04209D0604507D0A84205D0B042B2
:101A800003D0B84201D0984204D122F0700E4A68C7
:101A900042EA0E02A0421BD0604519D0A84217D0DE
:101AA000B04215D0B84213D0984211D0184DA84278
:101AB0000ED0184DA8420BD0174DA84208D0174D94
:101AC000A84205D0164DA84202D0164DA84203D117
:101AD00022F44075CA682A434D6922F080022A43E5
:101AE00002608A68C2620A688262A04201D098429B
:101AF00001D10969016301214161F0BD000001408C
:101B00000004004000080040000C004000040140B8
:101B100000400140004401400048014000180040DE
:101B2000001C00400020004010B5846842EA0322F7
:101B300024F47F440A432243826010BD826822F06D
:101B400070020A4342F0070181607047F0B5026AF3
:101B500022F001020262036A42688469124E24F094
:101B600073050C682C4323F002058B682B430D4D45
:101B7000A84201D0B04205D123F00807CB683B430F
:101B800023F00403A84201D0B04205D14D6922F4EC
:101B9000407215438A692A434260846149684163FF
:101BA0000362F0BD0000014000040140F0B5026A8C
:101BB00022F010020262026A436884690D6824F40C
:101BC000E64444EA05248D6822F0200242EA051228
:101BD0000F4D104EA84201D0B04206D1CF6822F07E
:101BE000800242EA071222F04002A84201D0B0422D
:101BF00007D14D6923F4406343EA85038D6943EAC5
:101C0000850343608461496881630262F0BD00001E
:101C10000000014000040140F0B5026A22F4807225
:101C20000262026A4368C46922F4007224F07305F8
:101C30000C68124E2C438D6842EA05220E4DA842D4
:101C400001D0B04206D1CF6822F4006242EA0722F6
:101C500022F48062A84201D0B04207D14D6923F43A
:101C6000405343EA05138D6943EA05134360C46199
:101C70004968C1630262F0BD0000014000040140F8
:101C800030B5026A22F480520262046A4268C36973
:101C90000D6823F4E64343EA05238D6824F40054D9
:101CA00044EA0534084DA84202D0084DA84204D1A8
:101CB0004D6922F4804242EA85124260C36149685C
:101CC0000164046230BD00000000014000040140D6
:101CD00010B5036A046A24F001040462846924F0E4
:101CE000F00444EA021423F00A020A438461026207
:101CF00010BD10B5036A23F0100303628369046A00
:101D000023F4704343EA023224F0A00343EA0111B2
:101D10008261016210BD10B5806B0021C185C18454
:101D2000FFF724FA10BD0168CA6822F49072CA60F5
:101D300001684A6922F001024A61202180F83A10C4
:101D4000704710B590F83A10222901D0022010BD3A
:101D50008168B1F5805F11D00169002901681FD049
:101D6000496801F07F03816A4A1C82620B70C18D51
:101D7000491E0904090CC18518D02BE00269816A4B
:101D8000002A0268526805D0D2B20A80816A491CD2
:101D90008162ECE7C2F308020A80816A891CF7E7D6
:101DA0004A68816A4B1C83620A70E0E70168CA686E
:101DB00022F02002CA600168CA6822F48072CA60F8
:101DC00001684A6922F001024A61202180F83A1034
:101DD000FFF7BEFA002010BD2DE9F041044600686F
:101DE0000169E26821F44051114301612169A06851
:101DF000E26908436169114308432168CA6849F2EE
:101E00000C639A430243CA6020684169A26921F4C5
:101E1000407111434161E069192764253226B0F50C
:101E2000004F354A354920684FF0000806D08842F7
:101E300001D0904236D1FEF7A3FC35E0884201D0B4
:101E4000904202D1FEF79CFC01E0FEF789FC61683C
:101E50004A18A0FB070148EB0803FEF7B1F9014659
:101E6000B0FBF5F00201B1FBF5F06FF01803584339
:101E700001EB800006EBC000B0FBF5F000F0F800CD
:101E800002EB4002B1FBF5F0584301EB800006EB9A
:101E9000C000B0FBF5F000F0070021681044886036
:101EA000BDE8F081FEF75CFC61688B0F8A00A0FB47
:101EB0000701FEF785F90146B0FBF5F06FF0180257
:101EC000504301EB800006EB0010B0FBF5F000F092
:101ED000F002B1FBF5F002EB0012B1FBF5F06FF090
:101EE0001803584301EB800006EB0010B0FBF5F03F
:101EF00000F00F00D1E70000001401400010014085
:101F000090F83910212901D0022070478168B1F57D
:101F1000805F016A0BD04A1C026202680978516036
:101F2000C18C491E0904090CC1840ED017E0098830
:101F30000268C1F30801516001690029016A02D0F9
:101F4000491C0162ECE7891CFBE70168CA6822F0C2
:101F50008002CA600068C16841F04001C160002091
:101F6000704700000148FFF703B90000100300208C
:101F7000FEE70907090E002804DB00F1E02080F8E5
:101F80000014704700F00F0000F1E02080F8141DED
:101F9000704702E008C8121F08C1002AFAD1704732
:101FA0007047002001E001C1121F002AFBD17047D9
:101FB000FEF7AAFAFFF7FAFCFFF7ECF937493648C3
:101FC00008600846FEF712FEFFF7C0FAFFF7FAFABC
:101FD000FFF73CFB334832490C2201604FF4E131FA
:101FE000416000218160C160C0E904128161C1616A
:101FF000FFF748F9FFF7C8FA002211462520FEF73F
:10200000E3FA2520FEF7D2FA41F288344FF47A75CC
:1020100047F2305623462A4631460120FFF7B6FBE9
:1020200023462A4631460220FFF7B0FB23462A46C4
:1020300031460320FFF7AAFB23462A4631460420F7
:10204000FFF7A4FB23462A4631460520FFF79EFBF7
:1020500023462A4631460620FFF798FB23462A46A8
:1020600031460720FFF792FB23462A4631460820D7
:10207000FFF78CFB00231A4619460720FFF786FB63
:1020800000231A4619460820FFF780FBFFF736FBAE
:10209000FFF71CFBFEE7000000080650D0010020FF
:1020A00000100140100300200000000000000000AC
:1020B00001020304060708090000000001020304EE
:1020C000E020000800000020D0010000A802000865
:1020D000F4200008D001002080050000A21F0008A5
:1020E000220112013A010301D509E1E01182101326
:0420F00024F40000D4
:040000050800018965
:00000001FF
