:020000040800F2
:10000000400700209D010008AF180008E114000817
:10001000AD180008FF020008891E0008000000005B
:10002000000000000000000000000000B3180008FD
:100030000103000800000000B1180008B51800080E
:10004000B7010008B7010008B7010008B7010008B0
:10005000B7010008B7010008B7010008B7010008A0
:10006000B7010008B7010008B7010008B701000890
:10007000B7010008B7010008B7010008B701000880
:10008000B7010008B7010008B7010008B701000870
:10009000B7010008B7010008B7010008B701000860
:1000A000B7010008B7010008B7010008B701000850
:1000B000B70100086D190008B7010008B701000872
:1000C000B7010008B7010008B7010008B701000830
:1000D000B70100087D1E0008B7010008B70100083D
:1000E000B7010008B7010008B7010008B701000810
:1000F000B7010008B7010008B7010008B701000800
:10010000B7010008B7010008B7010008B7010008EF
:10011000B7010008B7010008B7010008B7010008DF
:10012000B7010008B7010008B7010008B7010008CF
:10013000B7010008B7010008B7010008B7010008BF
:10014000B7010008B7010008B7010008B7010008AF
:10015000B7010008B7010008B7010008B70100089F
:10016000B7010008B7010008B7010008B70100088F
:10017000B7010008B7010008B7010008000000003F
:10018000B7010008B7010008DFF80CD000F07AF8DA
:1001900000480047C91E0008400700200648804765
:1001A00006480047FEE7FEE7FEE7FEE7FEE7FEE75C
:1001B000FEE7FEE7FEE7FEE75119000889010008A7
:1001C0002DE9F05F0546002092469B46884606468C
:1001D000814640241BE0284641464746224600F01F
:1001E00041F853465A46C01A914110D31146184659
:1001F000224600F028F82D1A67EB01084F462246E8
:100200000120002100F01FF817EB00094E41201ECD
:10021000A4F10104DFDC484631462A464346BDE8E6
:10022000F09FD2B201E000F8012B491EFBD27047CB
:100230000022F6E710B513460A4604461946FFF7B2
:10024000F0FF204610BD202A04DB203A00FA02F11C
:10025000002070479140C2F1200320FA03F31943B4
:1002600090407047202A04DB203A21FA02F0002156
:10027000704721FA02F3D040C2F1200291400843B6
:1002800019467047064C074D06E0E06840F0010350
:1002900094E8070098471034AC42F6D3FFF778FF94
:1002A000501F0008701F000870B58C1810F8015B13
:1002B00015F0070301D110F8013B2A1106D110F8FF
:1002C000012B03E010F8016B01F8016B5B1EF9D103
:1002D0002B0705D40023521E0DD401F8013BFAE789
:1002E00010F8013BCB1A921C03E013F8015B01F8F4
:1002F000015B521EF9D5A142D8D3002070BDFEE7A4
:10030000704790F83510022903D080214165012003
:100310007047052180F835100068016821F001015F
:1003200001600020704700002DE9F84F00224FF0D7
:10033000010803254FF00F0E0B6808FA02F4234062
:10034000A3426ED14E68012E05D0022E03D0112E8D
:1003500001D0122E12D186684FEA420C05FA0CF732
:10036000BE43CF6807FA0CF7374387604668A64359
:100370000C79C4F30014944034434460C6685700B9
:1003800005FA07FC8C6826EA0C06BC403443C460BE
:100390004C68022C01D0122C13D1D40800EB840439
:1003A000A346D4F8209054074FEAD46A0EFA0AF60E
:1003B00029EA06090E6906FA0AF646EA0906CBF8A2
:1003C000206006680C7926EA0C0604F00304BC40A1
:1003D000344304604C68E40065D5364C266846F426
:1003E00080462660246822F0030604F480440094CA
:1003F000314C3444A446D4F808489607370F0EFA17
:1004000007F6B4432D4EB04201D1002624E02C4E15
:10041000B04201D101261FE02A4EB04202D102268D
:100420001AE040E0284EB04201D1032614E0274EE6
:10043000B04201D104260FE0254EB04201D105267D
:100440000AE0244EB04201D1062605E0224EB04219
:1004500001D1072600E00826BE402643CCF80868F4
:100460001E4E34684F689C43FF0300D51C43346024
:100470001A4C241D26684F689E43BF0300D51E43B7
:100480002660164E083634684F689C43FF0200D53C
:100490001C433460114E0C3634684F689C43BF02D5
:1004A00000D51C433460521C102AFFF445AFBDE850
:1004B000F88F000044380240003001400000024044
:1004C0000004024000080240000C024000100240FC
:1004D0000014024000180240001C0240003C014091
:1004E0000AB1816170470904FBE700000148806898
:1004F00070470000C401002002488168027811445E
:1005000081607047C40100200B4810B5016841F4B8
:1005100000710160016841F480610160016841F48B
:1005200080710160032000F06FF8002000F006F8F1
:1005300000F024F8002010BD003C024070B50D4DC5
:1005400004464FF47A712878B1FBF0F00A49096843
:10055000B1FBF0F000F0ECFB48B9102C07D2002200
:100560002146501E00F030F800206C6070BD012064
:1005700070BD0000C4010020D00100200A4808B569
:10058000016841F480410160006800F480400090FF
:100590000548001F016841F080510160006800F0CB
:1005A0008050009008BD000044380240002809DB5C
:1005B00000F01F02012191404009800000F1E0207D
:1005C000C0F8001170470000F0B40E4B1B680C46D9
:1005D000C3F30223C3F10705042D00D90425191D17
:1005E000072901D2002300E0DB1E012606FA05F1EF
:1005F000491E214099409E40761E16403143F0BC72
:1006000001F043BC0CED00E0064900F00702086869
:100610004FF6FF03184040EA0220034A10430860E7
:10062000704700000CED00E00000FA052DE9F047EE
:100630000E46050065D0DFF81481D8F80000F7B247
:1006400000F00F00B04207D288F80070D8F8000020
:1006500000F00F00B04254D128683D4C810712D5FC
:10066000400703D5206840F4E05020602878000758
:1006700003D5206840F4604020602068A96820F01D
:10068000F000084320602878C0072DD03049686802
:100690000839012812D0022813D0032811D0096884
:1006A000890700292DDA216821F003010143216027
:1006B000FFF71CFF814641F2883A0EE00968890382
:1006C000EFE709688901ECE7FFF710FFA0EB0901EC
:1006D000514502D90320BDE8F0872068696800F021
:1006E0000C00B0EB810FEFD1D8F80010404601F0BC
:1006F0000F01B14207D90770006800F00F00B04247
:1007000001D00120E7E72878400705D52068E9688F
:1007100020F4E050084320602878000706D52068C0
:10072000296920F4604040EAC100206000F038F8F8
:100730002168084AC1F30311515CC84006490860AA
:1007400006480068FFF7FAFE0020C4E7003C0240BC
:1007500008380240381F0008D0010020C8010020DE
:100760000448054900680968044AC1F38221515CC4
:10077000C8407047D001002008380240481F0008D8
:100780000448054900680968044AC1F34231515CD4
:10079000C8407047D001002008380240481F0008B8
:1007A000154810B5006810F00C02144813D0144915
:1007B000042A0FD0082A0ED10F4C241F2268236868
:1007C00002F03F025B0207D52068C0F38810A0FB4F
:1007D000010106E0084610BD2168C1F38811A1FBA4
:1007E00000010023FFF7ECFC2168C1F30141491C23
:1007F0004900B0FBF1F010BD083802400024F400BD
:1008000080BA8C01F0B51F4C16460D461D4B0021D9
:1008100002220327283C0028186887B019D040F02E
:1008200004001860186800F00400059010020090A1
:10083000CDE90121CDE9037169461348FFF774FD45
:10084000206845EAC60120F078400843206007B0E0
:10085000F0BD40F001001860186800F0010005903C
:100860004FF480700090CDE90121CDE90371694614
:100870000648FFF759FD2068354320F0EC60284317
:10088000E4E7000030380240000802400000024067
:100890002DE9F84F04006ED02078DFF83C93C007B4
:1008A000A9F104054AD009F104000168C1F38101EE
:1008B000012908D00068C0F3810002280AD1D9F8C4
:1008C0000000400206D52868800337D560680028FC
:1008D000E1D033E06068B0F5803F10D0B0F5A02FD4
:1008E000286810D020F480302860286820F4802008
:1008F00028606068A8B1FFF7F9FD06460DE028689A
:1009000040F48030F4E740F480202860F7E700BF2F
:10091000FFF7ECFD801B642873D828688003F7D5A7
:100920000CE0FFF7E3FD064605E000BFFFF7DEFD44
:10093000801B6428F0D828688003F7D42078DFF87B
:100940009C8280074FF0000A3ED5A348001D016835
:1009500011F00C0F08D00068C0F3810002280BD101
:10096000D9F80000400207D42868800716D5E0684F
:10097000012800D112E02BE1E068B8B10120C8F8ED
:100980000000FFF7B3FD064605E000BFFFF7AEFD30
:10099000801B0228C0D828688007F7D528682169FD
:1009A00020F0F80040EAC10028600DE0C8F800A07F
:1009B000FFF79CFD064604E0FFF798FD801B022828
:1009C0001FD828688007F7D42078000722D5824EE8
:1009D00083486169703671B101210160FFF786FDBE
:1009E000074604E0FFF782FDC01B022809D83068E3
:1009F0008007F7D50EE0C0F800A0FFF777FD0746A7
:100A000005E082E0FFF772FDC01B02287DD8306848
:100A10008007F7D42078400768D5DFF8BCB10027FD
:100A20000BF13C0BDBF80000C0000BD4DBF800102E
:100A300041F08051CBF80010DBF80000012700F0F6
:100A400080500090674E3068C00510D4306840F484
:100A500080703060FFF74AFD009005E0FFF746FD2B
:100A60000099401A022850D83068C005F6D55A4E71
:100A7000A0686C3601280FD00528306810D020F00F
:100A800001003060306820F004003060A068B8B128
:100A9000FFF72CFD00900FE0306840F00100F4E714
:100AA00040F004003060F7E7FFF720FD0099411A9D
:100AB00041F28830814266D830688007F4D50EE074
:100AC000FFF714FD009007E0FFF710FD0099411AB1
:100AD00041F28830814256D830688007F4D42FB173
:100AE000DBF8001021F08051CBF80010A069C8B3EA
:100AF0003949091D0968C1F3810102294AD0022838
:100B0000504607D0C8F8600000E03CE0FFF7EEFC7C
:100B100004463BE04746C8F86000FFF7E7FC06469E
:100B200005E000BFFFF7E2FC801B02282BD82868F5
:100B30008001F7D4D4E907010843A16A2A4A490889
:100B400002EB0141626A41EA8211084394F82C10D9
:100B500040EA0161C9F8001001203866FFF7C6FCC1
:100B6000044606E036E000BFFFF7C0FC001B022889
:100B700009D828688001F7D52CE000BFFFF7B6FC44
:100B8000001B022802D90320BDE8F88F28688001E5
:100B9000F4D41FE00128F7D0D9F80000E26900F48E
:100BA0008001914214D1226A00F03F0191420FD19D
:100BB00047F6C071626A0140914209D1A26A00F40D
:100BC0004031914204D1E16A00F07060884201D066
:100BD0000120D9E70020D7E704380240000047424F
:100BE000800E4742007000400000FFFF70B5040017
:100BF00003D06079002510B105E0012070BD25719A
:100C0000204600F00DF8022060712068016841F074
:100C10000401016001206071A560002070BD00002A
:100C200008B500680649884208D10648016841F0C5
:100C300040010160006800F04000009008BD000025
:100C4000000806503438024070B5040005D0002575
:100C5000A56294F8510010B106E0012070BD84F83F
:100C60005050204600F030F8022084F851002068EF
:100C7000016821F040010160D4E901010843D4E991
:100C800003121143084361690843218B01F4007189
:100C90000843E1690843216A0843A16A08432168BF
:100CA0000860A069042101EA1040616A08432168D4
:100CB00048602068C16921F40061C1616565012057
:100CC00084F85100002070BD10B586B00446142190
:100CD0006846FFF7ADFA13492068884220D11248D0
:100CE0000021026842F480520260006800F48050E3
:100CF00005900D481438026842F001020260006855
:100D000000F001000590A02000900220CDE9010133
:100D1000032003900520049069460448FFF704FB74
:100D200006B010BD003001404438024000000240CF
:100D300010B5401EB0F1807F01D3012010BD4FF0EF
:100D4000E02460610F21601701F09FF80020A0618E
:100D500007202061002010BD7047704710B590F843
:100D60003C20012A22D0012280F83C20CA688C68ED
:100D700022F4407222434C6822F4806222430C68C1
:100D800022F4006222430C6922F4805222434C690F
:100D900022F400522243C969002322F480420A430C
:100DA00001684A6480F83C30002010BD022010BD6C
:100DB00070B590F83C20012A32D0012480F83C40E4
:100DC000022280F83D2003685A689D6822F0700670
:100DD0000A6832435A60134B02689A4214D0B2F147
:100DE000804F11D0104B9A420ED0104B9A420BD02C
:100DF0000F4B9A4208D00F4B9A4205D00E4B9A42A5
:100E000002D00E4B9A4204D1496825F08003194361
:100E1000916080F83D40002180F83C10084670BD8C
:100E2000022070BD000001400004004000080040A6
:100E3000000C004000040140004001400018004048
:100E400010B5040003D094F83D0010B107E0012074
:100E500010BD002084F83C00204600F00DF8022070
:100E600084F83D00211D206800F086FD012084F8F3
:100E70003D00002010BD000008B50068064988420A
:100E800008D10648016841F004010160006800F0E3
:100E90000400009008BD00000008004040380240F7
:100EA00070B5044690F83C00012817D0012584F85D
:100EB0003C50022084F83D002068826822F07702CE
:100EC00022F47F4282600868502830D00DDC202850
:100ED0004DD005DC98B310283BD148E0022070BD0E
:100EE000302844D0402834D139E0602828D07028F8
:100EF00006D0B0F5805F2CD0B0F5005F29D10AE0B4
:100F0000CB68D1E90121206800F09AFD2068816852
:100F100041F0770109E0CB68D1E90121206800F0B8
:100F20008FFD2068816841F48041816011E0CA68CA
:100F30004968206800F058FE5021206807E016E05C
:100F4000CA684968206800F060FE6021206800F0EF
:100F500081FD84F83D50002084F83C0070BDCA68D3
:100F60004968206800F040FE40212068EFE72268D1
:100F700001461046EBE7704770B50446006801690A
:100F80004FF00005C943890715D4C168C9438907D3
:100F900011D4E91E01610120207720688069800753
:100FA000204602D0FFF7E7FF04E000F0F3F8204608
:100FB00000F0A0F9257720680169C943490717D4D3
:100FC000C168C943490713D46FF0040101610220CD
:100FD00020772068806910F4407F204602D0FFF718
:100FE000CAFF04E000F0D6F8204600F083F9257728
:100FF00020680169C943090716D4C168C9430907B4
:1010000012D46FF008010161042020772068C069C4
:101010008007204602D0FFF7AEFF04E000F0BAF8E8
:10102000204600F067F9257720680169C943C906A1
:1010300017D4C168C943C90613D46FF01001016108
:10104000082020772068C06910F4407F204602D035
:10105000FFF791FF04E000F09DF8204600F04AF908
:10106000257720680169C943C90708D1C168C94308
:10107000C90704D1891E0161204600F03CF92068AF
:101080000169C943090609D4C168C943090605D4E1
:101090006FF0800101612046FFF75EFE2068016964
:1010A000C943490609D4C168C943490605D46FF04C
:1010B00040010161204600F01FF920680169C94321
:1010C00089060BD4C168C943890607D46FF0200193
:1010D00001612046BDE87040FFF73FBE70BD0000D3
:1010E00010B586B0044614216846FFF7A1F82368BE
:1010F000214C002121480222A34211D1036843F070
:10110000100303600068CDE9021200F010000590A2
:101110001002CDE90002012004906946184812E04F
:10112000184CA34213D1036843F004030360006822
:10113000CDE9021200F0040005904020CDE9000244
:10114000694611480492FFF7EFF806B010BD0F4C46
:10115000A342FAD1036843F0080303600068CDE9B5
:10116000021200F008000590A014CDE900026946C3
:1011700007480492E7E700000000014030380240D1
:101180000010024000040040000802400008004037
:10119000000C0240704770B5044690F83C000D46C4
:1011A00001280DD0012684F83C60022084F83D001F
:1011B00042B1042A18D0082A2AD00C2A4DD139E08D
:1011C000022070BD206800F04DFC2068816941F06C
:1011D000080181612068816921F004018161206832
:1011E00081692A69114311E0206800F06BFC2068D6
:1011F000816941F4006181612068816921F4806125
:101200008161206881692A6941EA0221816124E0C3
:10121000206800F08DFC2068C16941F00801C161BF
:101220002068C16921F00401C1612068C1692A698F
:10123000114311E0206800F0AFFC2068C16941F45F
:101240000061C1612068C16921F48061C1612068C9
:10125000C1692A6941EA0221C16184F83D60002028
:1012600084F83C0070BD10B5040003D094F83D0034
:1012700010B107E0012010BD002084F83C0020469A
:1012800000F00CF8022084F83D00211D206800F0D9
:1012900073FB012084F83D00002010BD08B50068F4
:1012A0001149884209D11148016841F001010160EA
:1012B000006800F00100009008BD0D498842FBD194
:1012C0000A48001F016841F0020101600068002225
:1012D00000F00200009011461D20FFF775F9BDE8EF
:1012E00008401D20FFF762B9000001404438024069
:1012F00000040040704770477047704770B502683F
:1013000004461068D168536910F00F0F52D003F0F3
:10131000010501F490762E435FD0C20705D0CA05BF
:1013200003D5E26B42F00102E263420705D5DA071A
:1013300003D0E26B42F00202E263820705D5DA07CE
:1013400003D0E26B42F00402E263020707D501F02A
:1013500020022A4303D0E26B42F00802E263E26B10
:10136000002A33D0800604D5880602D5204600F036
:1013700074FC20684069E16BC0F38010090700D459
:1013800028B3204600F05BFC2068416949061AD565
:10139000416921F040014161606BA0B11B490165C9
:1013A000606BFEF7AEFF002810D0606B016DBDE8EA
:1013B00070400847830610D58B060ED52046BDE841
:1013C000704000F04ABC2046FFF797FF70BD2046F2
:1013D000FFF793FF0020E06370BD030606D50B0600
:1013E00004D52046BDE8704000F016BD4006F3D598
:1013F0004806F1D5D168204621F04001D160202176
:1014000084F8391000F06BF870BD00002F1C000844
:1014100070B5040004D094F83900002510B106E03E
:10142000012070BD84F83850204600F023F82420B5
:1014300084F839002068C16821F40051C160204659
:1014400000F056FC2068016921F490410161206898
:10145000416921F02A0141612068C16841F40051CD
:10146000C160E563202084F8390084F83A00002048
:1014700070BD000010B586B0044614216846FEF722
:10148000D7FE13492068884220D112480021026803
:1014900042F010020260006800F0100005900D4854
:1014A0001438026842F002020260006800F0020094
:1014B0000590C02000900220CDE901010320039097
:1014C0000720049069460448FEF72EFF06B010BDC1
:1014D0000010014044380240000402407047704749
:1014E000FEE700000449402008600020401C0C2852
:1014F000FCDB002008607047140802400D48411EC4
:1015000002780B7800219A4203D34278521C427031
:1015100001704278032A00D3417001784078054A6F
:10152000C0EBC000921C02EB4010085C0249C001F5
:1015300008607047010000201408024030B5002404
:10154000054D04E0FFF7DAFFFFF7CCFF641C2878B5
:101550008442F7DB30BD0000000000202DE9F04F91
:1015600087B014216846FEF763FE644800240168D2
:1015700041F010010160016801F01001059101685E
:1015800041F080010160016801F08001059101686E
:1015900041F004010160016801F004010591016856
:1015A00041F001010160016801F00101059101684C
:1015B00041F002010160016801F00201059101683A
:1015C00041F0080101600068DFF834A100F0080074
:1015D0000590002258215046FEF782FFDFF824B123
:1015E00040F60448002241465846FEF779FF0022A3
:1015F0004FF680514448FEF773FF4FF40047002236
:1016000039464248FEF76CFFDFF804910022802142
:101610004846FEF765FF7C2002258DE831006946CB
:101620003948FEF781FE41F606408DE831006946F3
:101630004846FEF779FE01265820CDE90006CDE99F
:10164000024669465046FEF76FFE4FF203008DE8F2
:10165000310069465846FEF767FECDF80080CDE9B7
:101660000164694658460394FEF75EFE4FF28050CF
:101670000090CDE90164694623480394FEF754FEC7
:10168000A802CDE9000669461F48CDE90245FEF7EC
:101690004BFE4FF4C640CDE9000469461B48029456
:1016A000FEF742FE0097CDE90164694617480394AE
:1016B000FEF73AFE8020CDE9000669464846CDE9AE
:1016C0000245FEF731FEE8010090CDE90154039494
:1016D000694650460494FEF727FE00976946504637
:1016E000CDE90145FEF720FE03208DE83100694673
:1016F0000648FEF719FE07B0BDE8F08F303802400B
:10170000000002400004024000100240000C0240B1
:10171000000802400D480C494FF4007201604FF47C
:10172000827141604FF4004181600021C16001611C
:10173000C0E905122022C0E90721416281620A2125
:10174000C162FFF781BA000000300140E4010020CF
:1017500010B592B000240F941C2108A81094FEF735
:1017600067FD20216846FEF763FD1A481849C0E965
:1017700000144FF6FF71C0E90241046144618461C5
:10178000FFF771FD0F940FA912481094FFF710FB9B
:101790006020CDE908040A940B940C940D94002267
:1017A00008A90C480E94FFF7F6FC00944FF4005083
:1017B000CDE90440029401940394694605480794D6
:1017C000FFF7CCFA0348FFF78BFC12B010BD000006
:1017D000000001403C02002010B58AB000240794AC
:1017E0001C2168460894FEF723FD11480F49C0E903
:1017F00000144FF6FF71C0E9024104618461FFF7F4
:1018000032FD079407A90A480894FFF7D1FA60202F
:10181000CDE9000402940022694605480494FFF7CC
:10182000BAFC0348FFF75CFC0AB010BD000400409E
:101830007C02002010B58EB000240794089409940F
:101840000A940B941C2168460C94FEF7F1FC164890
:10185000144901605421C0E901146421C0E9031452
:101860008461FFF7EDFA4FF48050079007A90E4806
:10187000FFF716FB0C48FFF7F6FC0B940BA90A4880
:101880000C94FFF795FA6020CDE900040294002241
:10189000694605480494FFF77EFC0348FFF720FCE7
:1018A0000EB010BD00080040BC020020FEE77047EB
:1018B00070477047FEF720BE30B593B030216846C0
:1018C000FEF7B6FC14210CA8FEF7B2FC1E4800255A
:1018D000016841F080510160006800F08050119073
:1018E0001A48016841F4804101600068022400F454
:1018F00080401190032000904FF48030019001202F
:101900000390102004908004CDE906400D2008903B
:10191000A820CDE9090407200B906846FEF7B8FF20
:101920000CA90F2081E831004FF4A0500F90E00285
:10193000109005210CA8FEF779FE002211461046F2
:10194000FEF760FF13B030BD403802400070004029
:101950000548016841F47001016003494FF00060DF
:10196000803908607047000088ED00E00148FFF70B
:1019700003BB00007C020020F0B50268254C264D18
:10198000264E274F274B4FF0804CA04209D0604590
:1019900007D0A84205D0B04203D0B84201D0984247
:1019A00004D122F0700E4A6842EA0E02A0421BD017
:1019B000604519D0A84217D0B04215D0B84213D014
:1019C000984211D0184DA8420ED0184DA8420BD005
:1019D000174DA84208D0174DA84205D0164DA84271
:1019E00002D0164DA84203D122F44075CA682A439A
:1019F0004D6922F080022A4302608A68C2620A6846
:101A00008262A04201D0984201D10969016301219B
:101A10004161F0BD000001400004004000080040AA
:101A2000000C00400004014000400140004401401F
:101A30000048014000180040001C00400020004009
:101A400010B5846842EA032224F47F440A43224307
:101A5000826010BD826822F070020A4342F00701E2
:101A600081607047F0B5026A22F001020262036AE7
:101A700042688469124E24F073050C682C4323F0ED
:101A800002058B682B430D4DA84201D0B04205D111
:101A900023F00807CB683B4323F00403A84201D09E
:101AA000B04205D14D6922F4407215438A692A4338
:101AB00042608461496841630362F0BD00000140F7
:101AC00000040140F0B5026A22F010020262026ACC
:101AD000436884690D6824F4E64444EA05248D686B
:101AE00022F0200242EA05120F4D104EA84201D00A
:101AF000B04206D1CF6822F0800242EA071222F0FB
:101B00004002A84201D0B04207D14D6923F440639E
:101B100043EA85038D6943EA85034360846149682C
:101B200081630262F0BD000000000140000401403A
:101B3000F0B5026A22F480720262026A4368C469E4
:101B400022F4007224F073050C68124E2C438D6849
:101B500042EA05220E4DA84201D0B04206D1CF681C
:101B600022F4006242EA072222F48062A84201D0F5
:101B7000B04207D14D6923F4405343EA05138D6900
:101B800043EA05134360C4614968C1630262F0BD62
:101B9000000001400004014030B5026A22F4805286
:101BA0000262046A4268C3690D6823F4E64343EAAB
:101BB00005238D6824F4005444EA0534084DA842F6
:101BC00002D0084DA84204D14D6922F4804242EA75
:101BD00085124260C36149680164046230BD00003F
:101BE000000001400004014010B5036A046A24F0BB
:101BF00001040462846924F0F00444EA021423F02E
:101C00000A020A438461026210BD10B5036A23F020
:101C1000100303628369046A23F4704343EA0232C7
:101C200024F0A00343EA01118261016210BD10B5E6
:101C3000806B0021C185C184FFF75FFB10BD016887
:101C4000CA6822F49072CA6001684A6922F00102EF
:101C50004A61202180F83A10704710B590F83A1088
:101C6000222901D0022010BD8168B1F5805F11D01A
:101C70000169002901681FD0496801F07F03816A6A
:101C80004A1C82620B70C18D491E0904090CC18572
:101C900018D02BE00269816A002A0268526805D0D8
:101CA000D2B20A80816A491C8162ECE7C2F3080261
:101CB0000A80816A891CF7E74A68816A4B1C836243
:101CC0000A70E0E70168CA6822F02002CA60016871
:101CD000CA6822F48072CA6001684A6922F001026F
:101CE0004A61202180F83A10FFF7F8FB002010BD70
:101CF0002DE9F041044600680169E26821F4405191
:101D0000114301612169A068E269084361691143D7
:101D100008432168CA6849F20C639A430243CA60C7
:101D200020684169A26921F4407111434161E06971
:101D3000192764253226B0F5004F354A3549206809
:101D40004FF0000806D0884201D0904236D1FEF70D
:101D500017FD35E0884201D0904202D1FEF710FD18
:101D600001E0FEF7FDFC61684A18A0FB070148EBA3
:101D70000803FEF725FA0146B0FBF5F00201B1FBBE
:101D8000F5F06FF01803584301EB800006EBC0003C
:101D9000B0FBF5F000F0F80002EB4002B1FBF5F00B
:101DA000584301EB800006EBC000B0FBF5F000F0FB
:101DB0000700216810448860BDE8F081FEF7D0FC80
:101DC00061688B0F8A00A0FB0701FEF7F9F9014655
:101DD000B0FBF5F06FF01802504301EB800006EB0A
:101DE0000010B0FBF5F000F0F002B1FBF5F002EBF3
:101DF0000012B1FBF5F06FF01803584301EB8000BF
:101E000006EB0010B0FBF5F000F00F00D1E700008A
:101E1000001401400010014090F83910212901D030
:101E2000022070478168B1F5805F016A0BD04A1CBF
:101E30000262026809785160C18C491E0904090CCC
:101E4000C1840ED017E009880268C1F3080151600F
:101E500001690029016A02D0491C0162ECE7891C72
:101E6000FBE70168CA6822F08002CA600068C168A6
:101E700041F04001C1600020704700000148FFF7B9
:101E80003DBA0000FC020020FEE70907090E002809
:101E900004DB00F1E02080F80014704700F00F0030
:101EA00000F1E02080F8141D704702E008C8121FFE
:101EB00008C1002AFAD170477047002001E001C133
:101EC000121F002AFBD17047FEF71EFBFFF7F4FC40
:101ED000FFF744FB1549144808600846FEF786FEE4
:101EE000FFF718FCFFF734FCFFF776FCFFF7A2FCC6
:101EF00010480F490C2201604FF4E131416000218C
:101F00008160C160C0E904128161C161FFF780FA9C
:101F1000002211462520FEF757FB2520FEF746FB41
:101F2000FFF70CFBFCE7000000080650D40100207E
:101F300000100140FC020020000000000000000032
:101F4000010203040607080900000000010203045F
:101F5000701F000800000020D4010000A802000843
:101F60009C1F0008D40100206C050000BA1E000868
:101F700022022A01035A01033901E15915790101AD
:101F800010E920091E30091E40092E60091F400972
:0C1F9000DDE029E11182101324F40000B0
:040000050800018965
:00000001FF
